{
  "_format": "hh-sol-artifact-1",
  "contractName": "ShareToken",
  "sourceName": "contracts/ShareToken.sol",
  "abi": [
    {
      "inputs": [
        {
          "internalType": "string",
          "name": "name",
          "type": "string"
        },
        {
          "internalType": "string",
          "name": "symbol",
          "type": "string"
        },
        {
          "internalType": "contract ComplianceModule",
          "name": "_compliance",
          "type": "address"
        }
      ],
      "stateMutability": "nonpayable",
      "type": "constructor"
    },
    {
      "inputs": [],
      "name": "ECDSAInvalidSignature",
      "type": "error"
    },
    {
      "inputs": [
        {
          "internalType": "uint256",
          "name": "length",
          "type": "uint256"
        }
      ],
      "name": "ECDSAInvalidSignatureLength",
      "type": "error"
    },
    {
      "inputs": [
        {
          "internalType": "bytes32",
          "name": "s",
          "type": "bytes32"
        }
      ],
      "name": "ECDSAInvalidSignatureS",
      "type": "error"
    },
    {
      "inputs": [
        {
          "internalType": "address",
          "name": "spender",
          "type": "address"
        },
        {
          "internalType": "uint256",
          "name": "allowance",
          "type": "uint256"
        },
        {
          "internalType": "uint256",
          "name": "needed",
          "type": "uint256"
        }
      ],
      "name": "ERC20InsufficientAllowance",
      "type": "error"
    },
    {
      "inputs": [
        {
          "internalType": "address",
          "name": "sender",
          "type": "address"
        },
        {
          "internalType": "uint256",
          "name": "balance",
          "type": "uint256"
        },
        {
          "internalType": "uint256",
          "name": "needed",
          "type": "uint256"
        }
      ],
      "name": "ERC20InsufficientBalance",
      "type": "error"
    },
    {
      "inputs": [
        {
          "internalType": "address",
          "name": "approver",
          "type": "address"
        }
      ],
      "name": "ERC20InvalidApprover",
      "type": "error"
    },
    {
      "inputs": [
        {
          "internalType": "address",
          "name": "receiver",
          "type": "address"
        }
      ],
      "name": "ERC20InvalidReceiver",
      "type": "error"
    },
    {
      "inputs": [
        {
          "internalType": "address",
          "name": "sender",
          "type": "address"
        }
      ],
      "name": "ERC20InvalidSender",
      "type": "error"
    },
    {
      "inputs": [
        {
          "internalType": "address",
          "name": "spender",
          "type": "address"
        }
      ],
      "name": "ERC20InvalidSpender",
      "type": "error"
    },
    {
      "inputs": [
        {
          "internalType": "uint256",
          "name": "deadline",
          "type": "uint256"
        }
      ],
      "name": "ERC2612ExpiredSignature",
      "type": "error"
    },
    {
      "inputs": [
        {
          "internalType": "address",
          "name": "signer",
          "type": "address"
        },
        {
          "internalType": "address",
          "name": "owner",
          "type": "address"
        }
      ],
      "name": "ERC2612InvalidSigner",
      "type": "error"
    },
    {
      "inputs": [
        {
          "internalType": "address",
          "name": "account",
          "type": "address"
        },
        {
          "internalType": "uint256",
          "name": "currentNonce",
          "type": "uint256"
        }
      ],
      "name": "InvalidAccountNonce",
      "type": "error"
    },
    {
      "inputs": [],
      "name": "InvalidShortString",
      "type": "error"
    },
    {
      "inputs": [
        {
          "internalType": "address",
          "name": "owner",
          "type": "address"
        }
      ],
      "name": "OwnableInvalidOwner",
      "type": "error"
    },
    {
      "inputs": [
        {
          "internalType": "address",
          "name": "account",
          "type": "address"
        }
      ],
      "name": "OwnableUnauthorizedAccount",
      "type": "error"
    },
    {
      "inputs": [
        {
          "internalType": "string",
          "name": "str",
          "type": "string"
        }
      ],
      "name": "StringTooLong",
      "type": "error"
    },
    {
      "anonymous": false,
      "inputs": [
        {
          "indexed": true,
          "internalType": "address",
          "name": "owner",
          "type": "address"
        },
        {
          "indexed": true,
          "internalType": "address",
          "name": "spender",
          "type": "address"
        },
        {
          "indexed": false,
          "internalType": "uint256",
          "name": "value",
          "type": "uint256"
        }
      ],
      "name": "Approval",
      "type": "event"
    },
    {
      "anonymous": false,
      "inputs": [],
      "name": "EIP712DomainChanged",
      "type": "event"
    },
    {
      "anonymous": false,
      "inputs": [
        {
          "indexed": true,
          "internalType": "address",
          "name": "previousOwner",
          "type": "address"
        },
        {
          "indexed": true,
          "internalType": "address",
          "name": "newOwner",
          "type": "address"
        }
      ],
      "name": "OwnershipTransferred",
      "type": "event"
    },
    {
      "anonymous": false,
      "inputs": [
        {
          "indexed": true,
          "internalType": "address",
          "name": "from",
          "type": "address"
        },
        {
          "indexed": true,
          "internalType": "address",
          "name": "to",
          "type": "address"
        },
        {
          "indexed": false,
          "internalType": "uint256",
          "name": "value",
          "type": "uint256"
        }
      ],
      "name": "Transfer",
      "type": "event"
    },
    {
      "inputs": [],
      "name": "DOMAIN_SEPARATOR",
      "outputs": [
        {
          "internalType": "bytes32",
          "name": "",
          "type": "bytes32"
        }
      ],
      "stateMutability": "view",
      "type": "function"
    },
    {
      "inputs": [
        {
          "internalType": "address",
          "name": "owner",
          "type": "address"
        },
        {
          "internalType": "address",
          "name": "spender",
          "type": "address"
        }
      ],
      "name": "allowance",
      "outputs": [
        {
          "internalType": "uint256",
          "name": "",
          "type": "uint256"
        }
      ],
      "stateMutability": "view",
      "type": "function"
    },
    {
      "inputs": [
        {
          "internalType": "address",
          "name": "spender",
          "type": "address"
        },
        {
          "internalType": "uint256",
          "name": "value",
          "type": "uint256"
        }
      ],
      "name": "approve",
      "outputs": [
        {
          "internalType": "bool",
          "name": "",
          "type": "bool"
        }
      ],
      "stateMutability": "nonpayable",
      "type": "function"
    },
    {
      "inputs": [
        {
          "internalType": "address",
          "name": "account",
          "type": "address"
        }
      ],
      "name": "balanceOf",
      "outputs": [
        {
          "internalType": "uint256",
          "name": "",
          "type": "uint256"
        }
      ],
      "stateMutability": "view",
      "type": "function"
    },
    {
      "inputs": [],
      "name": "compliance",
      "outputs": [
        {
          "internalType": "contract ComplianceModule",
          "name": "",
          "type": "address"
        }
      ],
      "stateMutability": "view",
      "type": "function"
    },
    {
      "inputs": [],
      "name": "decimals",
      "outputs": [
        {
          "internalType": "uint8",
          "name": "",
          "type": "uint8"
        }
      ],
      "stateMutability": "view",
      "type": "function"
    },
    {
      "inputs": [],
      "name": "eip712Domain",
      "outputs": [
        {
          "internalType": "bytes1",
          "name": "fields",
          "type": "bytes1"
        },
        {
          "internalType": "string",
          "name": "name",
          "type": "string"
        },
        {
          "internalType": "string",
          "name": "version",
          "type": "string"
        },
        {
          "internalType": "uint256",
          "name": "chainId",
          "type": "uint256"
        },
        {
          "internalType": "address",
          "name": "verifyingContract",
          "type": "address"
        },
        {
          "internalType": "bytes32",
          "name": "salt",
          "type": "bytes32"
        },
        {
          "internalType": "uint256[]",
          "name": "extensions",
          "type": "uint256[]"
        }
      ],
      "stateMutability": "view",
      "type": "function"
    },
    {
      "inputs": [
        {
          "internalType": "address",
          "name": "to",
          "type": "address"
        },
        {
          "internalType": "uint256",
          "name": "amount",
          "type": "uint256"
        }
      ],
      "name": "mint",
      "outputs": [],
      "stateMutability": "nonpayable",
      "type": "function"
    },
    {
      "inputs": [],
      "name": "name",
      "outputs": [
        {
          "internalType": "string",
          "name": "",
          "type": "string"
        }
      ],
      "stateMutability": "view",
      "type": "function"
    },
    {
      "inputs": [
        {
          "internalType": "address",
          "name": "owner",
          "type": "address"
        }
      ],
      "name": "nonces",
      "outputs": [
        {
          "internalType": "uint256",
          "name": "",
          "type": "uint256"
        }
      ],
      "stateMutability": "view",
      "type": "function"
    },
    {
      "inputs": [],
      "name": "owner",
      "outputs": [
        {
          "internalType": "address",
          "name": "",
          "type": "address"
        }
      ],
      "stateMutability": "view",
      "type": "function"
    },
    {
      "inputs": [
        {
          "internalType": "address",
          "name": "owner",
          "type": "address"
        },
        {
          "internalType": "address",
          "name": "spender",
          "type": "address"
        },
        {
          "internalType": "uint256",
          "name": "value",
          "type": "uint256"
        },
        {
          "internalType": "uint256",
          "name": "deadline",
          "type": "uint256"
        },
        {
          "internalType": "uint8",
          "name": "v",
          "type": "uint8"
        },
        {
          "internalType": "bytes32",
          "name": "r",
          "type": "bytes32"
        },
        {
          "internalType": "bytes32",
          "name": "s",
          "type": "bytes32"
        }
      ],
      "name": "permit",
      "outputs": [],
      "stateMutability": "nonpayable",
      "type": "function"
    },
    {
      "inputs": [],
      "name": "renounceOwnership",
      "outputs": [],
      "stateMutability": "nonpayable",
      "type": "function"
    },
    {
      "inputs": [],
      "name": "symbol",
      "outputs": [
        {
          "internalType": "string",
          "name": "",
          "type": "string"
        }
      ],
      "stateMutability": "view",
      "type": "function"
    },
    {
      "inputs": [],
      "name": "totalSupply",
      "outputs": [
        {
          "internalType": "uint256",
          "name": "",
          "type": "uint256"
        }
      ],
      "stateMutability": "view",
      "type": "function"
    },
    {
      "inputs": [
        {
          "internalType": "address",
          "name": "to",
          "type": "address"
        },
        {
          "internalType": "uint256",
          "name": "value",
          "type": "uint256"
        }
      ],
      "name": "transfer",
      "outputs": [
        {
          "internalType": "bool",
          "name": "",
          "type": "bool"
        }
      ],
      "stateMutability": "nonpayable",
      "type": "function"
    },
    {
      "inputs": [
        {
          "internalType": "address",
          "name": "from",
          "type": "address"
        },
        {
          "internalType": "address",
          "name": "to",
          "type": "address"
        },
        {
          "internalType": "uint256",
          "name": "value",
          "type": "uint256"
        }
      ],
      "name": "transferFrom",
      "outputs": [
        {
          "internalType": "bool",
          "name": "",
          "type": "bool"
        }
      ],
      "stateMutability": "nonpayable",
      "type": "function"
    },
    {
      "inputs": [
        {
          "internalType": "address",
          "name": "newOwner",
          "type": "address"
        }
      ],
      "name": "transferOwnership",
      "outputs": [],
      "stateMutability": "nonpayable",
      "type": "function"
    }
  ],
  "bytecode": "0x6101606040523480156200001257600080fd5b5060405162002c3538038062002c35833981810160405281019062000038919062000619565b3383806040518060400160405280600181526020017f310000000000000000000000000000000000000000000000000000000000000081525086868160039081620000849190620008fe565b508060049081620000969190620008fe565b505050620000af6005836200021b60201b90919060201c565b6101208181525050620000cd6006826200021b60201b90919060201c565b6101408181525050818051906020012060e08181525050808051906020012061010081815250504660a081815250506200010c6200027360201b60201c565b608081815250503073ffffffffffffffffffffffffffffffffffffffff1660c08173ffffffffffffffffffffffffffffffffffffffff1681525050505050600073ffffffffffffffffffffffffffffffffffffffff168173ffffffffffffffffffffffffffffffffffffffff1603620001bf5760006040517f1e4fbdf7000000000000000000000000000000000000000000000000000000008152600401620001b69190620009f6565b60405180910390fd5b620001d081620002d060201b60201c565b5080600960006101000a81548173ffffffffffffffffffffffffffffffffffffffff021916908373ffffffffffffffffffffffffffffffffffffffff16021790555050505062000bb4565b6000602083511015620002415762000239836200039660201b60201c565b90506200026d565b8262000253836200040360201b60201c565b6000019081620002649190620008fe565b5060ff60001b90505b92915050565b60007f8b73c3c69bb8fe3d512ecc4cf759cc79239f7b179b0ffacaa9a75d522b39400f60e051610100514630604051602001620002b595949392919062000a3f565b60405160208183030381529060405280519060200120905090565b6000600860009054906101000a900473ffffffffffffffffffffffffffffffffffffffff16905081600860006101000a81548173ffffffffffffffffffffffffffffffffffffffff021916908373ffffffffffffffffffffffffffffffffffffffff1602179055508173ffffffffffffffffffffffffffffffffffffffff168173ffffffffffffffffffffffffffffffffffffffff167f8be0079c531659141344cd1fd0a4f28419497f9722a3daafe3b4186f6b6457e060405160405180910390a35050565b600080829050601f81511115620003e657826040517f305a27a9000000000000000000000000000000000000000000000000000000008152600401620003dd919062000aee565b60405180910390fd5b805181620003f49062000b44565b60001c1760001b915050919050565b6000819050919050565b6000604051905090565b600080fd5b600080fd5b600080fd5b600080fd5b6000601f19601f8301169050919050565b7f4e487b7100000000000000000000000000000000000000000000000000000000600052604160045260246000fd5b62000476826200042b565b810181811067ffffffffffffffff821117156200049857620004976200043c565b5b80604052505050565b6000620004ad6200040d565b9050620004bb82826200046b565b919050565b600067ffffffffffffffff821115620004de57620004dd6200043c565b5b620004e9826200042b565b9050602081019050919050565b60005b8381101562000516578082015181840152602081019050620004f9565b60008484015250505050565b6000620005396200053384620004c0565b620004a1565b90508281526020810184848401111562000558576200055762000426565b5b62000565848285620004f6565b509392505050565b600082601f83011262000585576200058462000421565b5b81516200059784826020860162000522565b91505092915050565b600073ffffffffffffffffffffffffffffffffffffffff82169050919050565b6000620005cd82620005a0565b9050919050565b6000620005e182620005c0565b9050919050565b620005f381620005d4565b8114620005ff57600080fd5b50565b6000815190506200061381620005e8565b92915050565b60008060006060848603121562000635576200063462000417565b5b600084015167ffffffffffffffff8111156200065657620006556200041c565b5b62000664868287016200056d565b935050602084015167ffffffffffffffff8111156200068857620006876200041c565b5b62000696868287016200056d565b9250506040620006a98682870162000602565b9150509250925092565b600081519050919050565b7f4e487b7100000000000000000000000000000000000000000000000000000000600052602260045260246000fd5b600060028204905060018216806200070657607f821691505b6020821081036200071c576200071b620006be565b5b50919050565b60008190508160005260206000209050919050565b60006020601f8301049050919050565b600082821b905092915050565b600060088302620007867fffffffffffffffffffffffffffffffffffffffffffffffffffffffffffffffff8262000747565b62000792868362000747565b95508019841693508086168417925050509392505050565b6000819050919050565b6000819050919050565b6000620007df620007d9620007d384620007aa565b620007b4565b620007aa565b9050919050565b6000819050919050565b620007fb83620007be565b620008136200080a82620007e6565b84845462000754565b825550505050565b600090565b6200082a6200081b565b62000837818484620007f0565b505050565b5b818110156200085f576200085360008262000820565b6001810190506200083d565b5050565b601f821115620008ae57620008788162000722565b620008838462000737565b8101602085101562000893578190505b620008ab620008a28562000737565b8301826200083c565b50505b505050565b600082821c905092915050565b6000620008d360001984600802620008b3565b1980831691505092915050565b6000620008ee8383620008c0565b9150826002028217905092915050565b6200090982620006b3565b67ffffffffffffffff8111156200092557620009246200043c565b5b620009318254620006ed565b6200093e82828562000863565b600060209050601f83116001811462000976576000841562000961578287015190505b6200096d8582620008e0565b865550620009dd565b601f198416620009868662000722565b60005b82811015620009b05784890151825560018201915060208501945060208101905062000989565b86831015620009d05784890151620009cc601f891682620008c0565b8355505b6001600288020188555050505b505050505050565b620009f081620005c0565b82525050565b600060208201905062000a0d6000830184620009e5565b92915050565b6000819050919050565b62000a288162000a13565b82525050565b62000a3981620007aa565b82525050565b600060a08201905062000a56600083018862000a1d565b62000a65602083018762000a1d565b62000a74604083018662000a1d565b62000a83606083018562000a2e565b62000a926080830184620009e5565b9695505050505050565b600082825260208201905092915050565b600062000aba82620006b3565b62000ac6818562000a9c565b935062000ad8818560208601620004f6565b62000ae3816200042b565b840191505092915050565b6000602082019050818103600083015262000b0a818462000aad565b905092915050565b600081519050919050565b6000819050602082019050919050565b600062000b3b825162000a13565b80915050919050565b600062000b518262000b12565b8262000b5d8462000b1d565b905062000b6a8162000b2d565b9250602082101562000bad5762000ba87fffffffffffffffffffffffffffffffffffffffffffffffffffffffffffffffff8360200360080262000747565b831692505b5050919050565b60805160a05160c05160e05161010051610120516101405161202662000c0f6000396000610dd301526000610d98015260006112e8015260006112c701526000610ac401526000610b1a01526000610b4301526120266000f3fe608060405234801561001057600080fd5b50600436106101165760003560e01c8063715018a6116100a257806395d89b411161007157806395d89b41146102d9578063a9059cbb146102f7578063d505accf14610327578063dd62ed3e14610343578063f2fde38b1461037357610116565b8063715018a61461025d5780637ecebe001461026757806384b0196e146102975780638da5cb5b146102bb57610116565b8063313ce567116100e9578063313ce567146101b75780633644e515146101d557806340c10f19146101f35780636290865d1461020f57806370a082311461022d57610116565b806306fdde031461011b578063095ea7b31461013957806318160ddd1461016957806323b872dd14610187575b600080fd5b61012361038f565b60405161013091906117d5565b60405180910390f35b610153600480360381019061014e9190611890565b610421565b60405161016091906118eb565b60405180910390f35b610171610444565b60405161017e9190611915565b60405180910390f35b6101a1600480360381019061019c9190611930565b61044e565b6040516101ae91906118eb565b60405180910390f35b6101bf61047d565b6040516101cc919061199f565b60405180910390f35b6101dd610486565b6040516101ea91906119d3565b60405180910390f35b61020d60048036038101906102089190611890565b610495565b005b6102176104ab565b6040516102249190611a4d565b60405180910390f35b61024760048036038101906102429190611a68565b6104d1565b6040516102549190611915565b60405180910390f35b610265610519565b005b610281600480360381019061027c9190611a68565b61052d565b60405161028e9190611915565b60405180910390f35b61029f61053f565b6040516102b29796959493929190611b9d565b60405180910390f35b6102c36105e9565b6040516102d09190611c21565b60405180910390f35b6102e1610613565b6040516102ee91906117d5565b60405180910390f35b610311600480360381019061030c9190611890565b6106a5565b60405161031e91906118eb565b60405180910390f35b610341600480360381019061033c9190611c94565b6106c8565b005b61035d60048036038101906103589190611d36565b610810565b60405161036a9190611915565b60405180910390f35b61038d60048036038101906103889190611a68565b610897565b005b60606003805461039e90611da5565b80601f01602080910402602001604051908101604052809291908181526020018280546103ca90611da5565b80156104175780601f106103ec57610100808354040283529160200191610417565b820191906000526020600020905b8154815290600101906020018083116103fa57829003601f168201915b5050505050905090565b60008061042c61091d565b9050610439818585610925565b600191505092915050565b6000600254905090565b60008061045961091d565b9050610466858285610937565b6104718585856109cc565b60019150509392505050565b60006012905090565b6000610490610ac0565b905090565b61049d610b77565b6104a78282610bfe565b5050565b600960009054906101000a900473ffffffffffffffffffffffffffffffffffffffff1681565b60008060008373ffffffffffffffffffffffffffffffffffffffff1673ffffffffffffffffffffffffffffffffffffffff168152602001908152602001600020549050919050565b610521610b77565b61052b6000610c80565b565b600061053882610d46565b9050919050565b600060608060008060006060610553610d8f565b61055b610dca565b46306000801b600067ffffffffffffffff81111561057c5761057b611dd6565b5b6040519080825280602002602001820160405280156105aa5781602001602082028036833780820191505090505b507f0f00000000000000000000000000000000000000000000000000000000000000959493929190965096509650965096509650965090919293949596565b6000600860009054906101000a900473ffffffffffffffffffffffffffffffffffffffff16905090565b60606004805461062290611da5565b80601f016020809104026020016040519081016040528092919081815260200182805461064e90611da5565b801561069b5780601f106106705761010080835404028352916020019161069b565b820191906000526020600020905b81548152906001019060200180831161067e57829003601f168201915b5050505050905090565b6000806106b061091d565b90506106bd8185856109cc565b600191505092915050565b8342111561070d57836040517f627913020000000000000000000000000000000000000000000000000000000081526004016107049190611915565b60405180910390fd5b60007f6e71edae12b1b97f4d1f60370fef10105fa2faae0126114a169c64845d6126c988888861073c8c610e05565b8960405160200161075296959493929190611e05565b604051602081830303815290604052805190602001209050600061077582610e5c565b9050600061078582878787610e76565b90508973ffffffffffffffffffffffffffffffffffffffff168173ffffffffffffffffffffffffffffffffffffffff16146107f957808a6040517f4b800e460000000000000000000000000000000000000000000000000000000081526004016107f0929190611e66565b60405180910390fd5b6108048a8a8a610925565b50505050505050505050565b6000600160008473ffffffffffffffffffffffffffffffffffffffff1673ffffffffffffffffffffffffffffffffffffffff16815260200190815260200160002060008373ffffffffffffffffffffffffffffffffffffffff1673ffffffffffffffffffffffffffffffffffffffff16815260200190815260200160002054905092915050565b61089f610b77565b600073ffffffffffffffffffffffffffffffffffffffff168173ffffffffffffffffffffffffffffffffffffffff16036109115760006040517f1e4fbdf70000000000000000000000000000000000000000000000000000000081526004016109089190611c21565b60405180910390fd5b61091a81610c80565b50565b600033905090565b6109328383836001610ea6565b505050565b60006109438484610810565b90507fffffffffffffffffffffffffffffffffffffffffffffffffffffffffffffffff8110156109c657818110156109b6578281836040517ffb8f41b20000000000000000000000000000000000000000000000000000000081526004016109ad93929190611e8f565b60405180910390fd5b6109c584848484036000610ea6565b5b50505050565b600073ffffffffffffffffffffffffffffffffffffffff168373ffffffffffffffffffffffffffffffffffffffff1603610a3e5760006040517f96c6fd1e000000000000000000000000000000000000000000000000000000008152600401610a359190611c21565b60405180910390fd5b600073ffffffffffffffffffffffffffffffffffffffff168273ffffffffffffffffffffffffffffffffffffffff1603610ab05760006040517fec442f05000000000000000000000000000000000000000000000000000000008152600401610aa79190611c21565b60405180910390fd5b610abb83838361107d565b505050565b60007f000000000000000000000000000000000000000000000000000000000000000073ffffffffffffffffffffffffffffffffffffffff163073ffffffffffffffffffffffffffffffffffffffff16148015610b3c57507f000000000000000000000000000000000000000000000000000000000000000046145b15610b69577f00000000000000000000000000000000000000000000000000000000000000009050610b74565b610b716112a2565b90505b90565b610b7f61091d565b73ffffffffffffffffffffffffffffffffffffffff16610b9d6105e9565b73ffffffffffffffffffffffffffffffffffffffff1614610bfc57610bc061091d565b6040517f118cdaa7000000000000000000000000000000000000000000000000000000008152600401610bf39190611c21565b60405180910390fd5b565b600073ffffffffffffffffffffffffffffffffffffffff168273ffffffffffffffffffffffffffffffffffffffff1603610c705760006040517fec442f05000000000000000000000000000000000000000000000000000000008152600401610c679190611c21565b60405180910390fd5b610c7c6000838361107d565b5050565b6000600860009054906101000a900473ffffffffffffffffffffffffffffffffffffffff16905081600860006101000a81548173ffffffffffffffffffffffffffffffffffffffff021916908373ffffffffffffffffffffffffffffffffffffffff1602179055508173ffffffffffffffffffffffffffffffffffffffff168173ffffffffffffffffffffffffffffffffffffffff167f8be0079c531659141344cd1fd0a4f28419497f9722a3daafe3b4186f6b6457e060405160405180910390a35050565b6000600760008373ffffffffffffffffffffffffffffffffffffffff1673ffffffffffffffffffffffffffffffffffffffff168152602001908152602001600020549050919050565b6060610dc560057f000000000000000000000000000000000000000000000000000000000000000061133890919063ffffffff16565b905090565b6060610e0060067f000000000000000000000000000000000000000000000000000000000000000061133890919063ffffffff16565b905090565b6000600760008373ffffffffffffffffffffffffffffffffffffffff1673ffffffffffffffffffffffffffffffffffffffff1681526020019081526020016000206000815480929190600101919050559050919050565b6000610e6f610e69610ac0565b836113e8565b9050919050565b600080600080610e8888888888611429565b925092509250610e98828261151d565b829350505050949350505050565b600073ffffffffffffffffffffffffffffffffffffffff168473ffffffffffffffffffffffffffffffffffffffff1603610f185760006040517fe602df05000000000000000000000000000000000000000000000000000000008152600401610f0f9190611c21565b60405180910390fd5b600073ffffffffffffffffffffffffffffffffffffffff168373ffffffffffffffffffffffffffffffffffffffff1603610f8a5760006040517f94280d62000000000000000000000000000000000000000000000000000000008152600401610f819190611c21565b60405180910390fd5b81600160008673ffffffffffffffffffffffffffffffffffffffff1673ffffffffffffffffffffffffffffffffffffffff16815260200190815260200160002060008573ffffffffffffffffffffffffffffffffffffffff1673ffffffffffffffffffffffffffffffffffffffff168152602001908152602001600020819055508015611077578273ffffffffffffffffffffffffffffffffffffffff168473ffffffffffffffffffffffffffffffffffffffff167f8c5be1e5ebec7d5bd14f71427d1e84f3dd0314c0f7b2291e5b200ac8c7c3b9258460405161106e9190611915565b60405180910390a35b50505050565b600073ffffffffffffffffffffffffffffffffffffffff168373ffffffffffffffffffffffffffffffffffffffff16036110cf5780600260008282546110c39190611ef5565b925050819055506111a2565b60008060008573ffffffffffffffffffffffffffffffffffffffff1673ffffffffffffffffffffffffffffffffffffffff1681526020019081526020016000205490508181101561115b578381836040517fe450d38c00000000000000000000000000000000000000000000000000000000815260040161115293929190611e8f565b60405180910390fd5b8181036000808673ffffffffffffffffffffffffffffffffffffffff1673ffffffffffffffffffffffffffffffffffffffff16815260200190815260200160002081905550505b600073ffffffffffffffffffffffffffffffffffffffff168273ffffffffffffffffffffffffffffffffffffffff16036111eb5780600260008282540392505081905550611238565b806000808473ffffffffffffffffffffffffffffffffffffffff1673ffffffffffffffffffffffffffffffffffffffff168152602001908152602001600020600082825401925050819055505b8173ffffffffffffffffffffffffffffffffffffffff168373ffffffffffffffffffffffffffffffffffffffff167fddf252ad1be2c89b69c2b068fc378daa952ba7f163c4a11628f55a4df523b3ef836040516112959190611915565b60405180910390a3505050565b60007f8b73c3c69bb8fe3d512ecc4cf759cc79239f7b179b0ffacaa9a75d522b39400f7f00000000000000000000000000000000000000000000000000000000000000007f0000000000000000000000000000000000000000000000000000000000000000463060405160200161131d959493929190611f29565b60405160208183030381529060405280519060200120905090565b606060ff60001b83146113555761134e83611681565b90506113e2565b81805461136190611da5565b80601f016020809104026020016040519081016040528092919081815260200182805461138d90611da5565b80156113da5780601f106113af576101008083540402835291602001916113da565b820191906000526020600020905b8154815290600101906020018083116113bd57829003601f168201915b505050505090505b92915050565b60006040517f190100000000000000000000000000000000000000000000000000000000000081528360028201528260228201526042812091505092915050565b60008060007f7fffffffffffffffffffffffffffffff5d576e7357a4501ddfe92f46681b20a08460001c1115611469576000600385925092509250611513565b60006001888888886040516000815260200160405260405161148e9493929190611f7c565b6020604051602081039080840390855afa1580156114b0573d6000803e3d6000fd5b505050602060405103519050600073ffffffffffffffffffffffffffffffffffffffff168173ffffffffffffffffffffffffffffffffffffffff160361150457600060016000801b93509350935050611513565b8060008060001b935093509350505b9450945094915050565b6000600381111561153157611530611fc1565b5b82600381111561154457611543611fc1565b5b031561167d576001600381111561155e5761155d611fc1565b5b82600381111561157157611570611fc1565b5b036115a8576040517ff645eedf00000000000000000000000000000000000000000000000000000000815260040160405180910390fd5b600260038111156115bc576115bb611fc1565b5b8260038111156115cf576115ce611fc1565b5b03611614578060001c6040517ffce698f700000000000000000000000000000000000000000000000000000000815260040161160b9190611915565b60405180910390fd5b60038081111561162757611626611fc1565b5b82600381111561163a57611639611fc1565b5b0361167c57806040517fd78bce0c00000000000000000000000000000000000000000000000000000000815260040161167391906119d3565b60405180910390fd5b5b5050565b6060600061168e836116f5565b90506000602067ffffffffffffffff8111156116ad576116ac611dd6565b5b6040519080825280601f01601f1916602001820160405280156116df5781602001600182028036833780820191505090505b5090508181528360208201528092505050919050565b60008060ff8360001c169050601f81111561173c576040517fb3512b0c00000000000000000000000000000000000000000000000000000000815260040160405180910390fd5b80915050919050565b600081519050919050565b600082825260208201905092915050565b60005b8381101561177f578082015181840152602081019050611764565b60008484015250505050565b6000601f19601f8301169050919050565b60006117a782611745565b6117b18185611750565b93506117c1818560208601611761565b6117ca8161178b565b840191505092915050565b600060208201905081810360008301526117ef818461179c565b905092915050565b600080fd5b600073ffffffffffffffffffffffffffffffffffffffff82169050919050565b6000611827826117fc565b9050919050565b6118378161181c565b811461184257600080fd5b50565b6000813590506118548161182e565b92915050565b6000819050919050565b61186d8161185a565b811461187857600080fd5b50565b60008135905061188a81611864565b92915050565b600080604083850312156118a7576118a66117f7565b5b60006118b585828601611845565b92505060206118c68582860161187b565b9150509250929050565b60008115159050919050565b6118e5816118d0565b82525050565b600060208201905061190060008301846118dc565b92915050565b61190f8161185a565b82525050565b600060208201905061192a6000830184611906565b92915050565b600080600060608486031215611949576119486117f7565b5b600061195786828701611845565b935050602061196886828701611845565b92505060406119798682870161187b565b9150509250925092565b600060ff82169050919050565b61199981611983565b82525050565b60006020820190506119b46000830184611990565b92915050565b6000819050919050565b6119cd816119ba565b82525050565b60006020820190506119e860008301846119c4565b92915050565b6000819050919050565b6000611a13611a0e611a09846117fc565b6119ee565b6117fc565b9050919050565b6000611a25826119f8565b9050919050565b6000611a3782611a1a565b9050919050565b611a4781611a2c565b82525050565b6000602082019050611a626000830184611a3e565b92915050565b600060208284031215611a7e57611a7d6117f7565b5b6000611a8c84828501611845565b91505092915050565b60007fff0000000000000000000000000000000000000000000000000000000000000082169050919050565b611aca81611a95565b82525050565b611ad98161181c565b82525050565b600081519050919050565b600082825260208201905092915050565b6000819050602082019050919050565b611b148161185a565b82525050565b6000611b268383611b0b565b60208301905092915050565b6000602082019050919050565b6000611b4a82611adf565b611b548185611aea565b9350611b5f83611afb565b8060005b83811015611b90578151611b778882611b1a565b9750611b8283611b32565b925050600181019050611b63565b5085935050505092915050565b600060e082019050611bb2600083018a611ac1565b8181036020830152611bc4818961179c565b90508181036040830152611bd8818861179c565b9050611be76060830187611906565b611bf46080830186611ad0565b611c0160a08301856119c4565b81810360c0830152611c138184611b3f565b905098975050505050505050565b6000602082019050611c366000830184611ad0565b92915050565b611c4581611983565b8114611c5057600080fd5b50565b600081359050611c6281611c3c565b92915050565b611c71816119ba565b8114611c7c57600080fd5b50565b600081359050611c8e81611c68565b92915050565b600080600080600080600060e0888a031215611cb357611cb26117f7565b5b6000611cc18a828b01611845565b9750506020611cd28a828b01611845565b9650506040611ce38a828b0161187b565b9550506060611cf48a828b0161187b565b9450506080611d058a828b01611c53565b93505060a0611d168a828b01611c7f565b92505060c0611d278a828b01611c7f565b91505092959891949750929550565b60008060408385031215611d4d57611d4c6117f7565b5b6000611d5b85828601611845565b9250506020611d6c85828601611845565b9150509250929050565b7f4e487b7100000000000000000000000000000000000000000000000000000000600052602260045260246000fd5b60006002820490506001821680611dbd57607f821691505b602082108103611dd057611dcf611d76565b5b50919050565b7f4e487b7100000000000000000000000000000000000000000000000000000000600052604160045260246000fd5b600060c082019050611e1a60008301896119c4565b611e276020830188611ad0565b611e346040830187611ad0565b611e416060830186611906565b611e4e6080830185611906565b611e5b60a0830184611906565b979650505050505050565b6000604082019050611e7b6000830185611ad0565b611e886020830184611ad0565b9392505050565b6000606082019050611ea46000830186611ad0565b611eb16020830185611906565b611ebe6040830184611906565b949350505050565b7f4e487b7100000000000000000000000000000000000000000000000000000000600052601160045260246000fd5b6000611f008261185a565b9150611f0b8361185a565b9250828201905080821115611f2357611f22611ec6565b5b92915050565b600060a082019050611f3e60008301886119c4565b611f4b60208301876119c4565b611f5860408301866119c4565b611f656060830185611906565b611f726080830184611ad0565b9695505050505050565b6000608082019050611f9160008301876119c4565b611f9e6020830186611990565b611fab60408301856119c4565b611fb860608301846119c4565b95945050505050565b7f4e487b7100000000000000000000000000000000000000000000000000000000600052602160045260246000fdfea2646970667358221220fcf996c98e609f32dff59e51da4db703fb93e1ec7f353b6c01d32f53b34f476f64736f6c63430008140033",
  "linkReferences": {},
  "deployedLinkReferences": {}
}