{
  "_format": "hh-sol-artifact-1",
  "contractName": "MantleDA",
  "sourceName": "contracts/MantleDA.sol",
  "abi": [
    {
      "anonymous": false,
      "inputs": [
        {
          "indexed": true,
          "internalType": "bytes32",
          "name": "dataHash",
          "type": "bytes32"
        },
        {
          "indexed": false,
          "internalType": "string",
          "name": "dataType",
          "type": "string"
        },
        {
          "indexed": false,
          "internalType": "uint256",
          "name": "timestamp",
          "type": "uint256"
        }
      ],
      "name": "DataStored",
      "type": "event"
    },
    {
      "anonymous": false,
      "inputs": [
        {
          "indexed": true,
          "internalType": "bytes32",
          "name": "proofHash",
          "type": "bytes32"
        },
        {
          "indexed": false,
          "internalType": "bool",
          "name": "valid",
          "type": "bool"
        }
      ],
      "name": "ProofVerified",
      "type": "event"
    },
    {
      "inputs": [
        {
          "internalType": "bytes32",
          "name": "",
          "type": "bytes32"
        }
      ],
      "name": "dataTypes",
      "outputs": [
        {
          "internalType": "string",
          "name": "",
          "type": "string"
        }
      ],
      "stateMutability": "view",
      "type": "function"
    },
    {
      "inputs": [
        {
          "internalType": "bytes32",
          "name": "dataHash",
          "type": "bytes32"
        }
      ],
      "name": "getDataType",
      "outputs": [
        {
          "internalType": "string",
          "name": "",
          "type": "string"
        }
      ],
      "stateMutability": "view",
      "type": "function"
    },
    {
      "inputs": [
        {
          "internalType": "bytes32",
          "name": "dataHash",
          "type": "bytes32"
        },
        {
          "internalType": "string",
          "name": "dataType",
          "type": "string"
        }
      ],
      "name": "storeData",
      "outputs": [],
      "stateMutability": "nonpayable",
      "type": "function"
    },
    {
      "inputs": [
        {
          "internalType": "bytes32",
          "name": "proofHash",
          "type": "bytes32"
        }
      ],
      "name": "storeProof",
      "outputs": [],
      "stateMutability": "nonpayable",
      "type": "function"
    },
    {
      "inputs": [
        {
          "internalType": "bytes32",
          "name": "",
          "type": "bytes32"
        }
      ],
      "name": "storedData",
      "outputs": [
        {
          "internalType": "bool",
          "name": "",
          "type": "bool"
        }
      ],
      "stateMutability": "view",
      "type": "function"
    },
    {
      "inputs": [
        {
          "internalType": "bytes32",
          "name": "dataHash",
          "type": "bytes32"
        }
      ],
      "name": "verifyData",
      "outputs": [
        {
          "internalType": "bool",
          "name": "",
          "type": "bool"
        }
      ],
      "stateMutability": "view",
      "type": "function"
    }
  ],
  "bytecode": "0x608060405234801561001057600080fd5b50610c19806100206000396000f3fe608060405234801561001057600080fd5b50600436106100625760003560e01c806331502f131461006757806353794a93146100975780638952877b146100b3578063ba24c07e146100cf578063c54475fb146100ff578063d10c4f341461012f575b600080fd5b610081600480360381019061007c919061053e565b61015f565b60405161008e91906105fb565b60405180910390f35b6100b160048036038101906100ac9190610752565b610204565b005b6100cd60048036038101906100c8919061053e565b6102ee565b005b6100e960048036038101906100e4919061053e565b61040b565b6040516100f691906107c9565b60405180910390f35b6101196004803603810190610114919061053e565b610434565b60405161012691906107c9565b60405180910390f35b6101496004803603810190610144919061053e565b610454565b60405161015691906105fb565b60405180910390f35b606060016000838152602001908152602001600020805461017f90610813565b80601f01602080910402602001604051908101604052809291908181526020018280546101ab90610813565b80156101f85780601f106101cd576101008083540402835291602001916101f8565b820191906000526020600020905b8154815290600101906020018083116101db57829003601f168201915b50505050509050919050565b60008083815260200190815260200160002060009054906101000a900460ff1615610264576040517f08c379a000000000000000000000000000000000000000000000000000000000815260040161025b90610890565b60405180910390fd5b600160008084815260200190815260200160002060006101000a81548160ff021916908315150217905550806001600084815260200190815260200160002090816102af9190610a66565b50817f8ea99397570dc7062feb3c3dee21002787711cc56768ffdbcc954ca2a06d634a82426040516102e2929190610b47565b60405180910390a25050565b60008082815260200190815260200160002060009054906101000a900460ff161561034e576040517f08c379a000000000000000000000000000000000000000000000000000000000815260040161034590610bc3565b60405180910390fd5b600160008083815260200190815260200160002060006101000a81548160ff0219169083151502179055506040518060400160405280600881526020017f7a6b2d70726f6f660000000000000000000000000000000000000000000000008152506001600083815260200190815260200160002090816103ce9190610a66565b50807ff8ea4b84d199e84ff35249e26840ceba1b2a1711d50a01b47e98173701172180600160405161040091906107c9565b60405180910390a250565b600080600083815260200190815260200160002060009054906101000a900460ff169050919050565b60006020528060005260406000206000915054906101000a900460ff1681565b6001602052806000526040600020600091509050805461047390610813565b80601f016020809104026020016040519081016040528092919081815260200182805461049f90610813565b80156104ec5780601f106104c1576101008083540402835291602001916104ec565b820191906000526020600020905b8154815290600101906020018083116104cf57829003601f168201915b505050505081565b6000604051905090565b600080fd5b600080fd5b6000819050919050565b61051b81610508565b811461052657600080fd5b50565b60008135905061053881610512565b92915050565b600060208284031215610554576105536104fe565b5b600061056284828501610529565b91505092915050565b600081519050919050565b600082825260208201905092915050565b60005b838110156105a557808201518184015260208101905061058a565b60008484015250505050565b6000601f19601f8301169050919050565b60006105cd8261056b565b6105d78185610576565b93506105e7818560208601610587565b6105f0816105b1565b840191505092915050565b6000602082019050818103600083015261061581846105c2565b905092915050565b600080fd5b600080fd5b7f4e487b7100000000000000000000000000000000000000000000000000000000600052604160045260246000fd5b61065f826105b1565b810181811067ffffffffffffffff8211171561067e5761067d610627565b5b80604052505050565b60006106916104f4565b905061069d8282610656565b919050565b600067ffffffffffffffff8211156106bd576106bc610627565b5b6106c6826105b1565b9050602081019050919050565b82818337600083830152505050565b60006106f56106f0846106a2565b610687565b90508281526020810184848401111561071157610710610622565b5b61071c8482856106d3565b509392505050565b600082601f8301126107395761073861061d565b5b81356107498482602086016106e2565b91505092915050565b60008060408385031215610769576107686104fe565b5b600061077785828601610529565b925050602083013567ffffffffffffffff81111561079857610797610503565b5b6107a485828601610724565b9150509250929050565b60008115159050919050565b6107c3816107ae565b82525050565b60006020820190506107de60008301846107ba565b92915050565b7f4e487b7100000000000000000000000000000000000000000000000000000000600052602260045260246000fd5b6000600282049050600182168061082b57607f821691505b60208210810361083e5761083d6107e4565b5b50919050565b7f4461746120616c72656164792073746f72656400000000000000000000000000600082015250565b600061087a601383610576565b915061088582610844565b602082019050919050565b600060208201905081810360008301526108a98161086d565b9050919050565b60008190508160005260206000209050919050565b60006020601f8301049050919050565b600082821b905092915050565b6000600883026109127fffffffffffffffffffffffffffffffffffffffffffffffffffffffffffffffff826108d5565b61091c86836108d5565b95508019841693508086168417925050509392505050565b6000819050919050565b6000819050919050565b600061096361095e61095984610934565b61093e565b610934565b9050919050565b6000819050919050565b61097d83610948565b6109916109898261096a565b8484546108e2565b825550505050565b600090565b6109a6610999565b6109b1818484610974565b505050565b5b818110156109d5576109ca60008261099e565b6001810190506109b7565b5050565b601f821115610a1a576109eb816108b0565b6109f4846108c5565b81016020851015610a03578190505b610a17610a0f856108c5565b8301826109b6565b50505b505050565b600082821c905092915050565b6000610a3d60001984600802610a1f565b1980831691505092915050565b6000610a568383610a2c565b9150826002028217905092915050565b610a6f8261056b565b67ffffffffffffffff811115610a8857610a87610627565b5b610a928254610813565b610a9d8282856109d9565b600060209050601f831160018114610ad05760008415610abe578287015190505b610ac88582610a4a565b865550610b30565b601f198416610ade866108b0565b60005b82811015610b0657848901518255600182019150602085019450602081019050610ae1565b86831015610b235784890151610b1f601f891682610a2c565b8355505b6001600288020188555050505b505050505050565b610b4181610934565b82525050565b60006040820190508181036000830152610b6181856105c2565b9050610b706020830184610b38565b9392505050565b7f50726f6f6620616c72656164792073746f726564000000000000000000000000600082015250565b6000610bad601483610576565b9150610bb882610b77565b602082019050919050565b60006020820190508181036000830152610bdc81610ba0565b905091905056fea2646970667358221220e25d971fa68c543b6f564289f8135ad37f1c13989aa80df40987ee482b9a2f7c64736f6c63430008140033",
  "linkReferences": {},
  "deployedLinkReferences": {}
}