{
  "_format": "hh-sol-artifact-1",
  "contractName": "ZKModule",
  "sourceName": "contracts/ZKModule.sol",
  "abi": [
    {
      "inputs": [],
      "stateMutability": "nonpayable",
      "type": "constructor"
    },
    {
      "inputs": [
        {
          "internalType": "address",
          "name": "owner",
          "type": "address"
        }
      ],
      "name": "OwnableInvalidOwner",
      "type": "error"
    },
    {
      "inputs": [
        {
          "internalType": "address",
          "name": "account",
          "type": "address"
        }
      ],
      "name": "OwnableUnauthorizedAccount",
      "type": "error"
    },
    {
      "anonymous": false,
      "inputs": [
        {
          "indexed": true,
          "internalType": "address",
          "name": "previousOwner",
          "type": "address"
        },
        {
          "indexed": true,
          "internalType": "address",
          "name": "newOwner",
          "type": "address"
        }
      ],
      "name": "OwnershipTransferred",
      "type": "event"
    },
    {
      "anonymous": false,
      "inputs": [
        {
          "indexed": true,
          "internalType": "address",
          "name": "user",
          "type": "address"
        },
        {
          "indexed": false,
          "internalType": "bytes32",
          "name": "proofHash",
          "type": "bytes32"
        }
      ],
      "name": "ProofSubmitted",
      "type": "event"
    },
    {
      "inputs": [],
      "name": "owner",
      "outputs": [
        {
          "internalType": "address",
          "name": "",
          "type": "address"
        }
      ],
      "stateMutability": "view",
      "type": "function"
    },
    {
      "inputs": [],
      "name": "renounceOwnership",
      "outputs": [],
      "stateMutability": "nonpayable",
      "type": "function"
    },
    {
      "inputs": [
        {
          "internalType": "address",
          "name": "newOwner",
          "type": "address"
        }
      ],
      "name": "transferOwnership",
      "outputs": [],
      "stateMutability": "nonpayable",
      "type": "function"
    },
    {
      "inputs": [
        {
          "internalType": "bytes",
          "name": "proof",
          "type": "bytes"
        },
        {
          "internalType": "bytes",
          "name": "publicInputs",
          "type": "bytes"
        }
      ],
      "name": "verifyProof",
      "outputs": [
        {
          "internalType": "bool",
          "name": "",
          "type": "bool"
        }
      ],
      "stateMutability": "nonpayable",
      "type": "function"
    }
  ],
  "bytecode": "0x608060405234801561001057600080fd5b5033600073ffffffffffffffffffffffffffffffffffffffff168173ffffffffffffffffffffffffffffffffffffffff16036100845760006040517f1e4fbdf700000000000000000000000000000000000000000000000000000000815260040161007b919061019e565b60405180910390fd5b6100938161009960201b60201c565b506101b9565b60008060009054906101000a900473ffffffffffffffffffffffffffffffffffffffff169050816000806101000a81548173ffffffffffffffffffffffffffffffffffffffff021916908373ffffffffffffffffffffffffffffffffffffffff1602179055508173ffffffffffffffffffffffffffffffffffffffff168173ffffffffffffffffffffffffffffffffffffffff167f8be0079c531659141344cd1fd0a4f28419497f9722a3daafe3b4186f6b6457e060405160405180910390a35050565b600073ffffffffffffffffffffffffffffffffffffffff82169050919050565b60006101888261015d565b9050919050565b6101988161017d565b82525050565b60006020820190506101b3600083018461018f565b92915050565b610676806101c86000396000f3fe608060405234801561001057600080fd5b506004361061004c5760003560e01c8063715018a6146100515780638da5cb5b1461005b578063b8e72af614610079578063f2fde38b146100a9575b600080fd5b6100596100c5565b005b6100636100d9565b6040516100709190610390565b60405180910390f35b610093600480360381019061008e9190610505565b610102565b6040516100a09190610598565b60405180910390f35b6100c360048036038101906100be91906105df565b610176565b005b6100cd6101fc565b6100d76000610283565b565b60008060009054906101000a900473ffffffffffffffffffffffffffffffffffffffff16905090565b6000808351111561016b573373ffffffffffffffffffffffffffffffffffffffff167f6001ac408879869d65636618cd8495cce3026445823e6de88d46ade8a9c81c79848051906020012060405161015a9190610625565b60405180910390a260019050610170565b600090505b92915050565b61017e6101fc565b600073ffffffffffffffffffffffffffffffffffffffff168173ffffffffffffffffffffffffffffffffffffffff16036101f05760006040517f1e4fbdf70000000000000000000000000000000000000000000000000000000081526004016101e79190610390565b60405180910390fd5b6101f981610283565b50565b610204610347565b73ffffffffffffffffffffffffffffffffffffffff166102226100d9565b73ffffffffffffffffffffffffffffffffffffffff161461028157610245610347565b6040517f118cdaa70000000000000000000000000000000000000000000000000000000081526004016102789190610390565b60405180910390fd5b565b60008060009054906101000a900473ffffffffffffffffffffffffffffffffffffffff169050816000806101000a81548173ffffffffffffffffffffffffffffffffffffffff021916908373ffffffffffffffffffffffffffffffffffffffff1602179055508173ffffffffffffffffffffffffffffffffffffffff168173ffffffffffffffffffffffffffffffffffffffff167f8be0079c531659141344cd1fd0a4f28419497f9722a3daafe3b4186f6b6457e060405160405180910390a35050565b600033905090565b600073ffffffffffffffffffffffffffffffffffffffff82169050919050565b600061037a8261034f565b9050919050565b61038a8161036f565b82525050565b60006020820190506103a56000830184610381565b92915050565b6000604051905090565b600080fd5b600080fd5b600080fd5b600080fd5b6000601f19601f8301169050919050565b7f4e487b7100000000000000000000000000000000000000000000000000000000600052604160045260246000fd5b610412826103c9565b810181811067ffffffffffffffff82111715610431576104306103da565b5b80604052505050565b60006104446103ab565b90506104508282610409565b919050565b600067ffffffffffffffff8211156104705761046f6103da565b5b610479826103c9565b9050602081019050919050565b82818337600083830152505050565b60006104a86104a384610455565b61043a565b9050828152602081018484840111156104c4576104c36103c4565b5b6104cf848285610486565b509392505050565b600082601f8301126104ec576104eb6103bf565b5b81356104fc848260208601610495565b91505092915050565b6000806040838503121561051c5761051b6103b5565b5b600083013567ffffffffffffffff81111561053a576105396103ba565b5b610546858286016104d7565b925050602083013567ffffffffffffffff811115610567576105666103ba565b5b610573858286016104d7565b9150509250929050565b60008115159050919050565b6105928161057d565b82525050565b60006020820190506105ad6000830184610589565b92915050565b6105bc8161036f565b81146105c757600080fd5b50565b6000813590506105d9816105b3565b92915050565b6000602082840312156105f5576105f46103b5565b5b6000610603848285016105ca565b91505092915050565b6000819050919050565b61061f8161060c565b82525050565b600060208201905061063a6000830184610616565b9291505056fea264697066735822122016e194294c46dacf1f9b631ef74eed2d3938a6aeea7d66090ae63e2bb20f826864736f6c63430008140033",
  "linkReferences": {},
  "deployedLinkReferences": {}
}