{
  "_format": "hh-sol-artifact-1",
  "contractName": "ZKVerifier",
  "sourceName": "contracts/ZKVerifier.sol",
  "abi": [
    {
      "inputs": [],
      "stateMutability": "nonpayable",
      "type": "constructor"
    },
    {
      "inputs": [
        {
          "internalType": "address",
          "name": "owner",
          "type": "address"
        }
      ],
      "name": "OwnableInvalidOwner",
      "type": "error"
    },
    {
      "inputs": [
        {
          "internalType": "address",
          "name": "account",
          "type": "address"
        }
      ],
      "name": "OwnableUnauthorizedAccount",
      "type": "error"
    },
    {
      "anonymous": false,
      "inputs": [
        {
          "indexed": true,
          "internalType": "address",
          "name": "previousOwner",
          "type": "address"
        },
        {
          "indexed": true,
          "internalType": "address",
          "name": "newOwner",
          "type": "address"
        }
      ],
      "name": "OwnershipTransferred",
      "type": "event"
    },
    {
      "anonymous": false,
      "inputs": [
        {
          "indexed": true,
          "internalType": "address",
          "name": "user",
          "type": "address"
        },
        {
          "indexed": false,
          "internalType": "bytes32",
          "name": "proofHash",
          "type": "bytes32"
        },
        {
          "indexed": false,
          "internalType": "bool",
          "name": "success",
          "type": "bool"
        }
      ],
      "name": "ProofVerified",
      "type": "event"
    },
    {
      "inputs": [],
      "name": "owner",
      "outputs": [
        {
          "internalType": "address",
          "name": "",
          "type": "address"
        }
      ],
      "stateMutability": "view",
      "type": "function"
    },
    {
      "inputs": [],
      "name": "renounceOwnership",
      "outputs": [],
      "stateMutability": "nonpayable",
      "type": "function"
    },
    {
      "inputs": [
        {
          "internalType": "address",
          "name": "newOwner",
          "type": "address"
        }
      ],
      "name": "transferOwnership",
      "outputs": [],
      "stateMutability": "nonpayable",
      "type": "function"
    },
    {
      "inputs": [],
      "name": "verificationKeyHash",
      "outputs": [
        {
          "internalType": "bytes32",
          "name": "",
          "type": "bytes32"
        }
      ],
      "stateMutability": "view",
      "type": "function"
    },
    {
      "inputs": [
        {
          "internalType": "bytes",
          "name": "proof",
          "type": "bytes"
        },
        {
          "internalType": "uint256[]",
          "name": "publicInputs",
          "type": "uint256[]"
        }
      ],
      "name": "verifyProof",
      "outputs": [
        {
          "internalType": "bool",
          "name": "",
          "type": "bool"
        }
      ],
      "stateMutability": "nonpayable",
      "type": "function"
    },
    {
      "inputs": [
        {
          "internalType": "bytes",
          "name": "proof",
          "type": "bytes"
        },
        {
          "internalType": "uint256[]",
          "name": "publicInputs",
          "type": "uint256[]"
        },
        {
          "internalType": "bytes32[]",
          "name": "disclosedFields",
          "type": "bytes32[]"
        }
      ],
      "name": "verifySelectiveDisclosure",
      "outputs": [
        {
          "internalType": "bool",
          "name": "",
          "type": "bool"
        }
      ],
      "stateMutability": "nonpayable",
      "type": "function"
    }
  ],
  "bytecode": "0x608060405234801561001057600080fd5b5033600073ffffffffffffffffffffffffffffffffffffffff168173ffffffffffffffffffffffffffffffffffffffff16036100845760006040517f1e4fbdf700000000000000000000000000000000000000000000000000000000815260040161007b91906101c5565b60405180910390fd5b610093816100c060201b60201c565b507f9056b9a1ef1707bb3077b6379af7a75f1775c4efa76ce8eee8e6398ba34aa28a6001819055506101e0565b60008060009054906101000a900473ffffffffffffffffffffffffffffffffffffffff169050816000806101000a81548173ffffffffffffffffffffffffffffffffffffffff021916908373ffffffffffffffffffffffffffffffffffffffff1602179055508173ffffffffffffffffffffffffffffffffffffffff168173ffffffffffffffffffffffffffffffffffffffff167f8be0079c531659141344cd1fd0a4f28419497f9722a3daafe3b4186f6b6457e060405160405180910390a35050565b600073ffffffffffffffffffffffffffffffffffffffff82169050919050565b60006101af82610184565b9050919050565b6101bf816101a4565b82525050565b60006020820190506101da60008301846101b6565b92915050565b6108ce806101ef6000396000f3fe608060405234801561001057600080fd5b50600436106100625760003560e01c80631e8e1e1314610067578063715018a6146100975780638da5cb5b146100a15780639e8945d2146100bf578063af106a09146100dd578063f2fde38b1461010d575b600080fd5b610081600480360381019061007c91906104f0565b610129565b60405161008e919061058c565b60405180910390f35b61009f6101af565b005b6100a96101c3565b6040516100b691906105e8565b60405180910390f35b6100c76101ec565b6040516100d4919061061c565b60405180910390f35b6100f760048036038101906100f2919061068d565b6101f2565b604051610104919061058c565b60405180910390f35b6101276004803603810190610122919061076d565b610252565b005b60008060208686905010159050600086866040516101489291906107d9565b604051809103902090503373ffffffffffffffffffffffffffffffffffffffff167fe8ad06fecfe3c13cc84998449b1933654518c4ba62322f6f5f079ca0e8e82233828460405161019a9291906107f2565b60405180910390a28192505050949350505050565b6101b76102d8565b6101c1600061035f565b565b60008060009054906101000a900473ffffffffffffffffffffffffffffffffffffffff16905090565b60015481565b60008061020188888888610129565b905080610243576040517f08c379a000000000000000000000000000000000000000000000000000000000815260040161023a90610878565b60405180910390fd5b60019150509695505050505050565b61025a6102d8565b600073ffffffffffffffffffffffffffffffffffffffff168173ffffffffffffffffffffffffffffffffffffffff16036102cc5760006040517f1e4fbdf70000000000000000000000000000000000000000000000000000000081526004016102c391906105e8565b60405180910390fd5b6102d58161035f565b50565b6102e0610423565b73ffffffffffffffffffffffffffffffffffffffff166102fe6101c3565b73ffffffffffffffffffffffffffffffffffffffff161461035d57610321610423565b6040517f118cdaa700000000000000000000000000000000000000000000000000000000815260040161035491906105e8565b60405180910390fd5b565b60008060009054906101000a900473ffffffffffffffffffffffffffffffffffffffff169050816000806101000a81548173ffffffffffffffffffffffffffffffffffffffff021916908373ffffffffffffffffffffffffffffffffffffffff1602179055508173ffffffffffffffffffffffffffffffffffffffff168173ffffffffffffffffffffffffffffffffffffffff167f8be0079c531659141344cd1fd0a4f28419497f9722a3daafe3b4186f6b6457e060405160405180910390a35050565b600033905090565b600080fd5b600080fd5b600080fd5b600080fd5b600080fd5b60008083601f84011261045a57610459610435565b5b8235905067ffffffffffffffff8111156104775761047661043a565b5b6020830191508360018202830111156104935761049261043f565b5b9250929050565b60008083601f8401126104b0576104af610435565b5b8235905067ffffffffffffffff8111156104cd576104cc61043a565b5b6020830191508360208202830111156104e9576104e861043f565b5b9250929050565b6000806000806040858703121561050a5761050961042b565b5b600085013567ffffffffffffffff81111561052857610527610430565b5b61053487828801610444565b9450945050602085013567ffffffffffffffff81111561055757610556610430565b5b6105638782880161049a565b925092505092959194509250565b60008115159050919050565b61058681610571565b82525050565b60006020820190506105a1600083018461057d565b92915050565b600073ffffffffffffffffffffffffffffffffffffffff82169050919050565b60006105d2826105a7565b9050919050565b6105e2816105c7565b82525050565b60006020820190506105fd60008301846105d9565b92915050565b6000819050919050565b61061681610603565b82525050565b6000602082019050610631600083018461060d565b92915050565b60008083601f84011261064d5761064c610435565b5b8235905067ffffffffffffffff81111561066a5761066961043a565b5b6020830191508360208202830111156106865761068561043f565b5b9250929050565b600080600080600080606087890312156106aa576106a961042b565b5b600087013567ffffffffffffffff8111156106c8576106c7610430565b5b6106d489828a01610444565b9650965050602087013567ffffffffffffffff8111156106f7576106f6610430565b5b61070389828a0161049a565b9450945050604087013567ffffffffffffffff81111561072657610725610430565b5b61073289828a01610637565b92509250509295509295509295565b61074a816105c7565b811461075557600080fd5b50565b60008135905061076781610741565b92915050565b6000602082840312156107835761078261042b565b5b600061079184828501610758565b91505092915050565b600081905092915050565b82818337600083830152505050565b60006107c0838561079a565b93506107cd8385846107a5565b82840190509392505050565b60006107e68284866107b4565b91508190509392505050565b6000604082019050610807600083018561060d565b610814602083018461057d565b9392505050565b600082825260208201905092915050565b7f496e76616c69642070726f6f6600000000000000000000000000000000000000600082015250565b6000610862600d8361081b565b915061086d8261082c565b602082019050919050565b6000602082019050818103600083015261089181610855565b905091905056fea264697066735822122087a3d6f1f220877c7b544cc6d24fa84947de085dd5bf12756de88b8b118b9f3964736f6c63430008140033",
  "linkReferences": {},
  "deployedLinkReferences": {}
}