{
  "_format": "hh-sol-artifact-1",
  "contractName": "YieldDistributor",
  "sourceName": "contracts/YieldDistributor.sol",
  "abi": [
    {
      "inputs": [
        {
          "internalType": "contract ERC20",
          "name": "_rewardToken",
          "type": "address"
        }
      ],
      "stateMutability": "nonpayable",
      "type": "constructor"
    },
    {
      "inputs": [
        {
          "internalType": "address",
          "name": "owner",
          "type": "address"
        }
      ],
      "name": "OwnableInvalidOwner",
      "type": "error"
    },
    {
      "inputs": [
        {
          "internalType": "address",
          "name": "account",
          "type": "address"
        }
      ],
      "name": "OwnableUnauthorizedAccount",
      "type": "error"
    },
    {
      "anonymous": false,
      "inputs": [
        {
          "indexed": true,
          "internalType": "address",
          "name": "previousOwner",
          "type": "address"
        },
        {
          "indexed": true,
          "internalType": "address",
          "name": "newOwner",
          "type": "address"
        }
      ],
      "name": "OwnershipTransferred",
      "type": "event"
    },
    {
      "anonymous": false,
      "inputs": [
        {
          "indexed": true,
          "internalType": "uint256",
          "name": "period",
          "type": "uint256"
        },
        {
          "indexed": false,
          "internalType": "bytes32",
          "name": "merkleRoot",
          "type": "bytes32"
        }
      ],
      "name": "YieldDistributed",
      "type": "event"
    },
    {
      "inputs": [
        {
          "internalType": "uint256",
          "name": "period",
          "type": "uint256"
        },
        {
          "internalType": "address",
          "name": "account",
          "type": "address"
        },
        {
          "internalType": "uint256",
          "name": "amount",
          "type": "uint256"
        },
        {
          "internalType": "bytes32[]",
          "name": "proof",
          "type": "bytes32[]"
        }
      ],
      "name": "claimYield",
      "outputs": [],
      "stateMutability": "nonpayable",
      "type": "function"
    },
    {
      "inputs": [
        {
          "internalType": "uint256",
          "name": "",
          "type": "uint256"
        },
        {
          "internalType": "address",
          "name": "",
          "type": "address"
        }
      ],
      "name": "claimed",
      "outputs": [
        {
          "internalType": "bool",
          "name": "",
          "type": "bool"
        }
      ],
      "stateMutability": "view",
      "type": "function"
    },
    {
      "inputs": [
        {
          "internalType": "uint256",
          "name": "period",
          "type": "uint256"
        },
        {
          "internalType": "bytes32",
          "name": "_merkleRoot",
          "type": "bytes32"
        }
      ],
      "name": "distributeYield",
      "outputs": [],
      "stateMutability": "nonpayable",
      "type": "function"
    },
    {
      "inputs": [],
      "name": "merkleRoot",
      "outputs": [
        {
          "internalType": "bytes32",
          "name": "",
          "type": "bytes32"
        }
      ],
      "stateMutability": "view",
      "type": "function"
    },
    {
      "inputs": [],
      "name": "owner",
      "outputs": [
        {
          "internalType": "address",
          "name": "",
          "type": "address"
        }
      ],
      "stateMutability": "view",
      "type": "function"
    },
    {
      "inputs": [],
      "name": "renounceOwnership",
      "outputs": [],
      "stateMutability": "nonpayable",
      "type": "function"
    },
    {
      "inputs": [],
      "name": "rewardToken",
      "outputs": [
        {
          "internalType": "contract ERC20",
          "name": "",
          "type": "address"
        }
      ],
      "stateMutability": "view",
      "type": "function"
    },
    {
      "inputs": [
        {
          "internalType": "address",
          "name": "newOwner",
          "type": "address"
        }
      ],
      "name": "transferOwnership",
      "outputs": [],
      "stateMutability": "nonpayable",
      "type": "function"
    }
  ],
  "bytecode": "0x60806040523480156200001157600080fd5b506040516200106038038062001060833981810160405281019062000037919062000249565b33600073ffffffffffffffffffffffffffffffffffffffff168173ffffffffffffffffffffffffffffffffffffffff1603620000ad5760006040517f1e4fbdf7000000000000000000000000000000000000000000000000000000008152600401620000a491906200028c565b60405180910390fd5b620000be816200010760201b60201c565b5080600160006101000a81548173ffffffffffffffffffffffffffffffffffffffff021916908373ffffffffffffffffffffffffffffffffffffffff16021790555050620002a9565b60008060009054906101000a900473ffffffffffffffffffffffffffffffffffffffff169050816000806101000a81548173ffffffffffffffffffffffffffffffffffffffff021916908373ffffffffffffffffffffffffffffffffffffffff1602179055508173ffffffffffffffffffffffffffffffffffffffff168173ffffffffffffffffffffffffffffffffffffffff167f8be0079c531659141344cd1fd0a4f28419497f9722a3daafe3b4186f6b6457e060405160405180910390a35050565b600080fd5b600073ffffffffffffffffffffffffffffffffffffffff82169050919050565b6000620001fd82620001d0565b9050919050565b60006200021182620001f0565b9050919050565b620002238162000204565b81146200022f57600080fd5b50565b600081519050620002438162000218565b92915050565b600060208284031215620002625762000261620001cb565b5b6000620002728482850162000232565b91505092915050565b6200028681620001f0565b82525050565b6000602082019050620002a360008301846200027b565b92915050565b610da780620002b96000396000f3fe608060405234801561001057600080fd5b50600436106100885760003560e01c8063b282d0021161005b578063b282d00214610103578063de14bdd81461011f578063f2fde38b1461013b578063f7c618c11461015757610088565b8063120aa8771461008d5780632eb4a7ab146100bd578063715018a6146100db5780638da5cb5b146100e5575b600080fd5b6100a760048036038101906100a291906107e8565b610175565b6040516100b49190610843565b60405180910390f35b6100c56101a4565b6040516100d29190610877565b60405180910390f35b6100e36101aa565b005b6100ed6101be565b6040516100fa91906108a1565b60405180910390f35b61011d600480360381019061011891906108e8565b6101e7565b005b6101396004803603810190610134919061098d565b610232565b005b61015560048036038101906101509190610a15565b61049c565b005b61015f610522565b60405161016c9190610aa1565b60405180910390f35b60036020528160005260406000206020528060005260406000206000915091509054906101000a900460ff1681565b60025481565b6101b2610548565b6101bc60006105cf565b565b60008060009054906101000a900473ffffffffffffffffffffffffffffffffffffffff16905090565b6101ef610548565b80600281905550817fd72b4167ddee98b03fa0464106eecc202a58cd62dc5b9079b75ad44321497fc4826040516102269190610877565b60405180910390a25050565b6003600086815260200190815260200160002060008573ffffffffffffffffffffffffffffffffffffffff1673ffffffffffffffffffffffffffffffffffffffff16815260200190815260200160002060009054906101000a900460ff16156102d0576040517f08c379a00000000000000000000000000000000000000000000000000000000081526004016102c790610b19565b60405180910390fd5b600084846040516020016102e5929190610ba2565b60405160208183030381529060405280519060200120905061034b838380806020026020016040519081016040528093929190818152602001838360200280828437600081840152601f19601f8201169050808301925050505050505060025483610693565b61038a576040517f08c379a000000000000000000000000000000000000000000000000000000000815260040161038190610c1a565b60405180910390fd5b60016003600088815260200190815260200160002060008773ffffffffffffffffffffffffffffffffffffffff1673ffffffffffffffffffffffffffffffffffffffff16815260200190815260200160002060006101000a81548160ff021916908315150217905550600160009054906101000a900473ffffffffffffffffffffffffffffffffffffffff1673ffffffffffffffffffffffffffffffffffffffff1663a9059cbb86866040518363ffffffff1660e01b8152600401610450929190610c49565b6020604051808303816000875af115801561046f573d6000803e3d6000fd5b505050506040513d601f19601f820116820180604052508101906104939190610c9e565b50505050505050565b6104a4610548565b600073ffffffffffffffffffffffffffffffffffffffff168173ffffffffffffffffffffffffffffffffffffffff16036105165760006040517f1e4fbdf700000000000000000000000000000000000000000000000000000000815260040161050d91906108a1565b60405180910390fd5b61051f816105cf565b50565b600160009054906101000a900473ffffffffffffffffffffffffffffffffffffffff1681565b6105506106aa565b73ffffffffffffffffffffffffffffffffffffffff1661056e6101be565b73ffffffffffffffffffffffffffffffffffffffff16146105cd576105916106aa565b6040517f118cdaa70000000000000000000000000000000000000000000000000000000081526004016105c491906108a1565b60405180910390fd5b565b60008060009054906101000a900473ffffffffffffffffffffffffffffffffffffffff169050816000806101000a81548173ffffffffffffffffffffffffffffffffffffffff021916908373ffffffffffffffffffffffffffffffffffffffff1602179055508173ffffffffffffffffffffffffffffffffffffffff168173ffffffffffffffffffffffffffffffffffffffff167f8be0079c531659141344cd1fd0a4f28419497f9722a3daafe3b4186f6b6457e060405160405180910390a35050565b6000826106a085846106b2565b1490509392505050565b600033905090565b60008082905060005b84518110156106fd576106e8828683815181106106db576106da610ccb565b5b6020026020010151610708565b915080806106f590610d29565b9150506106bb565b508091505092915050565b60008183106107205761071b8284610733565b61072b565b61072a8383610733565b5b905092915050565b600082600052816020526040600020905092915050565b600080fd5b600080fd5b6000819050919050565b61076781610754565b811461077257600080fd5b50565b6000813590506107848161075e565b92915050565b600073ffffffffffffffffffffffffffffffffffffffff82169050919050565b60006107b58261078a565b9050919050565b6107c5816107aa565b81146107d057600080fd5b50565b6000813590506107e2816107bc565b92915050565b600080604083850312156107ff576107fe61074a565b5b600061080d85828601610775565b925050602061081e858286016107d3565b9150509250929050565b60008115159050919050565b61083d81610828565b82525050565b60006020820190506108586000830184610834565b92915050565b6000819050919050565b6108718161085e565b82525050565b600060208201905061088c6000830184610868565b92915050565b61089b816107aa565b82525050565b60006020820190506108b66000830184610892565b92915050565b6108c58161085e565b81146108d057600080fd5b50565b6000813590506108e2816108bc565b92915050565b600080604083850312156108ff576108fe61074a565b5b600061090d85828601610775565b925050602061091e858286016108d3565b9150509250929050565b600080fd5b600080fd5b600080fd5b60008083601f84011261094d5761094c610928565b5b8235905067ffffffffffffffff81111561096a5761096961092d565b5b60208301915083602082028301111561098657610985610932565b5b9250929050565b6000806000806000608086880312156109a9576109a861074a565b5b60006109b788828901610775565b95505060206109c8888289016107d3565b94505060406109d988828901610775565b935050606086013567ffffffffffffffff8111156109fa576109f961074f565b5b610a0688828901610937565b92509250509295509295909350565b600060208284031215610a2b57610a2a61074a565b5b6000610a39848285016107d3565b91505092915050565b6000819050919050565b6000610a67610a62610a5d8461078a565b610a42565b61078a565b9050919050565b6000610a7982610a4c565b9050919050565b6000610a8b82610a6e565b9050919050565b610a9b81610a80565b82525050565b6000602082019050610ab66000830184610a92565b92915050565b600082825260208201905092915050565b7f416c726561647920636c61696d65640000000000000000000000000000000000600082015250565b6000610b03600f83610abc565b9150610b0e82610acd565b602082019050919050565b60006020820190508181036000830152610b3281610af6565b9050919050565b60008160601b9050919050565b6000610b5182610b39565b9050919050565b6000610b6382610b46565b9050919050565b610b7b610b76826107aa565b610b58565b82525050565b6000819050919050565b610b9c610b9782610754565b610b81565b82525050565b6000610bae8285610b6a565b601482019150610bbe8284610b8b565b6020820191508190509392505050565b7f496e76616c69642070726f6f6600000000000000000000000000000000000000600082015250565b6000610c04600d83610abc565b9150610c0f82610bce565b602082019050919050565b60006020820190508181036000830152610c3381610bf7565b9050919050565b610c4381610754565b82525050565b6000604082019050610c5e6000830185610892565b610c6b6020830184610c3a565b9392505050565b610c7b81610828565b8114610c8657600080fd5b50565b600081519050610c9881610c72565b92915050565b600060208284031215610cb457610cb361074a565b5b6000610cc284828501610c89565b91505092915050565b7f4e487b7100000000000000000000000000000000000000000000000000000000600052603260045260246000fd5b7f4e487b7100000000000000000000000000000000000000000000000000000000600052601160045260246000fd5b6000610d3482610754565b91507fffffffffffffffffffffffffffffffffffffffffffffffffffffffffffffffff8203610d6657610d65610cfa565b5b60018201905091905056fea26469706673582212205ef065e6c08f2a0e9eb763bea1300f5a937e607a9705b15101803ec1b33a150464736f6c63430008140033",
  "linkReferences": {},
  "deployedLinkReferences": {}
}