{
  "_format": "hh-sol-artifact-1",
  "contractName": "ComplianceModule",
  "sourceName": "contracts/ComplianceModule.sol",
  "abi": [
    {
      "inputs": [],
      "stateMutability": "nonpayable",
      "type": "constructor"
    },
    {
      "inputs": [
        {
          "internalType": "address",
          "name": "owner",
          "type": "address"
        }
      ],
      "name": "OwnableInvalidOwner",
      "type": "error"
    },
    {
      "inputs": [
        {
          "internalType": "address",
          "name": "account",
          "type": "address"
        }
      ],
      "name": "OwnableUnauthorizedAccount",
      "type": "error"
    },
    {
      "anonymous": false,
      "inputs": [
        {
          "indexed": true,
          "internalType": "address",
          "name": "user",
          "type": "address"
        },
        {
          "indexed": false,
          "internalType": "bytes",
          "name": "attestationHash",
          "type": "bytes"
        },
        {
          "indexed": false,
          "internalType": "string",
          "name": "jurisdiction",
          "type": "string"
        }
      ],
      "name": "AttestationAdded",
      "type": "event"
    },
    {
      "anonymous": false,
      "inputs": [
        {
          "indexed": true,
          "internalType": "address",
          "name": "user",
          "type": "address"
        }
      ],
      "name": "AttestationRevoked",
      "type": "event"
    },
    {
      "anonymous": false,
      "inputs": [
        {
          "indexed": true,
          "internalType": "address",
          "name": "attestor",
          "type": "address"
        },
        {
          "indexed": false,
          "internalType": "bool",
          "name": "authorized",
          "type": "bool"
        }
      ],
      "name": "AttestorAuthorized",
      "type": "event"
    },
    {
      "anonymous": false,
      "inputs": [
        {
          "indexed": true,
          "internalType": "address",
          "name": "previousOwner",
          "type": "address"
        },
        {
          "indexed": true,
          "internalType": "address",
          "name": "newOwner",
          "type": "address"
        }
      ],
      "name": "OwnershipTransferred",
      "type": "event"
    },
    {
      "inputs": [
        {
          "internalType": "address",
          "name": "user",
          "type": "address"
        },
        {
          "internalType": "bytes",
          "name": "attestationHash",
          "type": "bytes"
        }
      ],
      "name": "addAttestation",
      "outputs": [],
      "stateMutability": "nonpayable",
      "type": "function"
    },
    {
      "inputs": [
        {
          "internalType": "address",
          "name": "",
          "type": "address"
        }
      ],
      "name": "attestations",
      "outputs": [
        {
          "internalType": "bytes",
          "name": "attestationHash",
          "type": "bytes"
        },
        {
          "internalType": "uint256",
          "name": "expiry",
          "type": "uint256"
        },
        {
          "internalType": "string",
          "name": "jurisdiction",
          "type": "string"
        },
        {
          "internalType": "bool",
          "name": "revoked",
          "type": "bool"
        },
        {
          "internalType": "uint256",
          "name": "createdAt",
          "type": "uint256"
        }
      ],
      "stateMutability": "view",
      "type": "function"
    },
    {
      "inputs": [
        {
          "internalType": "address",
          "name": "attestor",
          "type": "address"
        },
        {
          "internalType": "bool",
          "name": "authorized",
          "type": "bool"
        }
      ],
      "name": "authorizeAttestor",
      "outputs": [],
      "stateMutability": "nonpayable",
      "type": "function"
    },
    {
      "inputs": [
        {
          "internalType": "address",
          "name": "",
          "type": "address"
        }
      ],
      "name": "authorizedAttestors",
      "outputs": [
        {
          "internalType": "bool",
          "name": "",
          "type": "bool"
        }
      ],
      "stateMutability": "view",
      "type": "function"
    },
    {
      "inputs": [
        {
          "internalType": "address",
          "name": "user",
          "type": "address"
        }
      ],
      "name": "getAttestation",
      "outputs": [
        {
          "internalType": "bytes",
          "name": "attestationHash",
          "type": "bytes"
        },
        {
          "internalType": "uint256",
          "name": "expiry",
          "type": "uint256"
        },
        {
          "internalType": "string",
          "name": "jurisdiction",
          "type": "string"
        },
        {
          "internalType": "bool",
          "name": "revoked",
          "type": "bool"
        },
        {
          "internalType": "uint256",
          "name": "createdAt",
          "type": "uint256"
        }
      ],
      "stateMutability": "view",
      "type": "function"
    },
    {
      "inputs": [
        {
          "internalType": "address",
          "name": "user",
          "type": "address"
        }
      ],
      "name": "isCompliant",
      "outputs": [
        {
          "internalType": "bool",
          "name": "",
          "type": "bool"
        }
      ],
      "stateMutability": "view",
      "type": "function"
    },
    {
      "inputs": [],
      "name": "owner",
      "outputs": [
        {
          "internalType": "address",
          "name": "",
          "type": "address"
        }
      ],
      "stateMutability": "view",
      "type": "function"
    },
    {
      "inputs": [],
      "name": "renounceOwnership",
      "outputs": [],
      "stateMutability": "nonpayable",
      "type": "function"
    },
    {
      "inputs": [
        {
          "internalType": "address",
          "name": "user",
          "type": "address"
        }
      ],
      "name": "revoke",
      "outputs": [],
      "stateMutability": "nonpayable",
      "type": "function"
    },
    {
      "inputs": [
        {
          "internalType": "address",
          "name": "newOwner",
          "type": "address"
        }
      ],
      "name": "transferOwnership",
      "outputs": [],
      "stateMutability": "nonpayable",
      "type": "function"
    }
  ],
  "bytecode": "0x60806040523480156200001157600080fd5b5033600073ffffffffffffffffffffffffffffffffffffffff168173ffffffffffffffffffffffffffffffffffffffff1603620000885760006040517f1e4fbdf70000000000000000000000000000000000000000000000000000000081526004016200007f9190620001a9565b60405180910390fd5b6200009981620000a060201b60201c565b50620001c6565b60008060009054906101000a900473ffffffffffffffffffffffffffffffffffffffff169050816000806101000a81548173ffffffffffffffffffffffffffffffffffffffff021916908373ffffffffffffffffffffffffffffffffffffffff1602179055508173ffffffffffffffffffffffffffffffffffffffff168173ffffffffffffffffffffffffffffffffffffffff167f8be0079c531659141344cd1fd0a4f28419497f9722a3daafe3b4186f6b6457e060405160405180910390a35050565b600073ffffffffffffffffffffffffffffffffffffffff82169050919050565b6000620001918262000164565b9050919050565b620001a38162000184565b82525050565b6000602082019050620001c0600083018462000198565b92915050565b6118b880620001d66000396000f3fe608060405234801561001057600080fd5b506004361061009e5760003560e01c80638da5cb5b116100665780638da5cb5b14610149578063940ec02314610167578063a200e5d014610183578063f2fde38b146101b3578063f9b71797146101cf5761009e565b806320357048146100a35780635d62dea7146100d7578063715018a61461010757806374a8f103146101115780638ca260a91461012d575b600080fd5b6100bd60048036038101906100b89190610eb0565b610203565b6040516100ce959493929190610ff6565b60405180910390f35b6100f160048036038101906100ec9190610eb0565b610356565b6040516100fe9190611057565b60405180910390f35b61010f610376565b005b61012b60048036038101906101269190610eb0565b61038a565b005b6101476004803603810190610142919061109e565b6104c3565b005b610151610574565b60405161015e91906110ed565b60405180910390f35b610181600480360381019061017c919061123d565b61059d565b005b61019d60048036038101906101989190610eb0565b6108be565b6040516101aa9190611057565b60405180910390f35b6101cd60048036038101906101c89190610eb0565b610a8e565b005b6101e960048036038101906101e49190610eb0565b610b14565b6040516101fa959493929190610ff6565b60405180910390f35b6001602052806000526040600020600091509050806000018054610226906112c8565b80601f0160208091040260200160405190810160405280929190818152602001828054610252906112c8565b801561029f5780601f106102745761010080835404028352916020019161029f565b820191906000526020600020905b81548152906001019060200180831161028257829003601f168201915b5050505050908060010154908060020180546102ba906112c8565b80601f01602080910402602001604051908101604052809291908181526020018280546102e6906112c8565b80156103335780601f1061030857610100808354040283529160200191610333565b820191906000526020600020905b81548152906001019060200180831161031657829003601f168201915b5050505050908060030160009054906101000a900460ff16908060040154905085565b60026020528060005260406000206000915054906101000a900460ff1681565b61037e610ceb565b6103886000610d72565b565b610392610ceb565b6000600160008373ffffffffffffffffffffffffffffffffffffffff1673ffffffffffffffffffffffffffffffffffffffff16815260200190815260200160002060000180546103e1906112c8565b905011610423576040517f08c379a000000000000000000000000000000000000000000000000000000000815260040161041a90611345565b60405180910390fd5b60018060008373ffffffffffffffffffffffffffffffffffffffff1673ffffffffffffffffffffffffffffffffffffffff16815260200190815260200160002060030160006101000a81548160ff0219169083151502179055508073ffffffffffffffffffffffffffffffffffffffff167f7f1464b9974f3e235177f6207caf769b11f3e7baf0f42b563023c5ab646ffde760405160405180910390a250565b6104cb610ceb565b80600260008473ffffffffffffffffffffffffffffffffffffffff1673ffffffffffffffffffffffffffffffffffffffff16815260200190815260200160002060006101000a81548160ff0219169083151502179055508173ffffffffffffffffffffffffffffffffffffffff167f23ea1af5181a35f51e891f2fe21466b9cabc0c5c433bf62549d2fd3adcdce200826040516105689190611057565b60405180910390a25050565b60008060009054906101000a900473ffffffffffffffffffffffffffffffffffffffff16905090565b600260003373ffffffffffffffffffffffffffffffffffffffff1673ffffffffffffffffffffffffffffffffffffffff16815260200190815260200160002060009054906101000a900460ff168061062757506105f8610574565b73ffffffffffffffffffffffffffffffffffffffff163373ffffffffffffffffffffffffffffffffffffffff16145b610666576040517f08c379a000000000000000000000000000000000000000000000000000000000815260040161065d906113b1565b60405180910390fd5b6000600160008473ffffffffffffffffffffffffffffffffffffffff1673ffffffffffffffffffffffffffffffffffffffff16815260200190815260200160002060000180546106b5906112c8565b9050148061070f5750600160008373ffffffffffffffffffffffffffffffffffffffff1673ffffffffffffffffffffffffffffffffffffffff16815260200190815260200160002060030160009054906101000a900460ff165b61074e576040517f08c379a00000000000000000000000000000000000000000000000000000000081526004016107459061141d565b60405180910390fd5b60006301e1338042610760919061146c565b905060006040518060400160405280600281526020017f555300000000000000000000000000000000000000000000000000000000000081525090506040518060a0016040528084815260200183815260200182815260200160001515815260200142815250600160008673ffffffffffffffffffffffffffffffffffffffff1673ffffffffffffffffffffffffffffffffffffffff168152602001908152602001600020600082015181600001908161081a919061164c565b5060208201518160010155604082015181600201908161083a9190611779565b5060608201518160030160006101000a81548160ff021916908315150217905550608082015181600401559050508373ffffffffffffffffffffffffffffffffffffffff167f11473e04f7a77b86d12ca96bd56e5bd508e7f4557e93be18bf60d13fc399ac9884836040516108b092919061184b565b60405180910390a250505050565b600080600160008473ffffffffffffffffffffffffffffffffffffffff1673ffffffffffffffffffffffffffffffffffffffff1681526020019081526020016000206040518060a001604052908160008201805461091b906112c8565b80601f0160208091040260200160405190810160405280929190818152602001828054610947906112c8565b80156109945780601f1061096957610100808354040283529160200191610994565b820191906000526020600020905b81548152906001019060200180831161097757829003601f168201915b50505050508152602001600182015481526020016002820180546109b7906112c8565b80601f01602080910402602001604051908101604052809291908181526020018280546109e3906112c8565b8015610a305780601f10610a0557610100808354040283529160200191610a30565b820191906000526020600020905b815481529060010190602001808311610a1357829003601f168201915b505050505081526020016003820160009054906101000a900460ff1615151515815260200160048201548152505090506000816000015151118015610a7757508060600151155b8015610a865750428160200151115b915050919050565b610a96610ceb565b600073ffffffffffffffffffffffffffffffffffffffff168173ffffffffffffffffffffffffffffffffffffffff1603610b085760006040517f1e4fbdf7000000000000000000000000000000000000000000000000000000008152600401610aff91906110ed565b60405180910390fd5b610b1181610d72565b50565b6060600060606000806000600160008873ffffffffffffffffffffffffffffffffffffffff1673ffffffffffffffffffffffffffffffffffffffff1681526020019081526020016000206040518060a0016040529081600082018054610b79906112c8565b80601f0160208091040260200160405190810160405280929190818152602001828054610ba5906112c8565b8015610bf25780601f10610bc757610100808354040283529160200191610bf2565b820191906000526020600020905b815481529060010190602001808311610bd557829003601f168201915b5050505050815260200160018201548152602001600282018054610c15906112c8565b80601f0160208091040260200160405190810160405280929190818152602001828054610c41906112c8565b8015610c8e5780601f10610c6357610100808354040283529160200191610c8e565b820191906000526020600020905b815481529060010190602001808311610c7157829003601f168201915b505050505081526020016003820160009054906101000a900460ff16151515158152602001600482015481525050905080600001518160200151826040015183606001518460800151955095509550955095505091939590929450565b610cf3610e36565b73ffffffffffffffffffffffffffffffffffffffff16610d11610574565b73ffffffffffffffffffffffffffffffffffffffff1614610d7057610d34610e36565b6040517f118cdaa7000000000000000000000000000000000000000000000000000000008152600401610d6791906110ed565b60405180910390fd5b565b60008060009054906101000a900473ffffffffffffffffffffffffffffffffffffffff169050816000806101000a81548173ffffffffffffffffffffffffffffffffffffffff021916908373ffffffffffffffffffffffffffffffffffffffff1602179055508173ffffffffffffffffffffffffffffffffffffffff168173ffffffffffffffffffffffffffffffffffffffff167f8be0079c531659141344cd1fd0a4f28419497f9722a3daafe3b4186f6b6457e060405160405180910390a35050565b600033905090565b6000604051905090565b600080fd5b600080fd5b600073ffffffffffffffffffffffffffffffffffffffff82169050919050565b6000610e7d82610e52565b9050919050565b610e8d81610e72565b8114610e9857600080fd5b50565b600081359050610eaa81610e84565b92915050565b600060208284031215610ec657610ec5610e48565b5b6000610ed484828501610e9b565b91505092915050565b600081519050919050565b600082825260208201905092915050565b60005b83811015610f17578082015181840152602081019050610efc565b60008484015250505050565b6000601f19601f8301169050919050565b6000610f3f82610edd565b610f498185610ee8565b9350610f59818560208601610ef9565b610f6281610f23565b840191505092915050565b6000819050919050565b610f8081610f6d565b82525050565b600081519050919050565b600082825260208201905092915050565b6000610fad82610f86565b610fb78185610f91565b9350610fc7818560208601610ef9565b610fd081610f23565b840191505092915050565b60008115159050919050565b610ff081610fdb565b82525050565b600060a08201905081810360008301526110108188610f34565b905061101f6020830187610f77565b81810360408301526110318186610fa2565b90506110406060830185610fe7565b61104d6080830184610f77565b9695505050505050565b600060208201905061106c6000830184610fe7565b92915050565b61107b81610fdb565b811461108657600080fd5b50565b60008135905061109881611072565b92915050565b600080604083850312156110b5576110b4610e48565b5b60006110c385828601610e9b565b92505060206110d485828601611089565b9150509250929050565b6110e781610e72565b82525050565b600060208201905061110260008301846110de565b92915050565b600080fd5b600080fd5b7f4e487b7100000000000000000000000000000000000000000000000000000000600052604160045260246000fd5b61114a82610f23565b810181811067ffffffffffffffff8211171561116957611168611112565b5b80604052505050565b600061117c610e3e565b90506111888282611141565b919050565b600067ffffffffffffffff8211156111a8576111a7611112565b5b6111b182610f23565b9050602081019050919050565b82818337600083830152505050565b60006111e06111db8461118d565b611172565b9050828152602081018484840111156111fc576111fb61110d565b5b6112078482856111be565b509392505050565b600082601f83011261122457611223611108565b5b81356112348482602086016111cd565b91505092915050565b6000806040838503121561125457611253610e48565b5b600061126285828601610e9b565b925050602083013567ffffffffffffffff81111561128357611282610e4d565b5b61128f8582860161120f565b9150509250929050565b7f4e487b7100000000000000000000000000000000000000000000000000000000600052602260045260246000fd5b600060028204905060018216806112e057607f821691505b6020821081036112f3576112f2611299565b5b50919050565b7f4e6f206174746573746174696f6e000000000000000000000000000000000000600082015250565b600061132f600e83610f91565b915061133a826112f9565b602082019050919050565b6000602082019050818103600083015261135e81611322565b9050919050565b7f4e6f7420617574686f72697a6564000000000000000000000000000000000000600082015250565b600061139b600e83610f91565b91506113a682611365565b602082019050919050565b600060208201905081810360008301526113ca8161138e565b9050919050565b7f416c726561647920617474657374656400000000000000000000000000000000600082015250565b6000611407601083610f91565b9150611412826113d1565b602082019050919050565b60006020820190508181036000830152611436816113fa565b9050919050565b7f4e487b7100000000000000000000000000000000000000000000000000000000600052601160045260246000fd5b600061147782610f6d565b915061148283610f6d565b925082820190508082111561149a5761149961143d565b5b92915050565b60008190508160005260206000209050919050565b60006020601f8301049050919050565b600082821b905092915050565b6000600883026115027fffffffffffffffffffffffffffffffffffffffffffffffffffffffffffffffff826114c5565b61150c86836114c5565b95508019841693508086168417925050509392505050565b6000819050919050565b600061154961154461153f84610f6d565b611524565b610f6d565b9050919050565b6000819050919050565b6115638361152e565b61157761156f82611550565b8484546114d2565b825550505050565b600090565b61158c61157f565b61159781848461155a565b505050565b5b818110156115bb576115b0600082611584565b60018101905061159d565b5050565b601f821115611600576115d1816114a0565b6115da846114b5565b810160208510156115e9578190505b6115fd6115f5856114b5565b83018261159c565b50505b505050565b600082821c905092915050565b600061162360001984600802611605565b1980831691505092915050565b600061163c8383611612565b9150826002028217905092915050565b61165582610edd565b67ffffffffffffffff81111561166e5761166d611112565b5b61167882546112c8565b6116838282856115bf565b600060209050601f8311600181146116b657600084156116a4578287015190505b6116ae8582611630565b865550611716565b601f1984166116c4866114a0565b60005b828110156116ec578489015182556001820191506020850194506020810190506116c7565b868310156117095784890151611705601f891682611612565b8355505b6001600288020188555050505b505050505050565b60008190508160005260206000209050919050565b601f821115611774576117458161171e565b61174e846114b5565b8101602085101561175d578190505b611771611769856114b5565b83018261159c565b50505b505050565b61178282610f86565b67ffffffffffffffff81111561179b5761179a611112565b5b6117a582546112c8565b6117b0828285611733565b600060209050601f8311600181146117e357600084156117d1578287015190505b6117db8582611630565b865550611843565b601f1984166117f18661171e565b60005b82811015611819578489015182556001820191506020850194506020810190506117f4565b868310156118365784890151611832601f891682611612565b8355505b6001600288020188555050505b505050505050565b600060408201905081810360008301526118658185610f34565b905081810360208301526118798184610fa2565b9050939250505056fea2646970667358221220f9a5548506435b3731093fc07586d83b80486df8ddc0d94e051cc92db1f215dd64736f6c63430008140033",
  "linkReferences": {},
  "deployedLinkReferences": {}
}