{
  "_format": "hh-sol-artifact-1",
  "contractName": "ComplianceModule",
  "sourceName": "contracts/ComplianceModule.sol",
  "abi": [
    {
      "inputs": [],
      "stateMutability": "nonpayable",
      "type": "constructor"
    },
    {
      "inputs": [
        {
          "internalType": "address",
          "name": "owner",
          "type": "address"
        }
      ],
      "name": "OwnableInvalidOwner",
      "type": "error"
    },
    {
      "inputs": [
        {
          "internalType": "address",
          "name": "account",
          "type": "address"
        }
      ],
      "name": "OwnableUnauthorizedAccount",
      "type": "error"
    },
    {
      "anonymous": false,
      "inputs": [
        {
          "indexed": true,
          "internalType": "address",
          "name": "wallet",
          "type": "address"
        },
        {
          "indexed": false,
          "internalType": "bytes32",
          "name": "attestationHash",
          "type": "bytes32"
        }
      ],
      "name": "KYCAttested",
      "type": "event"
    },
    {
      "anonymous": false,
      "inputs": [
        {
          "indexed": true,
          "internalType": "address",
          "name": "previousOwner",
          "type": "address"
        },
        {
          "indexed": true,
          "internalType": "address",
          "name": "newOwner",
          "type": "address"
        }
      ],
      "name": "OwnershipTransferred",
      "type": "event"
    },
    {
      "inputs": [
        {
          "internalType": "address",
          "name": "wallet",
          "type": "address"
        },
        {
          "internalType": "bytes",
          "name": "attestation",
          "type": "bytes"
        }
      ],
      "name": "attestKYC",
      "outputs": [],
      "stateMutability": "nonpayable",
      "type": "function"
    },
    {
      "inputs": [
        {
          "internalType": "address",
          "name": "",
          "type": "address"
        }
      ],
      "name": "attestations",
      "outputs": [
        {
          "internalType": "bytes",
          "name": "",
          "type": "bytes"
        }
      ],
      "stateMutability": "view",
      "type": "function"
    },
    {
      "inputs": [],
      "name": "owner",
      "outputs": [
        {
          "internalType": "address",
          "name": "",
          "type": "address"
        }
      ],
      "stateMutability": "view",
      "type": "function"
    },
    {
      "inputs": [],
      "name": "renounceOwnership",
      "outputs": [],
      "stateMutability": "nonpayable",
      "type": "function"
    },
    {
      "inputs": [
        {
          "internalType": "address",
          "name": "newOwner",
          "type": "address"
        }
      ],
      "name": "transferOwnership",
      "outputs": [],
      "stateMutability": "nonpayable",
      "type": "function"
    },
    {
      "inputs": [
        {
          "internalType": "address",
          "name": "wallet",
          "type": "address"
        },
        {
          "internalType": "bytes",
          "name": "attestation",
          "type": "bytes"
        }
      ],
      "name": "verifyAttestation",
      "outputs": [
        {
          "internalType": "bool",
          "name": "",
          "type": "bool"
        }
      ],
      "stateMutability": "view",
      "type": "function"
    }
  ],
  "bytecode": "0x608060405234801561001057600080fd5b5033600073ffffffffffffffffffffffffffffffffffffffff168173ffffffffffffffffffffffffffffffffffffffff16036100845760006040517f1e4fbdf700000000000000000000000000000000000000000000000000000000815260040161007b919061019e565b60405180910390fd5b6100938161009960201b60201c565b506101b9565b60008060009054906101000a900473ffffffffffffffffffffffffffffffffffffffff169050816000806101000a81548173ffffffffffffffffffffffffffffffffffffffff021916908373ffffffffffffffffffffffffffffffffffffffff1602179055508173ffffffffffffffffffffffffffffffffffffffff168173ffffffffffffffffffffffffffffffffffffffff167f8be0079c531659141344cd1fd0a4f28419497f9722a3daafe3b4186f6b6457e060405160405180910390a35050565b600073ffffffffffffffffffffffffffffffffffffffff82169050919050565b60006101888261015d565b9050919050565b6101988161017d565b82525050565b60006020820190506101b3600083018461018f565b92915050565b610b77806101c86000396000f3fe608060405234801561001057600080fd5b50600436106100625760003560e01c80632035704814610067578063715018a6146100975780638da5cb5b146100a1578063bad5b133146100bf578063d4d03f10146100ef578063f2fde38b1461010b575b600080fd5b610081600480360381019061007c9190610555565b610127565b60405161008e9190610612565b60405180910390f35b61009f6101c7565b005b6100a96101db565b6040516100b69190610643565b60405180910390f35b6100d960048036038101906100d49190610793565b610204565b6040516100e6919061080a565b60405180910390f35b61010960048036038101906101049190610793565b61025c565b005b61012560048036038101906101209190610555565b61030a565b005b6001602052806000526040600020600091509050805461014690610854565b80601f016020809104026020016040519081016040528092919081815260200182805461017290610854565b80156101bf5780601f10610194576101008083540402835291602001916101bf565b820191906000526020600020905b8154815290600101906020018083116101a257829003601f168201915b505050505081565b6101cf610390565b6101d96000610417565b565b60008060009054906101000a900473ffffffffffffffffffffffffffffffffffffffff16905090565b600080600160008573ffffffffffffffffffffffffffffffffffffffff1673ffffffffffffffffffffffffffffffffffffffff168152602001908152602001600020805461025190610854565b905011905092915050565b610264610390565b80600160008473ffffffffffffffffffffffffffffffffffffffff1673ffffffffffffffffffffffffffffffffffffffff16815260200190815260200160002090816102b09190610a3b565b508173ffffffffffffffffffffffffffffffffffffffff167f2f52c77c79b4d2ef9a6bb1b4c15fa01856ecd7474893c9b9a681c8428cba279782805190602001206040516102fe9190610b26565b60405180910390a25050565b610312610390565b600073ffffffffffffffffffffffffffffffffffffffff168173ffffffffffffffffffffffffffffffffffffffff16036103845760006040517f1e4fbdf700000000000000000000000000000000000000000000000000000000815260040161037b9190610643565b60405180910390fd5b61038d81610417565b50565b6103986104db565b73ffffffffffffffffffffffffffffffffffffffff166103b66101db565b73ffffffffffffffffffffffffffffffffffffffff1614610415576103d96104db565b6040517f118cdaa700000000000000000000000000000000000000000000000000000000815260040161040c9190610643565b60405180910390fd5b565b60008060009054906101000a900473ffffffffffffffffffffffffffffffffffffffff169050816000806101000a81548173ffffffffffffffffffffffffffffffffffffffff021916908373ffffffffffffffffffffffffffffffffffffffff1602179055508173ffffffffffffffffffffffffffffffffffffffff168173ffffffffffffffffffffffffffffffffffffffff167f8be0079c531659141344cd1fd0a4f28419497f9722a3daafe3b4186f6b6457e060405160405180910390a35050565b600033905090565b6000604051905090565b600080fd5b600080fd5b600073ffffffffffffffffffffffffffffffffffffffff82169050919050565b6000610522826104f7565b9050919050565b61053281610517565b811461053d57600080fd5b50565b60008135905061054f81610529565b92915050565b60006020828403121561056b5761056a6104ed565b5b600061057984828501610540565b91505092915050565b600081519050919050565b600082825260208201905092915050565b60005b838110156105bc5780820151818401526020810190506105a1565b60008484015250505050565b6000601f19601f8301169050919050565b60006105e482610582565b6105ee818561058d565b93506105fe81856020860161059e565b610607816105c8565b840191505092915050565b6000602082019050818103600083015261062c81846105d9565b905092915050565b61063d81610517565b82525050565b60006020820190506106586000830184610634565b92915050565b600080fd5b600080fd5b7f4e487b7100000000000000000000000000000000000000000000000000000000600052604160045260246000fd5b6106a0826105c8565b810181811067ffffffffffffffff821117156106bf576106be610668565b5b80604052505050565b60006106d26104e3565b90506106de8282610697565b919050565b600067ffffffffffffffff8211156106fe576106fd610668565b5b610707826105c8565b9050602081019050919050565b82818337600083830152505050565b6000610736610731846106e3565b6106c8565b90508281526020810184848401111561075257610751610663565b5b61075d848285610714565b509392505050565b600082601f83011261077a5761077961065e565b5b813561078a848260208601610723565b91505092915050565b600080604083850312156107aa576107a96104ed565b5b60006107b885828601610540565b925050602083013567ffffffffffffffff8111156107d9576107d86104f2565b5b6107e585828601610765565b9150509250929050565b60008115159050919050565b610804816107ef565b82525050565b600060208201905061081f60008301846107fb565b92915050565b7f4e487b7100000000000000000000000000000000000000000000000000000000600052602260045260246000fd5b6000600282049050600182168061086c57607f821691505b60208210810361087f5761087e610825565b5b50919050565b60008190508160005260206000209050919050565b60006020601f8301049050919050565b600082821b905092915050565b6000600883026108e77fffffffffffffffffffffffffffffffffffffffffffffffffffffffffffffffff826108aa565b6108f186836108aa565b95508019841693508086168417925050509392505050565b6000819050919050565b6000819050919050565b600061093861093361092e84610909565b610913565b610909565b9050919050565b6000819050919050565b6109528361091d565b61096661095e8261093f565b8484546108b7565b825550505050565b600090565b61097b61096e565b610986818484610949565b505050565b5b818110156109aa5761099f600082610973565b60018101905061098c565b5050565b601f8211156109ef576109c081610885565b6109c98461089a565b810160208510156109d8578190505b6109ec6109e48561089a565b83018261098b565b50505b505050565b600082821c905092915050565b6000610a12600019846008026109f4565b1980831691505092915050565b6000610a2b8383610a01565b9150826002028217905092915050565b610a4482610582565b67ffffffffffffffff811115610a5d57610a5c610668565b5b610a678254610854565b610a728282856109ae565b600060209050601f831160018114610aa55760008415610a93578287015190505b610a9d8582610a1f565b865550610b05565b601f198416610ab386610885565b60005b82811015610adb57848901518255600182019150602085019450602081019050610ab6565b86831015610af85784890151610af4601f891682610a01565b8355505b6001600288020188555050505b505050505050565b6000819050919050565b610b2081610b0d565b82525050565b6000602082019050610b3b6000830184610b17565b9291505056fea2646970667358221220168d5cb742f6a49b7de4aa65eaf16009d06659d1a1b819777e7a63b0f619967764736f6c63430008140033",
  "linkReferences": {},
  "deployedLinkReferences": {}
}