{
  "_format": "hh-sol-artifact-1",
  "contractName": "Vault",
  "sourceName": "contracts/Vault.sol",
  "abi": [
    {
      "inputs": [
        {
          "internalType": "string",
          "name": "name",
          "type": "string"
        },
        {
          "internalType": "string",
          "name": "symbol",
          "type": "string"
        },
        {
          "internalType": "contract IERC20",
          "name": "_asset",
          "type": "address"
        },
        {
          "internalType": "contract AssetTokenizer",
          "name": "_assetTokenizer",
          "type": "address"
        },
        {
          "internalType": "contract ComplianceModule",
          "name": "_compliance",
          "type": "address"
        },
        {
          "internalType": "contract YieldDistributor",
          "name": "_yieldDistributor",
          "type": "address"
        },
        {
          "internalType": "contract ZKModule",
          "name": "_zkModule",
          "type": "address"
        },
        {
          "internalType": "string",
          "name": "_strategy",
          "type": "string"
        },
        {
          "internalType": "uint8",
          "name": "_riskScore",
          "type": "uint8"
        },
        {
          "internalType": "string",
          "name": "_custodian",
          "type": "string"
        }
      ],
      "stateMutability": "nonpayable",
      "type": "constructor"
    },
    {
      "inputs": [
        {
          "internalType": "address",
          "name": "spender",
          "type": "address"
        },
        {
          "internalType": "uint256",
          "name": "allowance",
          "type": "uint256"
        },
        {
          "internalType": "uint256",
          "name": "needed",
          "type": "uint256"
        }
      ],
      "name": "ERC20InsufficientAllowance",
      "type": "error"
    },
    {
      "inputs": [
        {
          "internalType": "address",
          "name": "sender",
          "type": "address"
        },
        {
          "internalType": "uint256",
          "name": "balance",
          "type": "uint256"
        },
        {
          "internalType": "uint256",
          "name": "needed",
          "type": "uint256"
        }
      ],
      "name": "ERC20InsufficientBalance",
      "type": "error"
    },
    {
      "inputs": [
        {
          "internalType": "address",
          "name": "approver",
          "type": "address"
        }
      ],
      "name": "ERC20InvalidApprover",
      "type": "error"
    },
    {
      "inputs": [
        {
          "internalType": "address",
          "name": "receiver",
          "type": "address"
        }
      ],
      "name": "ERC20InvalidReceiver",
      "type": "error"
    },
    {
      "inputs": [
        {
          "internalType": "address",
          "name": "sender",
          "type": "address"
        }
      ],
      "name": "ERC20InvalidSender",
      "type": "error"
    },
    {
      "inputs": [
        {
          "internalType": "address",
          "name": "spender",
          "type": "address"
        }
      ],
      "name": "ERC20InvalidSpender",
      "type": "error"
    },
    {
      "inputs": [
        {
          "internalType": "address",
          "name": "receiver",
          "type": "address"
        },
        {
          "internalType": "uint256",
          "name": "assets",
          "type": "uint256"
        },
        {
          "internalType": "uint256",
          "name": "max",
          "type": "uint256"
        }
      ],
      "name": "ERC4626ExceededMaxDeposit",
      "type": "error"
    },
    {
      "inputs": [
        {
          "internalType": "address",
          "name": "receiver",
          "type": "address"
        },
        {
          "internalType": "uint256",
          "name": "shares",
          "type": "uint256"
        },
        {
          "internalType": "uint256",
          "name": "max",
          "type": "uint256"
        }
      ],
      "name": "ERC4626ExceededMaxMint",
      "type": "error"
    },
    {
      "inputs": [
        {
          "internalType": "address",
          "name": "owner",
          "type": "address"
        },
        {
          "internalType": "uint256",
          "name": "shares",
          "type": "uint256"
        },
        {
          "internalType": "uint256",
          "name": "max",
          "type": "uint256"
        }
      ],
      "name": "ERC4626ExceededMaxRedeem",
      "type": "error"
    },
    {
      "inputs": [
        {
          "internalType": "address",
          "name": "owner",
          "type": "address"
        },
        {
          "internalType": "uint256",
          "name": "assets",
          "type": "uint256"
        },
        {
          "internalType": "uint256",
          "name": "max",
          "type": "uint256"
        }
      ],
      "name": "ERC4626ExceededMaxWithdraw",
      "type": "error"
    },
    {
      "inputs": [
        {
          "internalType": "address",
          "name": "owner",
          "type": "address"
        }
      ],
      "name": "OwnableInvalidOwner",
      "type": "error"
    },
    {
      "inputs": [
        {
          "internalType": "address",
          "name": "account",
          "type": "address"
        }
      ],
      "name": "OwnableUnauthorizedAccount",
      "type": "error"
    },
    {
      "inputs": [
        {
          "internalType": "address",
          "name": "token",
          "type": "address"
        }
      ],
      "name": "SafeERC20FailedOperation",
      "type": "error"
    },
    {
      "anonymous": false,
      "inputs": [
        {
          "indexed": true,
          "internalType": "address",
          "name": "owner",
          "type": "address"
        },
        {
          "indexed": true,
          "internalType": "address",
          "name": "spender",
          "type": "address"
        },
        {
          "indexed": false,
          "internalType": "uint256",
          "name": "value",
          "type": "uint256"
        }
      ],
      "name": "Approval",
      "type": "event"
    },
    {
      "anonymous": false,
      "inputs": [
        {
          "indexed": true,
          "internalType": "address",
          "name": "sender",
          "type": "address"
        },
        {
          "indexed": true,
          "internalType": "address",
          "name": "owner",
          "type": "address"
        },
        {
          "indexed": false,
          "internalType": "uint256",
          "name": "assets",
          "type": "uint256"
        },
        {
          "indexed": false,
          "internalType": "uint256",
          "name": "shares",
          "type": "uint256"
        }
      ],
      "name": "Deposit",
      "type": "event"
    },
    {
      "anonymous": false,
      "inputs": [
        {
          "indexed": true,
          "internalType": "address",
          "name": "depositor",
          "type": "address"
        },
        {
          "indexed": false,
          "internalType": "uint256",
          "name": "assets",
          "type": "uint256"
        },
        {
          "indexed": false,
          "internalType": "uint256",
          "name": "shares",
          "type": "uint256"
        }
      ],
      "name": "Deposit",
      "type": "event"
    },
    {
      "anonymous": false,
      "inputs": [
        {
          "indexed": true,
          "internalType": "address",
          "name": "previousOwner",
          "type": "address"
        },
        {
          "indexed": true,
          "internalType": "address",
          "name": "newOwner",
          "type": "address"
        }
      ],
      "name": "OwnershipTransferred",
      "type": "event"
    },
    {
      "anonymous": false,
      "inputs": [
        {
          "indexed": true,
          "internalType": "address",
          "name": "from",
          "type": "address"
        },
        {
          "indexed": true,
          "internalType": "address",
          "name": "to",
          "type": "address"
        },
        {
          "indexed": false,
          "internalType": "uint256",
          "name": "value",
          "type": "uint256"
        }
      ],
      "name": "Transfer",
      "type": "event"
    },
    {
      "anonymous": false,
      "inputs": [
        {
          "indexed": true,
          "internalType": "address",
          "name": "sender",
          "type": "address"
        },
        {
          "indexed": true,
          "internalType": "address",
          "name": "receiver",
          "type": "address"
        },
        {
          "indexed": true,
          "internalType": "address",
          "name": "owner",
          "type": "address"
        },
        {
          "indexed": false,
          "internalType": "uint256",
          "name": "assets",
          "type": "uint256"
        },
        {
          "indexed": false,
          "internalType": "uint256",
          "name": "shares",
          "type": "uint256"
        }
      ],
      "name": "Withdraw",
      "type": "event"
    },
    {
      "anonymous": false,
      "inputs": [
        {
          "indexed": true,
          "internalType": "address",
          "name": "user",
          "type": "address"
        },
        {
          "indexed": false,
          "internalType": "uint256",
          "name": "shares",
          "type": "uint256"
        },
        {
          "indexed": false,
          "internalType": "bytes",
          "name": "proof",
          "type": "bytes"
        }
      ],
      "name": "WithdrawFulfilled",
      "type": "event"
    },
    {
      "anonymous": false,
      "inputs": [
        {
          "indexed": true,
          "internalType": "address",
          "name": "user",
          "type": "address"
        },
        {
          "indexed": false,
          "internalType": "uint256",
          "name": "shares",
          "type": "uint256"
        }
      ],
      "name": "WithdrawRequest",
      "type": "event"
    },
    {
      "anonymous": false,
      "inputs": [
        {
          "indexed": false,
          "internalType": "uint256",
          "name": "totalYield",
          "type": "uint256"
        },
        {
          "indexed": false,
          "internalType": "uint256",
          "name": "timestamp",
          "type": "uint256"
        }
      ],
      "name": "YieldDistributed",
      "type": "event"
    },
    {
      "inputs": [
        {
          "internalType": "address",
          "name": "owner",
          "type": "address"
        },
        {
          "internalType": "address",
          "name": "spender",
          "type": "address"
        }
      ],
      "name": "allowance",
      "outputs": [
        {
          "internalType": "uint256",
          "name": "",
          "type": "uint256"
        }
      ],
      "stateMutability": "view",
      "type": "function"
    },
    {
      "inputs": [
        {
          "internalType": "address",
          "name": "spender",
          "type": "address"
        },
        {
          "internalType": "uint256",
          "name": "value",
          "type": "uint256"
        }
      ],
      "name": "approve",
      "outputs": [
        {
          "internalType": "bool",
          "name": "",
          "type": "bool"
        }
      ],
      "stateMutability": "nonpayable",
      "type": "function"
    },
    {
      "inputs": [],
      "name": "asset",
      "outputs": [
        {
          "internalType": "address",
          "name": "",
          "type": "address"
        }
      ],
      "stateMutability": "view",
      "type": "function"
    },
    {
      "inputs": [],
      "name": "assetTokenizer",
      "outputs": [
        {
          "internalType": "contract AssetTokenizer",
          "name": "",
          "type": "address"
        }
      ],
      "stateMutability": "view",
      "type": "function"
    },
    {
      "inputs": [
        {
          "internalType": "address",
          "name": "account",
          "type": "address"
        }
      ],
      "name": "balanceOf",
      "outputs": [
        {
          "internalType": "uint256",
          "name": "",
          "type": "uint256"
        }
      ],
      "stateMutability": "view",
      "type": "function"
    },
    {
      "inputs": [],
      "name": "calculateYield",
      "outputs": [
        {
          "internalType": "uint256",
          "name": "",
          "type": "uint256"
        }
      ],
      "stateMutability": "view",
      "type": "function"
    },
    {
      "inputs": [],
      "name": "claimYield",
      "outputs": [],
      "stateMutability": "nonpayable",
      "type": "function"
    },
    {
      "inputs": [],
      "name": "compliance",
      "outputs": [
        {
          "internalType": "contract ComplianceModule",
          "name": "",
          "type": "address"
        }
      ],
      "stateMutability": "view",
      "type": "function"
    },
    {
      "inputs": [
        {
          "internalType": "uint256",
          "name": "shares",
          "type": "uint256"
        }
      ],
      "name": "convertToAssets",
      "outputs": [
        {
          "internalType": "uint256",
          "name": "",
          "type": "uint256"
        }
      ],
      "stateMutability": "view",
      "type": "function"
    },
    {
      "inputs": [
        {
          "internalType": "uint256",
          "name": "assets",
          "type": "uint256"
        }
      ],
      "name": "convertToShares",
      "outputs": [
        {
          "internalType": "uint256",
          "name": "",
          "type": "uint256"
        }
      ],
      "stateMutability": "view",
      "type": "function"
    },
    {
      "inputs": [],
      "name": "custodian",
      "outputs": [
        {
          "internalType": "string",
          "name": "",
          "type": "string"
        }
      ],
      "stateMutability": "view",
      "type": "function"
    },
    {
      "inputs": [],
      "name": "decimals",
      "outputs": [
        {
          "internalType": "uint8",
          "name": "",
          "type": "uint8"
        }
      ],
      "stateMutability": "view",
      "type": "function"
    },
    {
      "inputs": [
        {
          "internalType": "uint256",
          "name": "assets",
          "type": "uint256"
        },
        {
          "internalType": "address",
          "name": "receiver",
          "type": "address"
        }
      ],
      "name": "deposit",
      "outputs": [
        {
          "internalType": "uint256",
          "name": "",
          "type": "uint256"
        }
      ],
      "stateMutability": "nonpayable",
      "type": "function"
    },
    {
      "inputs": [
        {
          "internalType": "uint256",
          "name": "",
          "type": "uint256"
        }
      ],
      "name": "depositedAssets",
      "outputs": [
        {
          "internalType": "bool",
          "name": "",
          "type": "bool"
        }
      ],
      "stateMutability": "view",
      "type": "function"
    },
    {
      "inputs": [],
      "name": "distributeYield",
      "outputs": [],
      "stateMutability": "nonpayable",
      "type": "function"
    },
    {
      "inputs": [],
      "name": "getVaultStats",
      "outputs": [
        {
          "internalType": "uint256",
          "name": "tvl",
          "type": "uint256"
        },
        {
          "internalType": "uint256",
          "name": "apy",
          "type": "uint256"
        },
        {
          "internalType": "uint256",
          "name": "depositors",
          "type": "uint256"
        },
        {
          "internalType": "uint256",
          "name": "yieldDistributed",
          "type": "uint256"
        }
      ],
      "stateMutability": "view",
      "type": "function"
    },
    {
      "inputs": [
        {
          "internalType": "address",
          "name": "",
          "type": "address"
        }
      ],
      "name": "lastYieldClaim",
      "outputs": [
        {
          "internalType": "uint256",
          "name": "",
          "type": "uint256"
        }
      ],
      "stateMutability": "view",
      "type": "function"
    },
    {
      "inputs": [],
      "name": "lastYieldDistribution",
      "outputs": [
        {
          "internalType": "uint256",
          "name": "",
          "type": "uint256"
        }
      ],
      "stateMutability": "view",
      "type": "function"
    },
    {
      "inputs": [
        {
          "internalType": "address",
          "name": "",
          "type": "address"
        }
      ],
      "name": "maxDeposit",
      "outputs": [
        {
          "internalType": "uint256",
          "name": "",
          "type": "uint256"
        }
      ],
      "stateMutability": "view",
      "type": "function"
    },
    {
      "inputs": [
        {
          "internalType": "address",
          "name": "",
          "type": "address"
        }
      ],
      "name": "maxMint",
      "outputs": [
        {
          "internalType": "uint256",
          "name": "",
          "type": "uint256"
        }
      ],
      "stateMutability": "view",
      "type": "function"
    },
    {
      "inputs": [
        {
          "internalType": "address",
          "name": "owner",
          "type": "address"
        }
      ],
      "name": "maxRedeem",
      "outputs": [
        {
          "internalType": "uint256",
          "name": "",
          "type": "uint256"
        }
      ],
      "stateMutability": "view",
      "type": "function"
    },
    {
      "inputs": [
        {
          "internalType": "address",
          "name": "owner",
          "type": "address"
        }
      ],
      "name": "maxWithdraw",
      "outputs": [
        {
          "internalType": "uint256",
          "name": "",
          "type": "uint256"
        }
      ],
      "stateMutability": "view",
      "type": "function"
    },
    {
      "inputs": [
        {
          "internalType": "uint256",
          "name": "shares",
          "type": "uint256"
        },
        {
          "internalType": "address",
          "name": "receiver",
          "type": "address"
        }
      ],
      "name": "mint",
      "outputs": [
        {
          "internalType": "uint256",
          "name": "",
          "type": "uint256"
        }
      ],
      "stateMutability": "nonpayable",
      "type": "function"
    },
    {
      "inputs": [],
      "name": "name",
      "outputs": [
        {
          "internalType": "string",
          "name": "",
          "type": "string"
        }
      ],
      "stateMutability": "view",
      "type": "function"
    },
    {
      "inputs": [],
      "name": "owner",
      "outputs": [
        {
          "internalType": "address",
          "name": "",
          "type": "address"
        }
      ],
      "stateMutability": "view",
      "type": "function"
    },
    {
      "inputs": [
        {
          "internalType": "address",
          "name": "",
          "type": "address"
        }
      ],
      "name": "pendingWithdrawals",
      "outputs": [
        {
          "internalType": "uint256",
          "name": "",
          "type": "uint256"
        }
      ],
      "stateMutability": "view",
      "type": "function"
    },
    {
      "inputs": [
        {
          "internalType": "uint256",
          "name": "assets",
          "type": "uint256"
        }
      ],
      "name": "previewDeposit",
      "outputs": [
        {
          "internalType": "uint256",
          "name": "",
          "type": "uint256"
        }
      ],
      "stateMutability": "view",
      "type": "function"
    },
    {
      "inputs": [
        {
          "internalType": "uint256",
          "name": "shares",
          "type": "uint256"
        }
      ],
      "name": "previewMint",
      "outputs": [
        {
          "internalType": "uint256",
          "name": "",
          "type": "uint256"
        }
      ],
      "stateMutability": "view",
      "type": "function"
    },
    {
      "inputs": [
        {
          "internalType": "uint256",
          "name": "shares",
          "type": "uint256"
        }
      ],
      "name": "previewRedeem",
      "outputs": [
        {
          "internalType": "uint256",
          "name": "",
          "type": "uint256"
        }
      ],
      "stateMutability": "view",
      "type": "function"
    },
    {
      "inputs": [
        {
          "internalType": "uint256",
          "name": "assets",
          "type": "uint256"
        }
      ],
      "name": "previewWithdraw",
      "outputs": [
        {
          "internalType": "uint256",
          "name": "",
          "type": "uint256"
        }
      ],
      "stateMutability": "view",
      "type": "function"
    },
    {
      "inputs": [
        {
          "internalType": "uint256",
          "name": "shares",
          "type": "uint256"
        },
        {
          "internalType": "address",
          "name": "receiver",
          "type": "address"
        },
        {
          "internalType": "address",
          "name": "owner",
          "type": "address"
        }
      ],
      "name": "redeem",
      "outputs": [
        {
          "internalType": "uint256",
          "name": "",
          "type": "uint256"
        }
      ],
      "stateMutability": "nonpayable",
      "type": "function"
    },
    {
      "inputs": [],
      "name": "renounceOwnership",
      "outputs": [],
      "stateMutability": "nonpayable",
      "type": "function"
    },
    {
      "inputs": [
        {
          "internalType": "uint256",
          "name": "shares",
          "type": "uint256"
        }
      ],
      "name": "requestWithdrawal",
      "outputs": [],
      "stateMutability": "nonpayable",
      "type": "function"
    },
    {
      "inputs": [],
      "name": "riskScore",
      "outputs": [
        {
          "internalType": "uint8",
          "name": "",
          "type": "uint8"
        }
      ],
      "stateMutability": "view",
      "type": "function"
    },
    {
      "inputs": [
        {
          "internalType": "bytes",
          "name": "proof",
          "type": "bytes"
        },
        {
          "internalType": "uint256",
          "name": "shares",
          "type": "uint256"
        }
      ],
      "name": "settleWithdrawal",
      "outputs": [],
      "stateMutability": "nonpayable",
      "type": "function"
    },
    {
      "inputs": [],
      "name": "symbol",
      "outputs": [
        {
          "internalType": "string",
          "name": "",
          "type": "string"
        }
      ],
      "stateMutability": "view",
      "type": "function"
    },
    {
      "inputs": [],
      "name": "totalAssets",
      "outputs": [
        {
          "internalType": "uint256",
          "name": "",
          "type": "uint256"
        }
      ],
      "stateMutability": "view",
      "type": "function"
    },
    {
      "inputs": [],
      "name": "totalSupply",
      "outputs": [
        {
          "internalType": "uint256",
          "name": "",
          "type": "uint256"
        }
      ],
      "stateMutability": "view",
      "type": "function"
    },
    {
      "inputs": [],
      "name": "totalValueLocked",
      "outputs": [
        {
          "internalType": "uint256",
          "name": "",
          "type": "uint256"
        }
      ],
      "stateMutability": "view",
      "type": "function"
    },
    {
      "inputs": [
        {
          "internalType": "address",
          "name": "to",
          "type": "address"
        },
        {
          "internalType": "uint256",
          "name": "value",
          "type": "uint256"
        }
      ],
      "name": "transfer",
      "outputs": [
        {
          "internalType": "bool",
          "name": "",
          "type": "bool"
        }
      ],
      "stateMutability": "nonpayable",
      "type": "function"
    },
    {
      "inputs": [
        {
          "internalType": "address",
          "name": "from",
          "type": "address"
        },
        {
          "internalType": "address",
          "name": "to",
          "type": "address"
        },
        {
          "internalType": "uint256",
          "name": "value",
          "type": "uint256"
        }
      ],
      "name": "transferFrom",
      "outputs": [
        {
          "internalType": "bool",
          "name": "",
          "type": "bool"
        }
      ],
      "stateMutability": "nonpayable",
      "type": "function"
    },
    {
      "inputs": [
        {
          "internalType": "address",
          "name": "newOwner",
          "type": "address"
        }
      ],
      "name": "transferOwnership",
      "outputs": [],
      "stateMutability": "nonpayable",
      "type": "function"
    },
    {
      "inputs": [],
      "name": "vaultStrategy",
      "outputs": [
        {
          "internalType": "string",
          "name": "",
          "type": "string"
        }
      ],
      "stateMutability": "view",
      "type": "function"
    },
    {
      "inputs": [
        {
          "internalType": "uint256",
          "name": "assets",
          "type": "uint256"
        },
        {
          "internalType": "address",
          "name": "receiver",
          "type": "address"
        },
        {
          "internalType": "address",
          "name": "owner",
          "type": "address"
        }
      ],
      "name": "withdraw",
      "outputs": [
        {
          "internalType": "uint256",
          "name": "",
          "type": "uint256"
        }
      ],
      "stateMutability": "nonpayable",
      "type": "function"
    },
    {
      "inputs": [],
      "name": "yieldDistributor",
      "outputs": [
        {
          "internalType": "contract YieldDistributor",
          "name": "",
          "type": "address"
        }
      ],
      "stateMutability": "view",
      "type": "function"
    },
    {
      "inputs": [],
      "name": "zkModule",
      "outputs": [
        {
          "internalType": "contract ZKModule",
          "name": "",
          "type": "address"
        }
      ],
      "stateMutability": "view",
      "type": "function"
    }
  ],
  "bytecode": "0x60c06040523480156200001157600080fd5b506040516200449c3803806200449c8339818101604052810190620000379190620007e5565b33888b8b81600390816200004c919062000ba2565b5080600490816200005e919062000ba2565b5050506000806200007583620002a760201b60201c565b91509150816200008757601262000089565b805b60ff1660a08160ff16815250508273ffffffffffffffffffffffffffffffffffffffff1660808173ffffffffffffffffffffffffffffffffffffffff1681525050505050600073ffffffffffffffffffffffffffffffffffffffff168173ffffffffffffffffffffffffffffffffffffffff1603620001425760006040517f1e4fbdf700000000000000000000000000000000000000000000000000000000815260040162000139919062000c9a565b60405180910390fd5b6200015381620003c160201b60201c565b5086600660006101000a81548173ffffffffffffffffffffffffffffffffffffffff021916908373ffffffffffffffffffffffffffffffffffffffff16021790555085600760006101000a81548173ffffffffffffffffffffffffffffffffffffffff021916908373ffffffffffffffffffffffffffffffffffffffff16021790555084600860006101000a81548173ffffffffffffffffffffffffffffffffffffffff021916908373ffffffffffffffffffffffffffffffffffffffff16021790555083600960006101000a81548173ffffffffffffffffffffffffffffffffffffffff021916908373ffffffffffffffffffffffffffffffffffffffff16021790555082600f908162000269919062000ba2565b5081601060006101000a81548160ff021916908360ff160217905550806011908162000296919062000ba2565b505050505050505050505062000d80565b6000806000808473ffffffffffffffffffffffffffffffffffffffff1660405160240160405160208183030381529060405263313ce56760e01b6020820180517bffffffffffffffffffffffffffffffffffffffffffffffffffffffff83818316178352505050506040516200031e919062000d04565b600060405180830381855afa9150503d80600081146200035b576040519150601f19603f3d011682016040523d82523d6000602084013e62000360565b606091505b50915091508180156200037557506020815110155b15620003b25760008180602001905181019062000393919062000d4e565b905060ff80168111620003b05760018194509450505050620003bc565b505b6000809350935050505b915091565b6000600560009054906101000a900473ffffffffffffffffffffffffffffffffffffffff16905081600560006101000a81548173ffffffffffffffffffffffffffffffffffffffff021916908373ffffffffffffffffffffffffffffffffffffffff1602179055508173ffffffffffffffffffffffffffffffffffffffff168173ffffffffffffffffffffffffffffffffffffffff167f8be0079c531659141344cd1fd0a4f28419497f9722a3daafe3b4186f6b6457e060405160405180910390a35050565b6000604051905090565b600080fd5b600080fd5b600080fd5b600080fd5b6000601f19601f8301169050919050565b7f4e487b7100000000000000000000000000000000000000000000000000000000600052604160045260246000fd5b620004f082620004a5565b810181811067ffffffffffffffff82111715620005125762000511620004b6565b5b80604052505050565b60006200052762000487565b9050620005358282620004e5565b919050565b600067ffffffffffffffff821115620005585762000557620004b6565b5b6200056382620004a5565b9050602081019050919050565b60005b838110156200059057808201518184015260208101905062000573565b60008484015250505050565b6000620005b3620005ad846200053a565b6200051b565b905082815260208101848484011115620005d257620005d1620004a0565b5b620005df84828562000570565b509392505050565b600082601f830112620005ff57620005fe6200049b565b5b8151620006118482602086016200059c565b91505092915050565b600073ffffffffffffffffffffffffffffffffffffffff82169050919050565b600062000647826200061a565b9050919050565b60006200065b826200063a565b9050919050565b6200066d816200064e565b81146200067957600080fd5b50565b6000815190506200068d8162000662565b92915050565b6000620006a0826200063a565b9050919050565b620006b28162000693565b8114620006be57600080fd5b50565b600081519050620006d281620006a7565b92915050565b6000620006e5826200063a565b9050919050565b620006f781620006d8565b81146200070357600080fd5b50565b6000815190506200071781620006ec565b92915050565b60006200072a826200063a565b9050919050565b6200073c816200071d565b81146200074857600080fd5b50565b6000815190506200075c8162000731565b92915050565b60006200076f826200063a565b9050919050565b620007818162000762565b81146200078d57600080fd5b50565b600081519050620007a18162000776565b92915050565b600060ff82169050919050565b620007bf81620007a7565b8114620007cb57600080fd5b50565b600081519050620007df81620007b4565b92915050565b6000806000806000806000806000806101408b8d0312156200080c576200080b62000491565b5b60008b015167ffffffffffffffff8111156200082d576200082c62000496565b5b6200083b8d828e01620005e7565b9a505060208b015167ffffffffffffffff8111156200085f576200085e62000496565b5b6200086d8d828e01620005e7565b9950506040620008808d828e016200067c565b9850506060620008938d828e01620006c1565b9750506080620008a68d828e0162000706565b96505060a0620008b98d828e016200074b565b95505060c0620008cc8d828e0162000790565b94505060e08b015167ffffffffffffffff811115620008f057620008ef62000496565b5b620008fe8d828e01620005e7565b935050610100620009128d828e01620007ce565b9250506101208b015167ffffffffffffffff81111562000937576200093662000496565b5b620009458d828e01620005e7565b9150509295989b9194979a5092959850565b600081519050919050565b7f4e487b7100000000000000000000000000000000000000000000000000000000600052602260045260246000fd5b60006002820490506001821680620009aa57607f821691505b602082108103620009c057620009bf62000962565b5b50919050565b60008190508160005260206000209050919050565b60006020601f8301049050919050565b600082821b905092915050565b60006008830262000a2a7fffffffffffffffffffffffffffffffffffffffffffffffffffffffffffffffff82620009eb565b62000a368683620009eb565b95508019841693508086168417925050509392505050565b6000819050919050565b6000819050919050565b600062000a8362000a7d62000a778462000a4e565b62000a58565b62000a4e565b9050919050565b6000819050919050565b62000a9f8362000a62565b62000ab762000aae8262000a8a565b848454620009f8565b825550505050565b600090565b62000ace62000abf565b62000adb81848462000a94565b505050565b5b8181101562000b035762000af760008262000ac4565b60018101905062000ae1565b5050565b601f82111562000b525762000b1c81620009c6565b62000b2784620009db565b8101602085101562000b37578190505b62000b4f62000b4685620009db565b83018262000ae0565b50505b505050565b600082821c905092915050565b600062000b776000198460080262000b57565b1980831691505092915050565b600062000b92838362000b64565b9150826002028217905092915050565b62000bad8262000957565b67ffffffffffffffff81111562000bc95762000bc8620004b6565b5b62000bd5825462000991565b62000be282828562000b07565b600060209050601f83116001811462000c1a576000841562000c05578287015190505b62000c11858262000b84565b86555062000c81565b601f19841662000c2a86620009c6565b60005b8281101562000c545784890151825560018201915060208501945060208101905062000c2d565b8683101562000c74578489015162000c70601f89168262000b64565b8355505b6001600288020188555050505b505050505050565b62000c94816200063a565b82525050565b600060208201905062000cb1600083018462000c89565b92915050565b600081519050919050565b600081905092915050565b600062000cda8262000cb7565b62000ce6818562000cc2565b935062000cf881856020860162000570565b80840191505092915050565b600062000d12828462000ccd565b915081905092915050565b62000d288162000a4e565b811462000d3457600080fd5b50565b60008151905062000d488162000d1d565b92915050565b60006020828403121562000d675762000d6662000491565b5b600062000d778482850162000d37565b91505092915050565b60805160a0516136f662000da66000396000610af001526000610bb001526136f66000f3fe608060405234801561001057600080fd5b506004361061028a5760003560e01c806394bf804d1161015c578063bfd02991116100ce578063def1897211610087578063def1897214610858578063e18cc13b14610888578063ec18154e146108a6578063ef8b30f7146108c4578063f2fde38b146108f4578063f3f43703146109105761028a565b8063bfd029911461074a578063c63d75b614610768578063c6e6f59214610798578063ce96cb77146107c8578063d905777e146107f8578063dd62ed3e146108285761028a565b8063a9059cbb11610120578063a9059cbb1461063e578063aa8d57051461066e578063b3d7f6b91461069e578063b460af94146106ce578063ba087652146106fe578063be2dc0591461072e5761028a565b806394bf804d1461059557806395d89b41146105c55780639ee679e8146105e3578063a38c2c3d146105ff578063a59aa5a61461061d5761028a565b8063402d267d116102005780636e553f65116101b95780636e553f65146104e557806370a0823114610515578063715018a6146105455780638a570a121461054f5780638c7bc6d0146105595780638da5cb5b146105775761028a565b8063402d267d14610421578063406cf2291461045157806342bf19011461045b5780634cdad5061461047957806352d91f9c146104a95780636290865d146104c75761028a565b806318160ddd1161025257806318160ddd1461035b57806323b872dd1461037957806329eb5f2c146103a9578063313ce567146103c7578063375b74c3146103e557806338d52e0f146104035761028a565b806301e1d1141461028f57806306fdde03146102ad57806307a2d13a146102cb578063095ea7b3146102fb5780630a28a4771461032b575b600080fd5b610297610940565b6040516102a4919061281b565b60405180910390f35b6102b56109c8565b6040516102c291906128c6565b60405180910390f35b6102e560048036038101906102e09190612928565b610a5a565b6040516102f2919061281b565b60405180910390f35b610315600480360381019061031091906129b3565b610a6e565b6040516103229190612a0e565b60405180910390f35b61034560048036038101906103409190612928565b610a91565b604051610352919061281b565b60405180910390f35b610363610aa5565b604051610370919061281b565b60405180910390f35b610393600480360381019061038e9190612a29565b610aaf565b6040516103a09190612a0e565b60405180910390f35b6103b1610ade565b6040516103be919061281b565b60405180910390f35b6103cf610ae4565b6040516103dc9190612a98565b60405180910390f35b6103ed610b1e565b6040516103fa91906128c6565b60405180910390f35b61040b610bac565b6040516104189190612ac2565b60405180910390f35b61043b60048036038101906104369190612add565b610bd4565b604051610448919061281b565b60405180910390f35b610459610bfe565b005b610463610cd1565b604051610470919061281b565b60405180910390f35b610493600480360381019061048e9190612928565b610d19565b6040516104a0919061281b565b60405180910390f35b6104b1610d2d565b6040516104be9190612b69565b60405180910390f35b6104cf610d53565b6040516104dc9190612ba5565b60405180910390f35b6104ff60048036038101906104fa9190612bc0565b610d79565b60405161050c919061281b565b60405180910390f35b61052f600480360381019061052a9190612add565b610ed7565b60405161053c919061281b565b60405180910390f35b61054d610f1f565b005b610557610f33565b005b61056161105c565b60405161056e9190612c21565b60405180910390f35b61057f611082565b60405161058c9190612ac2565b60405180910390f35b6105af60048036038101906105aa9190612bc0565b6110ac565b6040516105bc919061281b565b60405180910390f35b6105cd61112e565b6040516105da91906128c6565b60405180910390f35b6105fd60048036038101906105f89190612928565b6111c0565b005b6106076112bd565b6040516106149190612c5d565b60405180910390f35b6106256112e3565b6040516106359493929190612c78565b60405180910390f35b610658600480360381019061065391906129b3565b611307565b6040516106659190612a0e565b60405180910390f35b61068860048036038101906106839190612928565b61132a565b6040516106959190612a0e565b60405180910390f35b6106b860048036038101906106b39190612928565b61134a565b6040516106c5919061281b565b60405180910390f35b6106e860048036038101906106e39190612cbd565b61135e565b6040516106f5919061281b565b60405180910390f35b61071860048036038101906107139190612cbd565b61146e565b604051610725919061281b565b60405180910390f35b61074860048036038101906107439190612e45565b6114f2565b005b610752611728565b60405161075f9190612a98565b60405180910390f35b610782600480360381019061077d9190612add565b61173b565b60405161078f919061281b565b60405180910390f35b6107b260048036038101906107ad9190612928565b611765565b6040516107bf919061281b565b60405180910390f35b6107e260048036038101906107dd9190612add565b611779565b6040516107ef919061281b565b60405180910390f35b610812600480360381019061080d9190612add565b611795565b60405161081f919061281b565b60405180910390f35b610842600480360381019061083d9190612ea1565b6117a7565b60405161084f919061281b565b60405180910390f35b610872600480360381019061086d9190612add565b61182e565b60405161087f919061281b565b60405180910390f35b610890611846565b60405161089d91906128c6565b60405180910390f35b6108ae6118d4565b6040516108bb919061281b565b60405180910390f35b6108de60048036038101906108d99190612928565b6118da565b6040516108eb919061281b565b60405180910390f35b61090e60048036038101906109099190612add565b6118ee565b005b61092a60048036038101906109259190612add565b611974565b604051610937919061281b565b60405180910390f35b600061094a610bac565b73ffffffffffffffffffffffffffffffffffffffff166370a08231306040518263ffffffff1660e01b81526004016109829190612ac2565b602060405180830381865afa15801561099f573d6000803e3d6000fd5b505050506040513d601f19601f820116820180604052508101906109c39190612ef6565b905090565b6060600380546109d790612f52565b80601f0160208091040260200160405190810160405280929190818152602001828054610a0390612f52565b8015610a505780601f10610a2557610100808354040283529160200191610a50565b820191906000526020600020905b815481529060010190602001808311610a3357829003601f168201915b5050505050905090565b6000610a6782600061198c565b9050919050565b600080610a796119e5565b9050610a868185856119ed565b600191505092915050565b6000610a9e8260016119ff565b9050919050565b6000600254905090565b600080610aba6119e5565b9050610ac7858285611a58565b610ad2858585611aed565b60019150509392505050565b600e5481565b6000610aee611be1565b7f0000000000000000000000000000000000000000000000000000000000000000610b199190612fb2565b905090565b60118054610b2b90612f52565b80601f0160208091040260200160405190810160405280929190818152602001828054610b5790612f52565b8015610ba45780601f10610b7957610100808354040283529160200191610ba4565b820191906000526020600020905b815481529060010190602001808311610b8757829003601f168201915b505050505081565b60007f0000000000000000000000000000000000000000000000000000000000000000905090565b60007fffffffffffffffffffffffffffffffffffffffffffffffffffffffffffffffff9050919050565b600860009054906101000a900473ffffffffffffffffffffffffffffffffffffffff1673ffffffffffffffffffffffffffffffffffffffff16631e83409a336040518263ffffffff1660e01b8152600401610c599190612ac2565b600060405180830381600087803b158015610c7357600080fd5b505af1158015610c87573d6000803e3d6000fd5b5050505042600c60003373ffffffffffffffffffffffffffffffffffffffff1673ffffffffffffffffffffffffffffffffffffffff16815260200190815260200160002081905550565b600080600e5442610ce29190612fe7565b9050600063bbf81e00826008600d54610cfb919061301b565b610d05919061301b565b610d0f919061308c565b9050809250505090565b6000610d2682600061198c565b9050919050565b600660009054906101000a900473ffffffffffffffffffffffffffffffffffffffff1681565b600760009054906101000a900473ffffffffffffffffffffffffffffffffffffffff1681565b6000600760009054906101000a900473ffffffffffffffffffffffffffffffffffffffff1673ffffffffffffffffffffffffffffffffffffffff1663a200e5d0836040518263ffffffff1660e01b8152600401610dd69190612ac2565b602060405180830381865afa158015610df3573d6000803e3d6000fd5b505050506040513d601f19601f82011682018060405250810190610e1791906130e9565b610e56576040517f08c379a0000000000000000000000000000000000000000000000000000000008152600401610e4d90613162565b60405180910390fd5b6000610e628484611be6565b905083600d6000828254610e769190613182565b925050819055508273ffffffffffffffffffffffffffffffffffffffff167f90890809c654f11d6e72a28fa60149770a0d11ec6c92319d6ceb2bb0a4ea1a158583604051610ec59291906131b6565b60405180910390a28091505092915050565b60008060008373ffffffffffffffffffffffffffffffffffffffff1673ffffffffffffffffffffffffffffffffffffffff168152602001908152602001600020549050919050565b610f27611c68565b610f316000611cef565b565b610f3b611c68565b6000610f45610cd1565b905060008111610f8a576040517f08c379a0000000000000000000000000000000000000000000000000000000008152600401610f819061322b565b60405180910390fd5b600860009054906101000a900473ffffffffffffffffffffffffffffffffffffffff1673ffffffffffffffffffffffffffffffffffffffff1663fb93210830836040518363ffffffff1660e01b8152600401610fe792919061324b565b600060405180830381600087803b15801561100157600080fd5b505af1158015611015573d6000803e3d6000fd5b5050505042600e819055507ffe4996cd48c364c468cee70dd6b9061874ff01b05c5ea49311cbcabd9b9cb61581426040516110519291906131b6565b60405180910390a150565b600960009054906101000a900473ffffffffffffffffffffffffffffffffffffffff1681565b6000600560009054906101000a900473ffffffffffffffffffffffffffffffffffffffff16905090565b6000806110b88361173b565b905080841115611103578284826040517f284ff6670000000000000000000000000000000000000000000000000000000081526004016110fa93929190613274565b60405180910390fd5b600061110e8561134a565b905061112361111b6119e5565b858388611db5565b809250505092915050565b60606004805461113d90612f52565b80601f016020809104026020016040519081016040528092919081815260200182805461116990612f52565b80156111b65780601f1061118b576101008083540402835291602001916111b6565b820191906000526020600020905b81548152906001019060200180831161119957829003601f168201915b5050505050905090565b806111ca33610ed7565b101561120b576040517f08c379a0000000000000000000000000000000000000000000000000000000008152600401611202906132f7565b60405180910390fd5b6112153082611307565b5080600b60003373ffffffffffffffffffffffffffffffffffffffff1673ffffffffffffffffffffffffffffffffffffffff16815260200190815260200160002060008282546112659190613182565b925050819055503373ffffffffffffffffffffffffffffffffffffffff167f17040713250ec5f668a1c39e7939900e78558350dbaff0ebef34268dfa8ea4ac826040516112b2919061281b565b60405180910390a250565b600860009054906101000a900473ffffffffffffffffffffffffffffffffffffffff1681565b600080600080600d546103206112f7610aa5565b6000935093509350935090919293565b6000806113126119e5565b905061131f818585611aed565b600191505092915050565b600a6020528060005260406000206000915054906101000a900460ff1681565b600061135782600161198c565b9050919050565b6000600760009054906101000a900473ffffffffffffffffffffffffffffffffffffffff1673ffffffffffffffffffffffffffffffffffffffff1663a200e5d0836040518263ffffffff1660e01b81526004016113bb9190612ac2565b602060405180830381865afa1580156113d8573d6000803e3d6000fd5b505050506040513d601f19601f820116820180604052508101906113fc91906130e9565b61143b576040517f08c379a000000000000000000000000000000000000000000000000000000000815260040161143290613162565b60405180910390fd5b6000611448858585611e3f565b905084600d600082825461145c9190612fe7565b92505081905550809150509392505050565b60008061147a83611795565b9050808511156114c5578285826040517fb94abeec0000000000000000000000000000000000000000000000000000000081526004016114bc93929190613274565b60405180910390fd5b60006114d086610d19565b90506114e66114dd6119e5565b8686848a611ec3565b80925050509392505050565b600960009054906101000a900473ffffffffffffffffffffffffffffffffffffffff1673ffffffffffffffffffffffffffffffffffffffff1663b8e72af683338460405160200161154492919061324b565b6040516020818303038152906040526040518363ffffffff1660e01b815260040161157092919061336c565b6020604051808303816000875af115801561158f573d6000803e3d6000fd5b505050506040513d601f19601f820116820180604052508101906115b391906130e9565b6115f2576040517f08c379a00000000000000000000000000000000000000000000000000000000081526004016115e9906133ef565b60405180910390fd5b80600b60003373ffffffffffffffffffffffffffffffffffffffff1673ffffffffffffffffffffffffffffffffffffffff168152602001908152602001600020541015611674576040517f08c379a000000000000000000000000000000000000000000000000000000000815260040161166b9061345b565b60405180910390fd5b80600b60003373ffffffffffffffffffffffffffffffffffffffff1673ffffffffffffffffffffffffffffffffffffffff16815260200190815260200160002060008282546116c39190612fe7565b925050819055506116d43082611fa3565b3373ffffffffffffffffffffffffffffffffffffffff167f6e58dc0fc84f4d6a8240152177425dbe22b55f467fdbe06a501a46971a58aa74828460405161171c92919061347b565b60405180910390a25050565b601060009054906101000a900460ff1681565b60007fffffffffffffffffffffffffffffffffffffffffffffffffffffffffffffffff9050919050565b60006117728260006119ff565b9050919050565b600061178e61178783610ed7565b600061198c565b9050919050565b60006117a082610ed7565b9050919050565b6000600160008473ffffffffffffffffffffffffffffffffffffffff1673ffffffffffffffffffffffffffffffffffffffff16815260200190815260200160002060008373ffffffffffffffffffffffffffffffffffffffff1673ffffffffffffffffffffffffffffffffffffffff16815260200190815260200160002054905092915050565b600c6020528060005260406000206000915090505481565b600f805461185390612f52565b80601f016020809104026020016040519081016040528092919081815260200182805461187f90612f52565b80156118cc5780601f106118a1576101008083540402835291602001916118cc565b820191906000526020600020905b8154815290600101906020018083116118af57829003601f168201915b505050505081565b600d5481565b60006118e78260006119ff565b9050919050565b6118f6611c68565b600073ffffffffffffffffffffffffffffffffffffffff168173ffffffffffffffffffffffffffffffffffffffff16036119685760006040517f1e4fbdf700000000000000000000000000000000000000000000000000000000815260040161195f9190612ac2565b60405180910390fd5b61197181611cef565b50565b600b6020528060005260406000206000915090505481565b60006119dd600161199b610940565b6119a59190613182565b6119ad611be1565b600a6119b991906135de565b6119c1610aa5565b6119cb9190613182565b8486612025909392919063ffffffff16565b905092915050565b600033905090565b6119fa8383836001612074565b505050565b6000611a50611a0c611be1565b600a611a1891906135de565b611a20610aa5565b611a2a9190613182565b6001611a34610940565b611a3e9190613182565b8486612025909392919063ffffffff16565b905092915050565b6000611a6484846117a7565b90507fffffffffffffffffffffffffffffffffffffffffffffffffffffffffffffffff811015611ae75781811015611ad7578281836040517ffb8f41b2000000000000000000000000000000000000000000000000000000008152600401611ace93929190613274565b60405180910390fd5b611ae684848484036000612074565b5b50505050565b600073ffffffffffffffffffffffffffffffffffffffff168373ffffffffffffffffffffffffffffffffffffffff1603611b5f5760006040517f96c6fd1e000000000000000000000000000000000000000000000000000000008152600401611b569190612ac2565b60405180910390fd5b600073ffffffffffffffffffffffffffffffffffffffff168273ffffffffffffffffffffffffffffffffffffffff1603611bd15760006040517fec442f05000000000000000000000000000000000000000000000000000000008152600401611bc89190612ac2565b60405180910390fd5b611bdc83838361224b565b505050565b600090565b600080611bf283610bd4565b905080841115611c3d578284826040517f79012fb2000000000000000000000000000000000000000000000000000000008152600401611c3493929190613274565b60405180910390fd5b6000611c48856118da565b9050611c5d611c556119e5565b858784611db5565b809250505092915050565b611c706119e5565b73ffffffffffffffffffffffffffffffffffffffff16611c8e611082565b73ffffffffffffffffffffffffffffffffffffffff1614611ced57611cb16119e5565b6040517f118cdaa7000000000000000000000000000000000000000000000000000000008152600401611ce49190612ac2565b60405180910390fd5b565b6000600560009054906101000a900473ffffffffffffffffffffffffffffffffffffffff16905081600560006101000a81548173ffffffffffffffffffffffffffffffffffffffff021916908373ffffffffffffffffffffffffffffffffffffffff1602179055508173ffffffffffffffffffffffffffffffffffffffff168173ffffffffffffffffffffffffffffffffffffffff167f8be0079c531659141344cd1fd0a4f28419497f9722a3daafe3b4186f6b6457e060405160405180910390a35050565b611dc8611dc0610bac565b853085612470565b611dd283826124f2565b8273ffffffffffffffffffffffffffffffffffffffff168473ffffffffffffffffffffffffffffffffffffffff167fdcbc1c05240f31ff3ad067ef1ee35ce4997762752e3a095284754544f4c709d78484604051611e319291906131b6565b60405180910390a350505050565b600080611e4b83611779565b905080851115611e96578285826040517ffe9cceec000000000000000000000000000000000000000000000000000000008152600401611e8d93929190613274565b60405180910390fd5b6000611ea186610a91565b9050611eb7611eae6119e5565b86868985611ec3565b80925050509392505050565b8273ffffffffffffffffffffffffffffffffffffffff168573ffffffffffffffffffffffffffffffffffffffff1614611f0257611f01838683611a58565b5b611f0c8382611fa3565b611f1e611f17610bac565b8584612574565b8273ffffffffffffffffffffffffffffffffffffffff168473ffffffffffffffffffffffffffffffffffffffff168673ffffffffffffffffffffffffffffffffffffffff167ffbde797d201c681b91056529119e0b02407c7bb96a4a2c75c01fc9667232c8db8585604051611f949291906131b6565b60405180910390a45050505050565b600073ffffffffffffffffffffffffffffffffffffffff168273ffffffffffffffffffffffffffffffffffffffff16036120155760006040517f96c6fd1e00000000000000000000000000000000000000000000000000000000815260040161200c9190612ac2565b60405180910390fd5b6120218260008361224b565b5050565b6000612055612033836125f3565b801561205057506000848061204b5761204a61305d565b5b868809115b612621565b61206086868661262d565b61206a9190613182565b9050949350505050565b600073ffffffffffffffffffffffffffffffffffffffff168473ffffffffffffffffffffffffffffffffffffffff16036120e65760006040517fe602df050000000000000000000000000000000000000000000000000000000081526004016120dd9190612ac2565b60405180910390fd5b600073ffffffffffffffffffffffffffffffffffffffff168373ffffffffffffffffffffffffffffffffffffffff16036121585760006040517f94280d6200000000000000000000000000000000000000000000000000000000815260040161214f9190612ac2565b60405180910390fd5b81600160008673ffffffffffffffffffffffffffffffffffffffff1673ffffffffffffffffffffffffffffffffffffffff16815260200190815260200160002060008573ffffffffffffffffffffffffffffffffffffffff1673ffffffffffffffffffffffffffffffffffffffff168152602001908152602001600020819055508015612245578273ffffffffffffffffffffffffffffffffffffffff168473ffffffffffffffffffffffffffffffffffffffff167f8c5be1e5ebec7d5bd14f71427d1e84f3dd0314c0f7b2291e5b200ac8c7c3b9258460405161223c919061281b565b60405180910390a35b50505050565b600073ffffffffffffffffffffffffffffffffffffffff168373ffffffffffffffffffffffffffffffffffffffff160361229d5780600260008282546122919190613182565b92505081905550612370565b60008060008573ffffffffffffffffffffffffffffffffffffffff1673ffffffffffffffffffffffffffffffffffffffff16815260200190815260200160002054905081811015612329578381836040517fe450d38c00000000000000000000000000000000000000000000000000000000815260040161232093929190613274565b60405180910390fd5b8181036000808673ffffffffffffffffffffffffffffffffffffffff1673ffffffffffffffffffffffffffffffffffffffff16815260200190815260200160002081905550505b600073ffffffffffffffffffffffffffffffffffffffff168273ffffffffffffffffffffffffffffffffffffffff16036123b95780600260008282540392505081905550612406565b806000808473ffffffffffffffffffffffffffffffffffffffff1673ffffffffffffffffffffffffffffffffffffffff168152602001908152602001600020600082825401925050819055505b8173ffffffffffffffffffffffffffffffffffffffff168373ffffffffffffffffffffffffffffffffffffffff167fddf252ad1be2c89b69c2b068fc378daa952ba7f163c4a11628f55a4df523b3ef83604051612463919061281b565b60405180910390a3505050565b6124ec848573ffffffffffffffffffffffffffffffffffffffff166323b872dd8686866040516024016124a593929190613629565b604051602081830303815290604052915060e01b6020820180517bffffffffffffffffffffffffffffffffffffffffffffffffffffffff8381831617835250505050612715565b50505050565b600073ffffffffffffffffffffffffffffffffffffffff168273ffffffffffffffffffffffffffffffffffffffff16036125645760006040517fec442f0500000000000000000000000000000000000000000000000000000000815260040161255b9190612ac2565b60405180910390fd5b6125706000838361224b565b5050565b6125ee838473ffffffffffffffffffffffffffffffffffffffff1663a9059cbb85856040516024016125a792919061324b565b604051602081830303815290604052915060e01b6020820180517bffffffffffffffffffffffffffffffffffffffffffffffffffffffff8381831617835250505050612715565b505050565b60006001600283600381111561260c5761260b613660565b5b612616919061368f565b60ff16149050919050565b60008115159050919050565b600080600061263c86866127b7565b9150915060008203612662578381816126585761265761305d565b5b049250505061270e565b8184116126825761268161267c60008614601260116127d6565b6127f0565b5b600084868809905081811183039250808203915060008560000386169050808604955080830492506001818260000304019050808402831792506000600287600302189050808702600203810290508087026002038102905080870260020381029050808702600203810290508087026002038102905080870260020381029050808402955050505050505b9392505050565b600080602060008451602086016000885af180612738576040513d6000823e3d81fd5b3d92506000519150506000821461275357600181141561276f565b60008473ffffffffffffffffffffffffffffffffffffffff163b145b156127b157836040517f5274afe70000000000000000000000000000000000000000000000000000000081526004016127a89190612ac2565b60405180910390fd5b50505050565b6000806000198385098385029150818110828203039250509250929050565b60006127e184612621565b82841802821890509392505050565b634e487b71600052806020526024601cfd5b6000819050919050565b61281581612802565b82525050565b6000602082019050612830600083018461280c565b92915050565b600081519050919050565b600082825260208201905092915050565b60005b83811015612870578082015181840152602081019050612855565b60008484015250505050565b6000601f19601f8301169050919050565b600061289882612836565b6128a28185612841565b93506128b2818560208601612852565b6128bb8161287c565b840191505092915050565b600060208201905081810360008301526128e0818461288d565b905092915050565b6000604051905090565b600080fd5b600080fd5b61290581612802565b811461291057600080fd5b50565b600081359050612922816128fc565b92915050565b60006020828403121561293e5761293d6128f2565b5b600061294c84828501612913565b91505092915050565b600073ffffffffffffffffffffffffffffffffffffffff82169050919050565b600061298082612955565b9050919050565b61299081612975565b811461299b57600080fd5b50565b6000813590506129ad81612987565b92915050565b600080604083850312156129ca576129c96128f2565b5b60006129d88582860161299e565b92505060206129e985828601612913565b9150509250929050565b60008115159050919050565b612a08816129f3565b82525050565b6000602082019050612a2360008301846129ff565b92915050565b600080600060608486031215612a4257612a416128f2565b5b6000612a508682870161299e565b9350506020612a618682870161299e565b9250506040612a7286828701612913565b9150509250925092565b600060ff82169050919050565b612a9281612a7c565b82525050565b6000602082019050612aad6000830184612a89565b92915050565b612abc81612975565b82525050565b6000602082019050612ad76000830184612ab3565b92915050565b600060208284031215612af357612af26128f2565b5b6000612b018482850161299e565b91505092915050565b6000819050919050565b6000612b2f612b2a612b2584612955565b612b0a565b612955565b9050919050565b6000612b4182612b14565b9050919050565b6000612b5382612b36565b9050919050565b612b6381612b48565b82525050565b6000602082019050612b7e6000830184612b5a565b92915050565b6000612b8f82612b36565b9050919050565b612b9f81612b84565b82525050565b6000602082019050612bba6000830184612b96565b92915050565b60008060408385031215612bd757612bd66128f2565b5b6000612be585828601612913565b9250506020612bf68582860161299e565b9150509250929050565b6000612c0b82612b36565b9050919050565b612c1b81612c00565b82525050565b6000602082019050612c366000830184612c12565b92915050565b6000612c4782612b36565b9050919050565b612c5781612c3c565b82525050565b6000602082019050612c726000830184612c4e565b92915050565b6000608082019050612c8d600083018761280c565b612c9a602083018661280c565b612ca7604083018561280c565b612cb4606083018461280c565b95945050505050565b600080600060608486031215612cd657612cd56128f2565b5b6000612ce486828701612913565b9350506020612cf58682870161299e565b9250506040612d068682870161299e565b9150509250925092565b600080fd5b600080fd5b7f4e487b7100000000000000000000000000000000000000000000000000000000600052604160045260246000fd5b612d528261287c565b810181811067ffffffffffffffff82111715612d7157612d70612d1a565b5b80604052505050565b6000612d846128e8565b9050612d908282612d49565b919050565b600067ffffffffffffffff821115612db057612daf612d1a565b5b612db98261287c565b9050602081019050919050565b82818337600083830152505050565b6000612de8612de384612d95565b612d7a565b905082815260208101848484011115612e0457612e03612d15565b5b612e0f848285612dc6565b509392505050565b600082601f830112612e2c57612e2b612d10565b5b8135612e3c848260208601612dd5565b91505092915050565b60008060408385031215612e5c57612e5b6128f2565b5b600083013567ffffffffffffffff811115612e7a57612e796128f7565b5b612e8685828601612e17565b9250506020612e9785828601612913565b9150509250929050565b60008060408385031215612eb857612eb76128f2565b5b6000612ec68582860161299e565b9250506020612ed78582860161299e565b9150509250929050565b600081519050612ef0816128fc565b92915050565b600060208284031215612f0c57612f0b6128f2565b5b6000612f1a84828501612ee1565b91505092915050565b7f4e487b7100000000000000000000000000000000000000000000000000000000600052602260045260246000fd5b60006002820490506001821680612f6a57607f821691505b602082108103612f7d57612f7c612f23565b5b50919050565b7f4e487b7100000000000000000000000000000000000000000000000000000000600052601160045260246000fd5b6000612fbd82612a7c565b9150612fc883612a7c565b9250828201905060ff811115612fe157612fe0612f83565b5b92915050565b6000612ff282612802565b9150612ffd83612802565b925082820390508181111561301557613014612f83565b5b92915050565b600061302682612802565b915061303183612802565b925082820261303f81612802565b9150828204841483151761305657613055612f83565b5b5092915050565b7f4e487b7100000000000000000000000000000000000000000000000000000000600052601260045260246000fd5b600061309782612802565b91506130a283612802565b9250826130b2576130b161305d565b5b828204905092915050565b6130c6816129f3565b81146130d157600080fd5b50565b6000815190506130e3816130bd565b92915050565b6000602082840312156130ff576130fe6128f2565b5b600061310d848285016130d4565b91505092915050565b7f4e6f7420636f6d706c69616e7400000000000000000000000000000000000000600082015250565b600061314c600d83612841565b915061315782613116565b602082019050919050565b6000602082019050818103600083015261317b8161313f565b9050919050565b600061318d82612802565b915061319883612802565b92508282019050808211156131b0576131af612f83565b5b92915050565b60006040820190506131cb600083018561280c565b6131d8602083018461280c565b9392505050565b7f4e6f207969656c6420746f206469737472696275746500000000000000000000600082015250565b6000613215601683612841565b9150613220826131df565b602082019050919050565b6000602082019050818103600083015261324481613208565b9050919050565b60006040820190506132606000830185612ab3565b61326d602083018461280c565b9392505050565b60006060820190506132896000830186612ab3565b613296602083018561280c565b6132a3604083018461280c565b949350505050565b7f496e73756666696369656e742073686172657300000000000000000000000000600082015250565b60006132e1601383612841565b91506132ec826132ab565b602082019050919050565b60006020820190508181036000830152613310816132d4565b9050919050565b600081519050919050565b600082825260208201905092915050565b600061333e82613317565b6133488185613322565b9350613358818560208601612852565b6133618161287c565b840191505092915050565b600060408201905081810360008301526133868185613333565b9050818103602083015261339a8184613333565b90509392505050565b7f496e76616c69642070726f6f6600000000000000000000000000000000000000600082015250565b60006133d9600d83612841565b91506133e4826133a3565b602082019050919050565b60006020820190508181036000830152613408816133cc565b9050919050565b7f4e6f2070656e64696e67207769746864726177616c0000000000000000000000600082015250565b6000613445601583612841565b91506134508261340f565b602082019050919050565b6000602082019050818103600083015261347481613438565b9050919050565b6000604082019050613490600083018561280c565b81810360208301526134a28184613333565b90509392505050565b60008160011c9050919050565b6000808291508390505b6001851115613502578086048111156134de576134dd612f83565b5b60018516156134ed5780820291505b80810290506134fb856134ab565b94506134c2565b94509492505050565b60008261351b57600190506135d7565b8161352957600090506135d7565b816001811461353f576002811461354957613578565b60019150506135d7565b60ff84111561355b5761355a612f83565b5b8360020a91508482111561357257613571612f83565b5b506135d7565b5060208310610133831016604e8410600b84101617156135ad5782820a9050838111156135a8576135a7612f83565b5b6135d7565b6135ba84848460016134b8565b925090508184048111156135d1576135d0612f83565b5b81810290505b9392505050565b60006135e982612802565b91506135f483612a7c565b92506136217fffffffffffffffffffffffffffffffffffffffffffffffffffffffffffffffff848461350b565b905092915050565b600060608201905061363e6000830186612ab3565b61364b6020830185612ab3565b613658604083018461280c565b949350505050565b7f4e487b7100000000000000000000000000000000000000000000000000000000600052602160045260246000fd5b600061369a82612a7c565b91506136a583612a7c565b9250826136b5576136b461305d565b5b82820690509291505056fea264697066735822122059a2e2808569be4e1ccb7e2b9ad28ee709b8d5968e41644751886c7e23118bdc64736f6c63430008140033",
  "linkReferences": {},
  "deployedLinkReferences": {}
}