{
  "_format": "hh-sol-artifact-1",
  "contractName": "VaultContract",
  "sourceName": "contracts/Vault.sol",
  "abi": [
    {
      "inputs": [
        {
          "internalType": "contract AssetTokenizer",
          "name": "_assetTokenizer",
          "type": "address"
        },
        {
          "internalType": "contract ShareToken",
          "name": "_shareToken",
          "type": "address"
        },
        {
          "internalType": "contract ComplianceModule",
          "name": "_compliance",
          "type": "address"
        },
        {
          "internalType": "contract YieldDistributor",
          "name": "_yieldDistributor",
          "type": "address"
        },
        {
          "internalType": "contract ZKModule",
          "name": "_zkModule",
          "type": "address"
        }
      ],
      "stateMutability": "nonpayable",
      "type": "constructor"
    },
    {
      "inputs": [
        {
          "internalType": "address",
          "name": "owner",
          "type": "address"
        }
      ],
      "name": "OwnableInvalidOwner",
      "type": "error"
    },
    {
      "inputs": [
        {
          "internalType": "address",
          "name": "account",
          "type": "address"
        }
      ],
      "name": "OwnableUnauthorizedAccount",
      "type": "error"
    },
    {
      "anonymous": false,
      "inputs": [
        {
          "indexed": true,
          "internalType": "address",
          "name": "depositor",
          "type": "address"
        },
        {
          "indexed": false,
          "internalType": "uint256",
          "name": "assetId",
          "type": "uint256"
        }
      ],
      "name": "Deposit",
      "type": "event"
    },
    {
      "anonymous": false,
      "inputs": [
        {
          "indexed": true,
          "internalType": "address",
          "name": "previousOwner",
          "type": "address"
        },
        {
          "indexed": true,
          "internalType": "address",
          "name": "newOwner",
          "type": "address"
        }
      ],
      "name": "OwnershipTransferred",
      "type": "event"
    },
    {
      "anonymous": false,
      "inputs": [
        {
          "indexed": true,
          "internalType": "address",
          "name": "user",
          "type": "address"
        },
        {
          "indexed": false,
          "internalType": "uint256",
          "name": "shares",
          "type": "uint256"
        }
      ],
      "name": "WithdrawFulfilled",
      "type": "event"
    },
    {
      "anonymous": false,
      "inputs": [
        {
          "indexed": true,
          "internalType": "address",
          "name": "user",
          "type": "address"
        },
        {
          "indexed": false,
          "internalType": "uint256",
          "name": "shares",
          "type": "uint256"
        }
      ],
      "name": "WithdrawRequest",
      "type": "event"
    },
    {
      "inputs": [],
      "name": "assetTokenizer",
      "outputs": [
        {
          "internalType": "contract AssetTokenizer",
          "name": "",
          "type": "address"
        }
      ],
      "stateMutability": "view",
      "type": "function"
    },
    {
      "inputs": [],
      "name": "compliance",
      "outputs": [
        {
          "internalType": "contract ComplianceModule",
          "name": "",
          "type": "address"
        }
      ],
      "stateMutability": "view",
      "type": "function"
    },
    {
      "inputs": [
        {
          "internalType": "uint256",
          "name": "assetId",
          "type": "uint256"
        }
      ],
      "name": "depositAsset",
      "outputs": [],
      "stateMutability": "nonpayable",
      "type": "function"
    },
    {
      "inputs": [
        {
          "internalType": "uint256",
          "name": "",
          "type": "uint256"
        }
      ],
      "name": "depositedAssets",
      "outputs": [
        {
          "internalType": "bool",
          "name": "",
          "type": "bool"
        }
      ],
      "stateMutability": "view",
      "type": "function"
    },
    {
      "inputs": [],
      "name": "owner",
      "outputs": [
        {
          "internalType": "address",
          "name": "",
          "type": "address"
        }
      ],
      "stateMutability": "view",
      "type": "function"
    },
    {
      "inputs": [
        {
          "internalType": "address",
          "name": "",
          "type": "address"
        }
      ],
      "name": "pendingWithdrawals",
      "outputs": [
        {
          "internalType": "uint256",
          "name": "",
          "type": "uint256"
        }
      ],
      "stateMutability": "view",
      "type": "function"
    },
    {
      "inputs": [],
      "name": "renounceOwnership",
      "outputs": [],
      "stateMutability": "nonpayable",
      "type": "function"
    },
    {
      "inputs": [
        {
          "internalType": "uint256",
          "name": "shares",
          "type": "uint256"
        }
      ],
      "name": "requestWithdrawal",
      "outputs": [],
      "stateMutability": "nonpayable",
      "type": "function"
    },
    {
      "inputs": [
        {
          "internalType": "bytes",
          "name": "signedReceipt",
          "type": "bytes"
        }
      ],
      "name": "settleWithdrawal",
      "outputs": [],
      "stateMutability": "nonpayable",
      "type": "function"
    },
    {
      "inputs": [],
      "name": "shareToken",
      "outputs": [
        {
          "internalType": "contract ShareToken",
          "name": "",
          "type": "address"
        }
      ],
      "stateMutability": "view",
      "type": "function"
    },
    {
      "inputs": [
        {
          "internalType": "address",
          "name": "newOwner",
          "type": "address"
        }
      ],
      "name": "transferOwnership",
      "outputs": [],
      "stateMutability": "nonpayable",
      "type": "function"
    },
    {
      "inputs": [],
      "name": "yieldDistributor",
      "outputs": [
        {
          "internalType": "contract YieldDistributor",
          "name": "",
          "type": "address"
        }
      ],
      "stateMutability": "view",
      "type": "function"
    },
    {
      "inputs": [],
      "name": "zkModule",
      "outputs": [
        {
          "internalType": "contract ZKModule",
          "name": "",
          "type": "address"
        }
      ],
      "stateMutability": "view",
      "type": "function"
    }
  ],
  "bytecode": "0x60806040523480156200001157600080fd5b5060405162001d7638038062001d76833981810160405281019062000037919062000465565b33600073ffffffffffffffffffffffffffffffffffffffff168173ffffffffffffffffffffffffffffffffffffffff1603620000ad5760006040517f1e4fbdf7000000000000000000000000000000000000000000000000000000008152600401620000a49190620004fe565b60405180910390fd5b620000be816200020f60201b60201c565b5084600160006101000a81548173ffffffffffffffffffffffffffffffffffffffff021916908373ffffffffffffffffffffffffffffffffffffffff16021790555083600260006101000a81548173ffffffffffffffffffffffffffffffffffffffff021916908373ffffffffffffffffffffffffffffffffffffffff16021790555082600360006101000a81548173ffffffffffffffffffffffffffffffffffffffff021916908373ffffffffffffffffffffffffffffffffffffffff16021790555081600460006101000a81548173ffffffffffffffffffffffffffffffffffffffff021916908373ffffffffffffffffffffffffffffffffffffffff16021790555080600560006101000a81548173ffffffffffffffffffffffffffffffffffffffff021916908373ffffffffffffffffffffffffffffffffffffffff16021790555050505050506200051b565b60008060009054906101000a900473ffffffffffffffffffffffffffffffffffffffff169050816000806101000a81548173ffffffffffffffffffffffffffffffffffffffff021916908373ffffffffffffffffffffffffffffffffffffffff1602179055508173ffffffffffffffffffffffffffffffffffffffff168173ffffffffffffffffffffffffffffffffffffffff167f8be0079c531659141344cd1fd0a4f28419497f9722a3daafe3b4186f6b6457e060405160405180910390a35050565b600080fd5b600073ffffffffffffffffffffffffffffffffffffffff82169050919050565b60006200030582620002d8565b9050919050565b60006200031982620002f8565b9050919050565b6200032b816200030c565b81146200033757600080fd5b50565b6000815190506200034b8162000320565b92915050565b60006200035e82620002f8565b9050919050565b620003708162000351565b81146200037c57600080fd5b50565b600081519050620003908162000365565b92915050565b6000620003a382620002f8565b9050919050565b620003b58162000396565b8114620003c157600080fd5b50565b600081519050620003d581620003aa565b92915050565b6000620003e882620002f8565b9050919050565b620003fa81620003db565b81146200040657600080fd5b50565b6000815190506200041a81620003ef565b92915050565b60006200042d82620002f8565b9050919050565b6200043f8162000420565b81146200044b57600080fd5b50565b6000815190506200045f8162000434565b92915050565b600080600080600060a08688031215620004845762000483620002d3565b5b600062000494888289016200033a565b9550506020620004a7888289016200037f565b9450506040620004ba88828901620003c4565b9350506060620004cd8882890162000409565b9250506080620004e0888289016200044e565b9150509295509295909350565b620004f881620002f8565b82525050565b6000602082019050620005156000830184620004ed565b92915050565b61184b806200052b6000396000f3fe608060405234801561001057600080fd5b50600436106100cf5760003560e01c80639ee679e81161008c578063bc493fd611610066578063bc493fd6146101de578063f2fde38b146101fa578063f3f4370314610216578063fa2df41414610246576100cf565b80639ee679e814610174578063a38c2c3d14610190578063aa8d5705146101ae576100cf565b806352d91f9c146100d45780636290865d146100f25780636c9fa59e14610110578063715018a61461012e5780638c7bc6d0146101385780638da5cb5b14610156575b600080fd5b6100dc610262565b6040516100e99190610d8b565b60405180910390f35b6100fa610288565b6040516101079190610dc7565b60405180910390f35b6101186102ae565b6040516101259190610e03565b60405180910390f35b6101366102d4565b005b6101406102e8565b60405161014d9190610e3f565b60405180910390f35b61015e61030e565b60405161016b9190610e7b565b60405180910390f35b61018e60048036038101906101899190610ee0565b610337565b005b61019861055f565b6040516101a59190610f2e565b60405180910390f35b6101c860048036038101906101c39190610ee0565b610585565b6040516101d59190610f64565b60405180910390f35b6101f860048036038101906101f391906110c5565b6105a5565b005b610214600480360381019061020f919061113a565b610794565b005b610230600480360381019061022b919061113a565b61081a565b60405161023d9190611176565b60405180910390f35b610260600480360381019061025b9190610ee0565b610832565b005b600160009054906101000a900473ffffffffffffffffffffffffffffffffffffffff1681565b600360009054906101000a900473ffffffffffffffffffffffffffffffffffffffff1681565b600260009054906101000a900473ffffffffffffffffffffffffffffffffffffffff1681565b6102dc610bb9565b6102e66000610c40565b565b600560009054906101000a900473ffffffffffffffffffffffffffffffffffffffff1681565b60008060009054906101000a900473ffffffffffffffffffffffffffffffffffffffff16905090565b80600260009054906101000a900473ffffffffffffffffffffffffffffffffffffffff1673ffffffffffffffffffffffffffffffffffffffff166370a08231336040518263ffffffff1660e01b81526004016103939190610e7b565b602060405180830381865afa1580156103b0573d6000803e3d6000fd5b505050506040513d601f19601f820116820180604052508101906103d491906111a6565b1015610415576040517f08c379a000000000000000000000000000000000000000000000000000000000815260040161040c90611230565b60405180910390fd5b600260009054906101000a900473ffffffffffffffffffffffffffffffffffffffff1673ffffffffffffffffffffffffffffffffffffffff166323b872dd3330846040518463ffffffff1660e01b815260040161047493929190611250565b6020604051808303816000875af1158015610493573d6000803e3d6000fd5b505050506040513d601f19601f820116820180604052508101906104b791906112b3565b5080600760003373ffffffffffffffffffffffffffffffffffffffff1673ffffffffffffffffffffffffffffffffffffffff1681526020019081526020016000206000828254610507919061130f565b925050819055503373ffffffffffffffffffffffffffffffffffffffff167f17040713250ec5f668a1c39e7939900e78558350dbaff0ebef34268dfa8ea4ac826040516105549190611176565b60405180910390a250565b600460009054906101000a900473ffffffffffffffffffffffffffffffffffffffff1681565b60066020528060005260406000206000915054906101000a900460ff1681565b6105ad610bb9565b600080828060200190518101906105c49190611381565b9150915080600760008473ffffffffffffffffffffffffffffffffffffffff1673ffffffffffffffffffffffffffffffffffffffff16815260200190815260200160002054101561064a576040517f08c379a00000000000000000000000000000000000000000000000000000000081526004016106419061140d565b60405180910390fd5b80600760008473ffffffffffffffffffffffffffffffffffffffff1673ffffffffffffffffffffffffffffffffffffffff1681526020019081526020016000206000828254610699919061142d565b92505081905550600260009054906101000a900473ffffffffffffffffffffffffffffffffffffffff1673ffffffffffffffffffffffffffffffffffffffff1663a9059cbb83836040518363ffffffff1660e01b81526004016106fd929190611461565b6020604051808303816000875af115801561071c573d6000803e3d6000fd5b505050506040513d601f19601f8201168201806040525081019061074091906112b3565b508173ffffffffffffffffffffffffffffffffffffffff167ffbded071a5348837e0658949d85d74b38bb1402e96ac47b17144ae3185a520bd826040516107879190611176565b60405180910390a2505050565b61079c610bb9565b600073ffffffffffffffffffffffffffffffffffffffff168173ffffffffffffffffffffffffffffffffffffffff160361080e5760006040517f1e4fbdf70000000000000000000000000000000000000000000000000000000081526004016108059190610e7b565b60405180910390fd5b61081781610c40565b50565b60076020528060005260406000206000915090505481565b600360009054906101000a900473ffffffffffffffffffffffffffffffffffffffff1673ffffffffffffffffffffffffffffffffffffffff1663bad5b133336040518263ffffffff1660e01b815260040161088d91906114c1565b602060405180830381865afa1580156108aa573d6000803e3d6000fd5b505050506040513d601f19601f820116820180604052508101906108ce91906112b3565b61090d576040517f08c379a00000000000000000000000000000000000000000000000000000000081526004016109049061153b565b60405180910390fd5b6006600082815260200190815260200160002060009054906101000a900460ff161561096e576040517f08c379a0000000000000000000000000000000000000000000000000000000008152600401610965906115a7565b60405180910390fd5b600160009054906101000a900473ffffffffffffffffffffffffffffffffffffffff1673ffffffffffffffffffffffffffffffffffffffff1663bd2a58a282306040518363ffffffff1660e01b81526004016109cb9291906115c7565b600060405180830381600087803b1580156109e557600080fd5b505af11580156109f9573d6000803e3d6000fd5b5050505060016006600083815260200190815260200160002060006101000a81548160ff0219169083151502179055506000600160009054906101000a900473ffffffffffffffffffffffffffffffffffffffff1673ffffffffffffffffffffffffffffffffffffffff1663eac8f5b8836040518263ffffffff1660e01b8152600401610a869190611176565b600060405180830381865afa158015610aa3573d6000803e3d6000fd5b505050506040513d6000823e3d601f19601f82011682018060405250810190610acc91906117cc565b9050600081606001519050600260009054906101000a900473ffffffffffffffffffffffffffffffffffffffff1673ffffffffffffffffffffffffffffffffffffffff166340c10f1933836040518363ffffffff1660e01b8152600401610b34929190611461565b600060405180830381600087803b158015610b4e57600080fd5b505af1158015610b62573d6000803e3d6000fd5b505050503373ffffffffffffffffffffffffffffffffffffffff167fe1fffcc4923d04b559f4d29a8bfc6cda04eb5b0d3c460751c2402c5c5cc9109c84604051610bac9190611176565b60405180910390a2505050565b610bc1610d04565b73ffffffffffffffffffffffffffffffffffffffff16610bdf61030e565b73ffffffffffffffffffffffffffffffffffffffff1614610c3e57610c02610d04565b6040517f118cdaa7000000000000000000000000000000000000000000000000000000008152600401610c359190610e7b565b60405180910390fd5b565b60008060009054906101000a900473ffffffffffffffffffffffffffffffffffffffff169050816000806101000a81548173ffffffffffffffffffffffffffffffffffffffff021916908373ffffffffffffffffffffffffffffffffffffffff1602179055508173ffffffffffffffffffffffffffffffffffffffff168173ffffffffffffffffffffffffffffffffffffffff167f8be0079c531659141344cd1fd0a4f28419497f9722a3daafe3b4186f6b6457e060405160405180910390a35050565b600033905090565b600073ffffffffffffffffffffffffffffffffffffffff82169050919050565b6000819050919050565b6000610d51610d4c610d4784610d0c565b610d2c565b610d0c565b9050919050565b6000610d6382610d36565b9050919050565b6000610d7582610d58565b9050919050565b610d8581610d6a565b82525050565b6000602082019050610da06000830184610d7c565b92915050565b6000610db182610d58565b9050919050565b610dc181610da6565b82525050565b6000602082019050610ddc6000830184610db8565b92915050565b6000610ded82610d58565b9050919050565b610dfd81610de2565b82525050565b6000602082019050610e186000830184610df4565b92915050565b6000610e2982610d58565b9050919050565b610e3981610e1e565b82525050565b6000602082019050610e546000830184610e30565b92915050565b6000610e6582610d0c565b9050919050565b610e7581610e5a565b82525050565b6000602082019050610e906000830184610e6c565b92915050565b6000604051905090565b600080fd5b600080fd5b6000819050919050565b610ebd81610eaa565b8114610ec857600080fd5b50565b600081359050610eda81610eb4565b92915050565b600060208284031215610ef657610ef5610ea0565b5b6000610f0484828501610ecb565b91505092915050565b6000610f1882610d58565b9050919050565b610f2881610f0d565b82525050565b6000602082019050610f436000830184610f1f565b92915050565b60008115159050919050565b610f5e81610f49565b82525050565b6000602082019050610f796000830184610f55565b92915050565b600080fd5b600080fd5b6000601f19601f8301169050919050565b7f4e487b7100000000000000000000000000000000000000000000000000000000600052604160045260246000fd5b610fd282610f89565b810181811067ffffffffffffffff82111715610ff157610ff0610f9a565b5b80604052505050565b6000611004610e96565b90506110108282610fc9565b919050565b600067ffffffffffffffff8211156110305761102f610f9a565b5b61103982610f89565b9050602081019050919050565b82818337600083830152505050565b600061106861106384611015565b610ffa565b90508281526020810184848401111561108457611083610f84565b5b61108f848285611046565b509392505050565b600082601f8301126110ac576110ab610f7f565b5b81356110bc848260208601611055565b91505092915050565b6000602082840312156110db576110da610ea0565b5b600082013567ffffffffffffffff8111156110f9576110f8610ea5565b5b61110584828501611097565b91505092915050565b61111781610e5a565b811461112257600080fd5b50565b6000813590506111348161110e565b92915050565b6000602082840312156111505761114f610ea0565b5b600061115e84828501611125565b91505092915050565b61117081610eaa565b82525050565b600060208201905061118b6000830184611167565b92915050565b6000815190506111a081610eb4565b92915050565b6000602082840312156111bc576111bb610ea0565b5b60006111ca84828501611191565b91505092915050565b600082825260208201905092915050565b7f496e73756666696369656e742073686172657300000000000000000000000000600082015250565b600061121a6013836111d3565b9150611225826111e4565b602082019050919050565b600060208201905081810360008301526112498161120d565b9050919050565b60006060820190506112656000830186610e6c565b6112726020830185610e6c565b61127f6040830184611167565b949350505050565b61129081610f49565b811461129b57600080fd5b50565b6000815190506112ad81611287565b92915050565b6000602082840312156112c9576112c8610ea0565b5b60006112d78482850161129e565b91505092915050565b7f4e487b7100000000000000000000000000000000000000000000000000000000600052601160045260246000fd5b600061131a82610eaa565b915061132583610eaa565b925082820190508082111561133d5761133c6112e0565b5b92915050565b600061134e82610d0c565b9050919050565b61135e81611343565b811461136957600080fd5b50565b60008151905061137b81611355565b92915050565b6000806040838503121561139857611397610ea0565b5b60006113a68582860161136c565b92505060206113b785828601611191565b9150509250929050565b7f4e6f2070656e64696e67207769746864726177616c0000000000000000000000600082015250565b60006113f76015836111d3565b9150611402826113c1565b602082019050919050565b60006020820190508181036000830152611426816113ea565b9050919050565b600061143882610eaa565b915061144383610eaa565b925082820390508181111561145b5761145a6112e0565b5b92915050565b60006040820190506114766000830185610e6c565b6114836020830184611167565b9392505050565b600082825260208201905092915050565b50565b60006114ab60008361148a565b91506114b68261149b565b600082019050919050565b60006040820190506114d66000830184610e6c565b81810360208301526114e78161149e565b905092915050565b7f4e6f7420636f6d706c69616e7400000000000000000000000000000000000000600082015250565b6000611525600d836111d3565b9150611530826114ef565b602082019050919050565b6000602082019050818103600083015261155481611518565b9050919050565b7f416c7265616479206465706f7369746564000000000000000000000000000000600082015250565b60006115916011836111d3565b915061159c8261155b565b602082019050919050565b600060208201905081810360008301526115c081611584565b9050919050565b60006040820190506115dc6000830185611167565b6115e96020830184610e6c565b9392505050565b600080fd5b600080fd5b600067ffffffffffffffff82111561161557611614610f9a565b5b61161e82610f89565b9050602081019050919050565b60005b8381101561164957808201518184015260208101905061162e565b60008484015250505050565b6000611668611663846115fa565b610ffa565b90508281526020810184848401111561168457611683610f84565b5b61168f84828561162b565b509392505050565b600082601f8301126116ac576116ab610f7f565b5b81516116bc848260208601611655565b91505092915050565b6000815190506116d48161110e565b92915050565b6000819050919050565b6116ed816116da565b81146116f857600080fd5b50565b60008151905061170a816116e4565b92915050565b600060c08284031215611726576117256115f0565b5b61173060c0610ffa565b9050600082015167ffffffffffffffff8111156117505761174f6115f5565b5b61175c84828501611697565b6000830152506020611770848285016116c5565b6020830152506040611784848285016116fb565b604083015250606061179884828501611191565b60608301525060806117ac84828501611191565b60808301525060a06117c08482850161129e565b60a08301525092915050565b6000602082840312156117e2576117e1610ea0565b5b600082015167ffffffffffffffff811115611800576117ff610ea5565b5b61180c84828501611710565b9150509291505056fea2646970667358221220402ee9f198bd9d12bb83a00a2382bdc35ec257792515b990f362df4a4caae93864736f6c63430008140033",
  "linkReferences": {},
  "deployedLinkReferences": {}
}