{
  "_format": "hh-sol-artifact-1",
  "contractName": "AssetTokenizer",
  "sourceName": "contracts/AssetTokenizer.sol",
  "abi": [
    {
      "inputs": [],
      "stateMutability": "nonpayable",
      "type": "constructor"
    },
    {
      "inputs": [
        {
          "internalType": "address",
          "name": "owner",
          "type": "address"
        }
      ],
      "name": "OwnableInvalidOwner",
      "type": "error"
    },
    {
      "inputs": [
        {
          "internalType": "address",
          "name": "account",
          "type": "address"
        }
      ],
      "name": "OwnableUnauthorizedAccount",
      "type": "error"
    },
    {
      "anonymous": false,
      "inputs": [
        {
          "indexed": true,
          "internalType": "uint256",
          "name": "assetId",
          "type": "uint256"
        },
        {
          "indexed": true,
          "internalType": "address",
          "name": "issuer",
          "type": "address"
        },
        {
          "indexed": false,
          "internalType": "string",
          "name": "uri",
          "type": "string"
        }
      ],
      "name": "AssetMinted",
      "type": "event"
    },
    {
      "anonymous": false,
      "inputs": [
        {
          "indexed": true,
          "internalType": "address",
          "name": "previousOwner",
          "type": "address"
        },
        {
          "indexed": true,
          "internalType": "address",
          "name": "newOwner",
          "type": "address"
        }
      ],
      "name": "OwnershipTransferred",
      "type": "event"
    },
    {
      "inputs": [
        {
          "internalType": "uint256",
          "name": "",
          "type": "uint256"
        }
      ],
      "name": "assets",
      "outputs": [
        {
          "internalType": "string",
          "name": "uri",
          "type": "string"
        },
        {
          "internalType": "address",
          "name": "issuer",
          "type": "address"
        },
        {
          "internalType": "bytes32",
          "name": "proofHash",
          "type": "bytes32"
        },
        {
          "internalType": "uint256",
          "name": "valuation",
          "type": "uint256"
        },
        {
          "internalType": "uint256",
          "name": "maturity",
          "type": "uint256"
        },
        {
          "internalType": "bool",
          "name": "locked",
          "type": "bool"
        }
      ],
      "stateMutability": "view",
      "type": "function"
    },
    {
      "inputs": [
        {
          "internalType": "uint256",
          "name": "assetId",
          "type": "uint256"
        }
      ],
      "name": "getAsset",
      "outputs": [
        {
          "components": [
            {
              "internalType": "string",
              "name": "uri",
              "type": "string"
            },
            {
              "internalType": "address",
              "name": "issuer",
              "type": "address"
            },
            {
              "internalType": "bytes32",
              "name": "proofHash",
              "type": "bytes32"
            },
            {
              "internalType": "uint256",
              "name": "valuation",
              "type": "uint256"
            },
            {
              "internalType": "uint256",
              "name": "maturity",
              "type": "uint256"
            },
            {
              "internalType": "bool",
              "name": "locked",
              "type": "bool"
            }
          ],
          "internalType": "struct AssetTokenizer.Asset",
          "name": "",
          "type": "tuple"
        }
      ],
      "stateMutability": "view",
      "type": "function"
    },
    {
      "inputs": [
        {
          "internalType": "uint256",
          "name": "assetId",
          "type": "uint256"
        },
        {
          "internalType": "address",
          "name": "vault",
          "type": "address"
        }
      ],
      "name": "lockAssetForVault",
      "outputs": [],
      "stateMutability": "nonpayable",
      "type": "function"
    },
    {
      "inputs": [
        {
          "internalType": "string",
          "name": "uri",
          "type": "string"
        },
        {
          "internalType": "address",
          "name": "issuer",
          "type": "address"
        },
        {
          "internalType": "bytes32",
          "name": "proofHash",
          "type": "bytes32"
        },
        {
          "internalType": "uint256",
          "name": "valuation",
          "type": "uint256"
        },
        {
          "internalType": "uint256",
          "name": "maturity",
          "type": "uint256"
        }
      ],
      "name": "mintAsset",
      "outputs": [
        {
          "internalType": "uint256",
          "name": "",
          "type": "uint256"
        }
      ],
      "stateMutability": "nonpayable",
      "type": "function"
    },
    {
      "inputs": [],
      "name": "owner",
      "outputs": [
        {
          "internalType": "address",
          "name": "",
          "type": "address"
        }
      ],
      "stateMutability": "view",
      "type": "function"
    },
    {
      "inputs": [],
      "name": "renounceOwnership",
      "outputs": [],
      "stateMutability": "nonpayable",
      "type": "function"
    },
    {
      "inputs": [
        {
          "internalType": "address",
          "name": "newOwner",
          "type": "address"
        }
      ],
      "name": "transferOwnership",
      "outputs": [],
      "stateMutability": "nonpayable",
      "type": "function"
    }
  ],
  "bytecode": "0x60806040523480156200001157600080fd5b5033600073ffffffffffffffffffffffffffffffffffffffff168173ffffffffffffffffffffffffffffffffffffffff1603620000885760006040517f1e4fbdf70000000000000000000000000000000000000000000000000000000081526004016200007f9190620001a9565b60405180910390fd5b6200009981620000a060201b60201c565b50620001c6565b60008060009054906101000a900473ffffffffffffffffffffffffffffffffffffffff169050816000806101000a81548173ffffffffffffffffffffffffffffffffffffffff021916908373ffffffffffffffffffffffffffffffffffffffff1602179055508173ffffffffffffffffffffffffffffffffffffffff168173ffffffffffffffffffffffffffffffffffffffff167f8be0079c531659141344cd1fd0a4f28419497f9722a3daafe3b4186f6b6457e060405160405180910390a35050565b600073ffffffffffffffffffffffffffffffffffffffff82169050919050565b6000620001918262000164565b9050919050565b620001a38162000184565b82525050565b6000602082019050620001c0600083018462000198565b92915050565b6112ad80620001d66000396000f3fe608060405234801561001057600080fd5b506004361061007d5760003560e01c8063bd2a58a21161005b578063bd2a58a2146100da578063cf35bdd0146100f6578063eac8f5b81461012b578063f2fde38b1461015b5761007d565b8063715018a6146100825780638da5cb5b1461008c578063b473cd54146100aa575b600080fd5b61008a610177565b005b61009461018b565b6040516100a191906108ea565b60405180910390f35b6100c460048036038101906100bf9190610af7565b6101b4565b6040516100d19190610b9d565b60405180910390f35b6100f460048036038101906100ef9190610bb8565b61032c565b005b610110600480360381019061010b9190610bf8565b610440565b60405161012296959493929190610cce565b60405180910390f35b61014560048036038101906101409190610bf8565b610531565b6040516101529190610e45565b60405180910390f35b61017560048036038101906101709190610e67565b61067f565b005b61017f610705565b610189600061078c565b565b60008060009054906101000a900473ffffffffffffffffffffffffffffffffffffffff16905090565b60006101be610705565b6000600160008154809291906101d390610ec3565b9190505590506040518060c001604052808881526020018773ffffffffffffffffffffffffffffffffffffffff168152602001868152602001858152602001848152602001600015158152506002600083815260200190815260200160002060008201518160000190816102479190611117565b5060208201518160010160006101000a81548173ffffffffffffffffffffffffffffffffffffffff021916908373ffffffffffffffffffffffffffffffffffffffff16021790555060408201518160020155606082015181600301556080820151816004015560a08201518160050160006101000a81548160ff0219169083151502179055509050508573ffffffffffffffffffffffffffffffffffffffff16817fa30dd43fc057b356acd774161b6c8743df78c9bd58d7f492dd56d00121dda6b58960405161031791906111e9565b60405180910390a38091505095945050505050565b6002600083815260200190815260200160002060010160009054906101000a900473ffffffffffffffffffffffffffffffffffffffff1673ffffffffffffffffffffffffffffffffffffffff163373ffffffffffffffffffffffffffffffffffffffff1614806103ce575061039f61018b565b73ffffffffffffffffffffffffffffffffffffffff163373ffffffffffffffffffffffffffffffffffffffff16145b61040d576040517f08c379a000000000000000000000000000000000000000000000000000000000815260040161040490611257565b60405180910390fd5b60016002600084815260200190815260200160002060050160006101000a81548160ff0219169083151502179055505050565b600260205280600052604060002060009150905080600001805461046390610f3a565b80601f016020809104026020016040519081016040528092919081815260200182805461048f90610f3a565b80156104dc5780601f106104b1576101008083540402835291602001916104dc565b820191906000526020600020905b8154815290600101906020018083116104bf57829003601f168201915b5050505050908060010160009054906101000a900473ffffffffffffffffffffffffffffffffffffffff16908060020154908060030154908060040154908060050160009054906101000a900460ff16905086565b610539610858565b600260008381526020019081526020016000206040518060c001604052908160008201805461056790610f3a565b80601f016020809104026020016040519081016040528092919081815260200182805461059390610f3a565b80156105e05780601f106105b5576101008083540402835291602001916105e0565b820191906000526020600020905b8154815290600101906020018083116105c357829003601f168201915b505050505081526020016001820160009054906101000a900473ffffffffffffffffffffffffffffffffffffffff1673ffffffffffffffffffffffffffffffffffffffff1673ffffffffffffffffffffffffffffffffffffffff1681526020016002820154815260200160038201548152602001600482015481526020016005820160009054906101000a900460ff1615151515815250509050919050565b610687610705565b600073ffffffffffffffffffffffffffffffffffffffff168173ffffffffffffffffffffffffffffffffffffffff16036106f95760006040517f1e4fbdf70000000000000000000000000000000000000000000000000000000081526004016106f091906108ea565b60405180910390fd5b6107028161078c565b50565b61070d610850565b73ffffffffffffffffffffffffffffffffffffffff1661072b61018b565b73ffffffffffffffffffffffffffffffffffffffff161461078a5761074e610850565b6040517f118cdaa700000000000000000000000000000000000000000000000000000000815260040161078191906108ea565b60405180910390fd5b565b60008060009054906101000a900473ffffffffffffffffffffffffffffffffffffffff169050816000806101000a81548173ffffffffffffffffffffffffffffffffffffffff021916908373ffffffffffffffffffffffffffffffffffffffff1602179055508173ffffffffffffffffffffffffffffffffffffffff168173ffffffffffffffffffffffffffffffffffffffff167f8be0079c531659141344cd1fd0a4f28419497f9722a3daafe3b4186f6b6457e060405160405180910390a35050565b600033905090565b6040518060c0016040528060608152602001600073ffffffffffffffffffffffffffffffffffffffff1681526020016000801916815260200160008152602001600081526020016000151581525090565b600073ffffffffffffffffffffffffffffffffffffffff82169050919050565b60006108d4826108a9565b9050919050565b6108e4816108c9565b82525050565b60006020820190506108ff60008301846108db565b92915050565b6000604051905090565b600080fd5b600080fd5b600080fd5b600080fd5b6000601f19601f8301169050919050565b7f4e487b7100000000000000000000000000000000000000000000000000000000600052604160045260246000fd5b61096c82610923565b810181811067ffffffffffffffff8211171561098b5761098a610934565b5b80604052505050565b600061099e610905565b90506109aa8282610963565b919050565b600067ffffffffffffffff8211156109ca576109c9610934565b5b6109d382610923565b9050602081019050919050565b82818337600083830152505050565b6000610a026109fd846109af565b610994565b905082815260208101848484011115610a1e57610a1d61091e565b5b610a298482856109e0565b509392505050565b600082601f830112610a4657610a45610919565b5b8135610a568482602086016109ef565b91505092915050565b610a68816108c9565b8114610a7357600080fd5b50565b600081359050610a8581610a5f565b92915050565b6000819050919050565b610a9e81610a8b565b8114610aa957600080fd5b50565b600081359050610abb81610a95565b92915050565b6000819050919050565b610ad481610ac1565b8114610adf57600080fd5b50565b600081359050610af181610acb565b92915050565b600080600080600060a08688031215610b1357610b1261090f565b5b600086013567ffffffffffffffff811115610b3157610b30610914565b5b610b3d88828901610a31565b9550506020610b4e88828901610a76565b9450506040610b5f88828901610aac565b9350506060610b7088828901610ae2565b9250506080610b8188828901610ae2565b9150509295509295909350565b610b9781610ac1565b82525050565b6000602082019050610bb26000830184610b8e565b92915050565b60008060408385031215610bcf57610bce61090f565b5b6000610bdd85828601610ae2565b9250506020610bee85828601610a76565b9150509250929050565b600060208284031215610c0e57610c0d61090f565b5b6000610c1c84828501610ae2565b91505092915050565b600081519050919050565b600082825260208201905092915050565b60005b83811015610c5f578082015181840152602081019050610c44565b60008484015250505050565b6000610c7682610c25565b610c808185610c30565b9350610c90818560208601610c41565b610c9981610923565b840191505092915050565b610cad81610a8b565b82525050565b60008115159050919050565b610cc881610cb3565b82525050565b600060c0820190508181036000830152610ce88189610c6b565b9050610cf760208301886108db565b610d046040830187610ca4565b610d116060830186610b8e565b610d1e6080830185610b8e565b610d2b60a0830184610cbf565b979650505050505050565b600082825260208201905092915050565b6000610d5282610c25565b610d5c8185610d36565b9350610d6c818560208601610c41565b610d7581610923565b840191505092915050565b610d89816108c9565b82525050565b610d9881610a8b565b82525050565b610da781610ac1565b82525050565b610db681610cb3565b82525050565b600060c0830160008301518482036000860152610dd98282610d47565b9150506020830151610dee6020860182610d80565b506040830151610e016040860182610d8f565b506060830151610e146060860182610d9e565b506080830151610e276080860182610d9e565b5060a0830151610e3a60a0860182610dad565b508091505092915050565b60006020820190508181036000830152610e5f8184610dbc565b905092915050565b600060208284031215610e7d57610e7c61090f565b5b6000610e8b84828501610a76565b91505092915050565b7f4e487b7100000000000000000000000000000000000000000000000000000000600052601160045260246000fd5b6000610ece82610ac1565b91507fffffffffffffffffffffffffffffffffffffffffffffffffffffffffffffffff8203610f0057610eff610e94565b5b600182019050919050565b7f4e487b7100000000000000000000000000000000000000000000000000000000600052602260045260246000fd5b60006002820490506001821680610f5257607f821691505b602082108103610f6557610f64610f0b565b5b50919050565b60008190508160005260206000209050919050565b60006020601f8301049050919050565b600082821b905092915050565b600060088302610fcd7fffffffffffffffffffffffffffffffffffffffffffffffffffffffffffffffff82610f90565b610fd78683610f90565b95508019841693508086168417925050509392505050565b6000819050919050565b600061101461100f61100a84610ac1565b610fef565b610ac1565b9050919050565b6000819050919050565b61102e83610ff9565b61104261103a8261101b565b848454610f9d565b825550505050565b600090565b61105761104a565b611062818484611025565b505050565b5b818110156110865761107b60008261104f565b600181019050611068565b5050565b601f8211156110cb5761109c81610f6b565b6110a584610f80565b810160208510156110b4578190505b6110c86110c085610f80565b830182611067565b50505b505050565b600082821c905092915050565b60006110ee600019846008026110d0565b1980831691505092915050565b600061110783836110dd565b9150826002028217905092915050565b61112082610c25565b67ffffffffffffffff81111561113957611138610934565b5b6111438254610f3a565b61114e82828561108a565b600060209050601f831160018114611181576000841561116f578287015190505b61117985826110fb565b8655506111e1565b601f19841661118f86610f6b565b60005b828110156111b757848901518255600182019150602085019450602081019050611192565b868310156111d457848901516111d0601f8916826110dd565b8355505b6001600288020188555050505b505050505050565b600060208201905081810360008301526112038184610c6b565b905092915050565b7f4e6f7420617574686f72697a6564000000000000000000000000000000000000600082015250565b6000611241600e83610c30565b915061124c8261120b565b602082019050919050565b6000602082019050818103600083015261127081611234565b905091905056fea2646970667358221220aad5471082f7eb9bfe18d9350160a7e50763e66ece09f59d38b5182cbff3cefc64736f6c63430008140033",
  "linkReferences": {},
  "deployedLinkReferences": {}
}