{
  "_format": "hh-sol-artifact-1",
  "contractName": "AssetTokenizer",
  "sourceName": "contracts/AssetTokenizer.sol",
  "abi": [
    {
      "inputs": [],
      "stateMutability": "nonpayable",
      "type": "constructor"
    },
    {
      "inputs": [
        {
          "internalType": "address",
          "name": "sender",
          "type": "address"
        },
        {
          "internalType": "uint256",
          "name": "balance",
          "type": "uint256"
        },
        {
          "internalType": "uint256",
          "name": "needed",
          "type": "uint256"
        },
        {
          "internalType": "uint256",
          "name": "tokenId",
          "type": "uint256"
        }
      ],
      "name": "ERC1155InsufficientBalance",
      "type": "error"
    },
    {
      "inputs": [
        {
          "internalType": "address",
          "name": "approver",
          "type": "address"
        }
      ],
      "name": "ERC1155InvalidApprover",
      "type": "error"
    },
    {
      "inputs": [
        {
          "internalType": "uint256",
          "name": "idsLength",
          "type": "uint256"
        },
        {
          "internalType": "uint256",
          "name": "valuesLength",
          "type": "uint256"
        }
      ],
      "name": "ERC1155InvalidArrayLength",
      "type": "error"
    },
    {
      "inputs": [
        {
          "internalType": "address",
          "name": "operator",
          "type": "address"
        }
      ],
      "name": "ERC1155InvalidOperator",
      "type": "error"
    },
    {
      "inputs": [
        {
          "internalType": "address",
          "name": "receiver",
          "type": "address"
        }
      ],
      "name": "ERC1155InvalidReceiver",
      "type": "error"
    },
    {
      "inputs": [
        {
          "internalType": "address",
          "name": "sender",
          "type": "address"
        }
      ],
      "name": "ERC1155InvalidSender",
      "type": "error"
    },
    {
      "inputs": [
        {
          "internalType": "address",
          "name": "operator",
          "type": "address"
        },
        {
          "internalType": "address",
          "name": "owner",
          "type": "address"
        }
      ],
      "name": "ERC1155MissingApprovalForAll",
      "type": "error"
    },
    {
      "inputs": [
        {
          "internalType": "address",
          "name": "owner",
          "type": "address"
        }
      ],
      "name": "OwnableInvalidOwner",
      "type": "error"
    },
    {
      "inputs": [
        {
          "internalType": "address",
          "name": "account",
          "type": "address"
        }
      ],
      "name": "OwnableUnauthorizedAccount",
      "type": "error"
    },
    {
      "anonymous": false,
      "inputs": [
        {
          "indexed": true,
          "internalType": "address",
          "name": "account",
          "type": "address"
        },
        {
          "indexed": true,
          "internalType": "address",
          "name": "operator",
          "type": "address"
        },
        {
          "indexed": false,
          "internalType": "bool",
          "name": "approved",
          "type": "bool"
        }
      ],
      "name": "ApprovalForAll",
      "type": "event"
    },
    {
      "anonymous": false,
      "inputs": [
        {
          "indexed": true,
          "internalType": "uint256",
          "name": "assetId",
          "type": "uint256"
        },
        {
          "indexed": true,
          "internalType": "address",
          "name": "issuer",
          "type": "address"
        },
        {
          "indexed": false,
          "internalType": "string",
          "name": "metadataURI",
          "type": "string"
        },
        {
          "indexed": false,
          "internalType": "bytes",
          "name": "attestationHash",
          "type": "bytes"
        }
      ],
      "name": "AssetMinted",
      "type": "event"
    },
    {
      "anonymous": false,
      "inputs": [
        {
          "indexed": true,
          "internalType": "address",
          "name": "complianceModule",
          "type": "address"
        },
        {
          "indexed": false,
          "internalType": "bool",
          "name": "enabled",
          "type": "bool"
        }
      ],
      "name": "ComplianceModuleSet",
      "type": "event"
    },
    {
      "anonymous": false,
      "inputs": [
        {
          "indexed": true,
          "internalType": "address",
          "name": "previousOwner",
          "type": "address"
        },
        {
          "indexed": true,
          "internalType": "address",
          "name": "newOwner",
          "type": "address"
        }
      ],
      "name": "OwnershipTransferred",
      "type": "event"
    },
    {
      "anonymous": false,
      "inputs": [
        {
          "indexed": true,
          "internalType": "address",
          "name": "operator",
          "type": "address"
        },
        {
          "indexed": true,
          "internalType": "address",
          "name": "from",
          "type": "address"
        },
        {
          "indexed": true,
          "internalType": "address",
          "name": "to",
          "type": "address"
        },
        {
          "indexed": false,
          "internalType": "uint256[]",
          "name": "ids",
          "type": "uint256[]"
        },
        {
          "indexed": false,
          "internalType": "uint256[]",
          "name": "values",
          "type": "uint256[]"
        }
      ],
      "name": "TransferBatch",
      "type": "event"
    },
    {
      "anonymous": false,
      "inputs": [
        {
          "indexed": true,
          "internalType": "address",
          "name": "operator",
          "type": "address"
        },
        {
          "indexed": true,
          "internalType": "address",
          "name": "from",
          "type": "address"
        },
        {
          "indexed": true,
          "internalType": "address",
          "name": "to",
          "type": "address"
        },
        {
          "indexed": false,
          "internalType": "uint256",
          "name": "id",
          "type": "uint256"
        },
        {
          "indexed": false,
          "internalType": "uint256",
          "name": "value",
          "type": "uint256"
        }
      ],
      "name": "TransferSingle",
      "type": "event"
    },
    {
      "anonymous": false,
      "inputs": [
        {
          "indexed": false,
          "internalType": "string",
          "name": "value",
          "type": "string"
        },
        {
          "indexed": true,
          "internalType": "uint256",
          "name": "id",
          "type": "uint256"
        }
      ],
      "name": "URI",
      "type": "event"
    },
    {
      "inputs": [
        {
          "internalType": "uint256",
          "name": "",
          "type": "uint256"
        }
      ],
      "name": "assets",
      "outputs": [
        {
          "internalType": "string",
          "name": "metadataURI",
          "type": "string"
        },
        {
          "internalType": "address",
          "name": "issuer",
          "type": "address"
        },
        {
          "internalType": "bytes",
          "name": "attestationHash",
          "type": "bytes"
        },
        {
          "internalType": "uint256",
          "name": "valuation",
          "type": "uint256"
        },
        {
          "internalType": "uint256",
          "name": "maturity",
          "type": "uint256"
        },
        {
          "internalType": "bool",
          "name": "locked",
          "type": "bool"
        },
        {
          "internalType": "string",
          "name": "assetType",
          "type": "string"
        }
      ],
      "stateMutability": "view",
      "type": "function"
    },
    {
      "inputs": [
        {
          "internalType": "address",
          "name": "account",
          "type": "address"
        },
        {
          "internalType": "uint256",
          "name": "id",
          "type": "uint256"
        }
      ],
      "name": "balanceOf",
      "outputs": [
        {
          "internalType": "uint256",
          "name": "",
          "type": "uint256"
        }
      ],
      "stateMutability": "view",
      "type": "function"
    },
    {
      "inputs": [
        {
          "internalType": "address[]",
          "name": "accounts",
          "type": "address[]"
        },
        {
          "internalType": "uint256[]",
          "name": "ids",
          "type": "uint256[]"
        }
      ],
      "name": "balanceOfBatch",
      "outputs": [
        {
          "internalType": "uint256[]",
          "name": "",
          "type": "uint256[]"
        }
      ],
      "stateMutability": "view",
      "type": "function"
    },
    {
      "inputs": [
        {
          "internalType": "address[]",
          "name": "owners",
          "type": "address[]"
        },
        {
          "internalType": "string[]",
          "name": "metadataURIs",
          "type": "string[]"
        }
      ],
      "name": "batchMintAsset",
      "outputs": [],
      "stateMutability": "nonpayable",
      "type": "function"
    },
    {
      "inputs": [
        {
          "internalType": "address",
          "name": "",
          "type": "address"
        }
      ],
      "name": "complianceModules",
      "outputs": [
        {
          "internalType": "bool",
          "name": "",
          "type": "bool"
        }
      ],
      "stateMutability": "view",
      "type": "function"
    },
    {
      "inputs": [
        {
          "internalType": "uint256",
          "name": "assetId",
          "type": "uint256"
        }
      ],
      "name": "getAsset",
      "outputs": [
        {
          "components": [
            {
              "internalType": "string",
              "name": "metadataURI",
              "type": "string"
            },
            {
              "internalType": "address",
              "name": "issuer",
              "type": "address"
            },
            {
              "internalType": "bytes",
              "name": "attestationHash",
              "type": "bytes"
            },
            {
              "internalType": "uint256",
              "name": "valuation",
              "type": "uint256"
            },
            {
              "internalType": "uint256",
              "name": "maturity",
              "type": "uint256"
            },
            {
              "internalType": "bool",
              "name": "locked",
              "type": "bool"
            },
            {
              "internalType": "string",
              "name": "assetType",
              "type": "string"
            }
          ],
          "internalType": "struct AssetTokenizer.Asset",
          "name": "",
          "type": "tuple"
        }
      ],
      "stateMutability": "view",
      "type": "function"
    },
    {
      "inputs": [
        {
          "internalType": "address",
          "name": "account",
          "type": "address"
        },
        {
          "internalType": "address",
          "name": "operator",
          "type": "address"
        }
      ],
      "name": "isApprovedForAll",
      "outputs": [
        {
          "internalType": "bool",
          "name": "",
          "type": "bool"
        }
      ],
      "stateMutability": "view",
      "type": "function"
    },
    {
      "inputs": [
        {
          "internalType": "uint256",
          "name": "assetId",
          "type": "uint256"
        },
        {
          "internalType": "address",
          "name": "vault",
          "type": "address"
        }
      ],
      "name": "lockAssetForVault",
      "outputs": [],
      "stateMutability": "nonpayable",
      "type": "function"
    },
    {
      "inputs": [
        {
          "internalType": "address",
          "name": "owner",
          "type": "address"
        },
        {
          "internalType": "string",
          "name": "metadataURI",
          "type": "string"
        },
        {
          "internalType": "bytes",
          "name": "attestationHash",
          "type": "bytes"
        }
      ],
      "name": "mintAsset",
      "outputs": [
        {
          "internalType": "uint256",
          "name": "",
          "type": "uint256"
        }
      ],
      "stateMutability": "nonpayable",
      "type": "function"
    },
    {
      "inputs": [],
      "name": "owner",
      "outputs": [
        {
          "internalType": "address",
          "name": "",
          "type": "address"
        }
      ],
      "stateMutability": "view",
      "type": "function"
    },
    {
      "inputs": [],
      "name": "renounceOwnership",
      "outputs": [],
      "stateMutability": "nonpayable",
      "type": "function"
    },
    {
      "inputs": [
        {
          "internalType": "address",
          "name": "from",
          "type": "address"
        },
        {
          "internalType": "address",
          "name": "to",
          "type": "address"
        },
        {
          "internalType": "uint256[]",
          "name": "ids",
          "type": "uint256[]"
        },
        {
          "internalType": "uint256[]",
          "name": "values",
          "type": "uint256[]"
        },
        {
          "internalType": "bytes",
          "name": "data",
          "type": "bytes"
        }
      ],
      "name": "safeBatchTransferFrom",
      "outputs": [],
      "stateMutability": "nonpayable",
      "type": "function"
    },
    {
      "inputs": [
        {
          "internalType": "address",
          "name": "from",
          "type": "address"
        },
        {
          "internalType": "address",
          "name": "to",
          "type": "address"
        },
        {
          "internalType": "uint256",
          "name": "id",
          "type": "uint256"
        },
        {
          "internalType": "uint256",
          "name": "value",
          "type": "uint256"
        },
        {
          "internalType": "bytes",
          "name": "data",
          "type": "bytes"
        }
      ],
      "name": "safeTransferFrom",
      "outputs": [],
      "stateMutability": "nonpayable",
      "type": "function"
    },
    {
      "inputs": [
        {
          "internalType": "address",
          "name": "operator",
          "type": "address"
        },
        {
          "internalType": "bool",
          "name": "approved",
          "type": "bool"
        }
      ],
      "name": "setApprovalForAll",
      "outputs": [],
      "stateMutability": "nonpayable",
      "type": "function"
    },
    {
      "inputs": [
        {
          "internalType": "address",
          "name": "complianceModule",
          "type": "address"
        }
      ],
      "name": "setCompliance",
      "outputs": [],
      "stateMutability": "nonpayable",
      "type": "function"
    },
    {
      "inputs": [
        {
          "internalType": "bytes4",
          "name": "interfaceId",
          "type": "bytes4"
        }
      ],
      "name": "supportsInterface",
      "outputs": [
        {
          "internalType": "bool",
          "name": "",
          "type": "bool"
        }
      ],
      "stateMutability": "view",
      "type": "function"
    },
    {
      "inputs": [
        {
          "internalType": "address",
          "name": "newOwner",
          "type": "address"
        }
      ],
      "name": "transferOwnership",
      "outputs": [],
      "stateMutability": "nonpayable",
      "type": "function"
    },
    {
      "inputs": [
        {
          "internalType": "uint256",
          "name": "assetId",
          "type": "uint256"
        }
      ],
      "name": "uri",
      "outputs": [
        {
          "internalType": "string",
          "name": "",
          "type": "string"
        }
      ],
      "stateMutability": "view",
      "type": "function"
    }
  ],
  "bytecode": "0x608060405260016004553480156200001657600080fd5b5033604051806020016040528060008152506200003981620000c760201b60201c565b50600073ffffffffffffffffffffffffffffffffffffffff168173ffffffffffffffffffffffffffffffffffffffff1603620000af5760006040517f1e4fbdf7000000000000000000000000000000000000000000000000000000008152600401620000a69190620001e7565b60405180910390fd5b620000c081620000dc60201b60201c565b5062000565565b8060029081620000d891906200047e565b5050565b6000600360009054906101000a900473ffffffffffffffffffffffffffffffffffffffff16905081600360006101000a81548173ffffffffffffffffffffffffffffffffffffffff021916908373ffffffffffffffffffffffffffffffffffffffff1602179055508173ffffffffffffffffffffffffffffffffffffffff168173ffffffffffffffffffffffffffffffffffffffff167f8be0079c531659141344cd1fd0a4f28419497f9722a3daafe3b4186f6b6457e060405160405180910390a35050565b600073ffffffffffffffffffffffffffffffffffffffff82169050919050565b6000620001cf82620001a2565b9050919050565b620001e181620001c2565b82525050565b6000602082019050620001fe6000830184620001d6565b92915050565b600081519050919050565b7f4e487b7100000000000000000000000000000000000000000000000000000000600052604160045260246000fd5b7f4e487b7100000000000000000000000000000000000000000000000000000000600052602260045260246000fd5b600060028204905060018216806200028657607f821691505b6020821081036200029c576200029b6200023e565b5b50919050565b60008190508160005260206000209050919050565b60006020601f8301049050919050565b600082821b905092915050565b600060088302620003067fffffffffffffffffffffffffffffffffffffffffffffffffffffffffffffffff82620002c7565b620003128683620002c7565b95508019841693508086168417925050509392505050565b6000819050919050565b6000819050919050565b60006200035f6200035962000353846200032a565b62000334565b6200032a565b9050919050565b6000819050919050565b6200037b836200033e565b620003936200038a8262000366565b848454620002d4565b825550505050565b600090565b620003aa6200039b565b620003b781848462000370565b505050565b5b81811015620003df57620003d3600082620003a0565b600181019050620003bd565b5050565b601f8211156200042e57620003f881620002a2565b6200040384620002b7565b8101602085101562000413578190505b6200042b6200042285620002b7565b830182620003bc565b50505b505050565b600082821c905092915050565b6000620004536000198460080262000433565b1980831691505092915050565b60006200046e838362000440565b9150826002028217905092915050565b620004898262000204565b67ffffffffffffffff811115620004a557620004a46200020f565b5b620004b182546200026d565b620004be828285620003e3565b600060209050601f831160018114620004f65760008415620004e1578287015190505b620004ed858262000460565b8655506200055d565b601f1984166200050686620002a2565b60005b82811015620005305784890151825560018201915060208501945060208101905062000509565b868310156200055057848901516200054c601f89168262000440565b8355505b6001600288020188555050505b505050505050565b61380480620005756000396000f3fe608060405234801561001057600080fd5b50600436106101155760003560e01c8063a22cb465116100a2578063e985e9c511610071578063e985e9c514610308578063eac8f5b814610338578063f242432a14610368578063f2fde38b14610384578063f8981789146103a057610115565b8063a22cb4651461026a578063bd2a58a214610286578063c0e0fbc0146102a2578063cf35bdd0146102d257610115565b806339660475116100e957806339660475146101c65780634e1273f4146101f6578063671d7b4e14610226578063715018a6146102425780638da5cb5b1461024c57610115565b8062fdd58e1461011a57806301ffc9a71461014a5780630e89341c1461017a5780632eb2c2d6146101aa575b600080fd5b610134600480360381019061012f9190612233565b6103bc565b6040516101419190612282565b60405180910390f35b610164600480360381019061015f91906122f5565b610416565b604051610171919061233d565b60405180910390f35b610194600480360381019061018f9190612358565b6104f8565b6040516101a19190612415565b60405180910390f35b6101c460048036038101906101bf9190612634565b6105a0565b005b6101e060048036038101906101db9190612703565b610648565b6040516101ed919061233d565b60405180910390f35b610210600480360381019061020b91906127f3565b610668565b60405161021d9190612929565b60405180910390f35b610240600480360381019061023b9190612acd565b610777565b005b61024a610835565b005b610254610849565b6040516102619190612b54565b60405180910390f35b610284600480360381019061027f9190612b9b565b610873565b005b6102a0600480360381019061029b9190612bdb565b610889565b005b6102bc60048036038101906102b79190612c1b565b61099d565b6040516102c99190612282565b60405180910390f35b6102ec60048036038101906102e79190612358565b610a84565b6040516102ff9796959493929190612cfb565b60405180910390f35b610322600480360381019061031d9190612d7f565b610c8b565b60405161032f919061233d565b60405180910390f35b610352600480360381019061034d9190612358565b610d1f565b60405161035f9190612f1b565b60405180910390f35b610382600480360381019061037d9190612f3d565b610f87565b005b61039e60048036038101906103999190612703565b61102f565b005b6103ba60048036038101906103b59190612703565b6110b5565b005b600080600083815260200190815260200160002060008473ffffffffffffffffffffffffffffffffffffffff1673ffffffffffffffffffffffffffffffffffffffff16815260200190815260200160002054905092915050565b60007fd9b67a26000000000000000000000000000000000000000000000000000000007bffffffffffffffffffffffffffffffffffffffffffffffffffffffff1916827bffffffffffffffffffffffffffffffffffffffffffffffffffffffff191614806104e157507f0e89341c000000000000000000000000000000000000000000000000000000007bffffffffffffffffffffffffffffffffffffffffffffffffffffffff1916827bffffffffffffffffffffffffffffffffffffffffffffffffffffffff1916145b806104f157506104f082611167565b5b9050919050565b606060056000838152602001908152602001600020600001805461051b90613003565b80601f016020809104026020016040519081016040528092919081815260200182805461054790613003565b80156105945780601f1061056957610100808354040283529160200191610594565b820191906000526020600020905b81548152906001019060200180831161057757829003601f168201915b50505050509050919050565b60006105aa6111d1565b90508073ffffffffffffffffffffffffffffffffffffffff168673ffffffffffffffffffffffffffffffffffffffff16141580156105ef57506105ed8682610c8b565b155b156106335780866040517fe237d92200000000000000000000000000000000000000000000000000000000815260040161062a929190613034565b60405180910390fd5b61064086868686866111d9565b505050505050565b60066020528060005260406000206000915054906101000a900460ff1681565b606081518351146106b457815183516040517f5b0599910000000000000000000000000000000000000000000000000000000081526004016106ab92919061305d565b60405180910390fd5b6000835167ffffffffffffffff8111156106d1576106d061243c565b5b6040519080825280602002602001820160405280156106ff5781602001602082028036833780820191505090505b50905060005b845181101561076c5761073c61072482876112d190919063ffffffff16565b61073783876112e590919063ffffffff16565b6103bc565b82828151811061074f5761074e613086565b5b60200260200101818152505080610765906130e4565b9050610705565b508091505092915050565b61077f6112f9565b80518251146107c3576040517f08c379a00000000000000000000000000000000000000000000000000000000081526004016107ba90613178565b60405180910390fd5b60005b82518110156108305761081d8382815181106107e5576107e4613086565b5b6020026020010151838381518110610800576107ff613086565b5b602002602001015160405180602001604052806000815250611380565b8080610828906130e4565b9150506107c6565b505050565b61083d6112f9565b6108476000611564565b565b6000600360009054906101000a900473ffffffffffffffffffffffffffffffffffffffff16905090565b61088561087e6111d1565b838361162a565b5050565b6005600083815260200190815260200160002060010160009054906101000a900473ffffffffffffffffffffffffffffffffffffffff1673ffffffffffffffffffffffffffffffffffffffff163373ffffffffffffffffffffffffffffffffffffffff16148061092b57506108fc610849565b73ffffffffffffffffffffffffffffffffffffffff163373ffffffffffffffffffffffffffffffffffffffff16145b61096a576040517f08c379a0000000000000000000000000000000000000000000000000000000008152600401610961906131e4565b60405180910390fd5b60016005600084815260200190815260200160002060050160006101000a81548160ff0219169083151502179055505050565b6000600660003373ffffffffffffffffffffffffffffffffffffffff1673ffffffffffffffffffffffffffffffffffffffff16815260200190815260200160002060009054906101000a900460ff1680610a2257508373ffffffffffffffffffffffffffffffffffffffff163373ffffffffffffffffffffffffffffffffffffffff16145b610a61576040517f08c379a0000000000000000000000000000000000000000000000000000000008152600401610a58906131e4565b60405180910390fd5b610a6c848484611380565b6001600454610a7b9190613204565b90509392505050565b6005602052806000526040600020600091509050806000018054610aa790613003565b80601f0160208091040260200160405190810160405280929190818152602001828054610ad390613003565b8015610b205780601f10610af557610100808354040283529160200191610b20565b820191906000526020600020905b815481529060010190602001808311610b0357829003601f168201915b5050505050908060010160009054906101000a900473ffffffffffffffffffffffffffffffffffffffff1690806002018054610b5b90613003565b80601f0160208091040260200160405190810160405280929190818152602001828054610b8790613003565b8015610bd45780601f10610ba957610100808354040283529160200191610bd4565b820191906000526020600020905b815481529060010190602001808311610bb757829003601f168201915b5050505050908060030154908060040154908060050160009054906101000a900460ff1690806006018054610c0890613003565b80601f0160208091040260200160405190810160405280929190818152602001828054610c3490613003565b8015610c815780601f10610c5657610100808354040283529160200191610c81565b820191906000526020600020905b815481529060010190602001808311610c6457829003601f168201915b5050505050905087565b6000600160008473ffffffffffffffffffffffffffffffffffffffff1673ffffffffffffffffffffffffffffffffffffffff16815260200190815260200160002060008373ffffffffffffffffffffffffffffffffffffffff1673ffffffffffffffffffffffffffffffffffffffff16815260200190815260200160002060009054906101000a900460ff16905092915050565b610d27612136565b600560008381526020019081526020016000206040518060e0016040529081600082018054610d5590613003565b80601f0160208091040260200160405190810160405280929190818152602001828054610d8190613003565b8015610dce5780601f10610da357610100808354040283529160200191610dce565b820191906000526020600020905b815481529060010190602001808311610db157829003601f168201915b505050505081526020016001820160009054906101000a900473ffffffffffffffffffffffffffffffffffffffff1673ffffffffffffffffffffffffffffffffffffffff1673ffffffffffffffffffffffffffffffffffffffff168152602001600282018054610e3d90613003565b80601f0160208091040260200160405190810160405280929190818152602001828054610e6990613003565b8015610eb65780601f10610e8b57610100808354040283529160200191610eb6565b820191906000526020600020905b815481529060010190602001808311610e9957829003601f168201915b5050505050815260200160038201548152602001600482015481526020016005820160009054906101000a900460ff16151515158152602001600682018054610efe90613003565b80601f0160208091040260200160405190810160405280929190818152602001828054610f2a90613003565b8015610f775780601f10610f4c57610100808354040283529160200191610f77565b820191906000526020600020905b815481529060010190602001808311610f5a57829003601f168201915b5050505050815250509050919050565b6000610f916111d1565b90508073ffffffffffffffffffffffffffffffffffffffff168673ffffffffffffffffffffffffffffffffffffffff1614158015610fd65750610fd48682610c8b565b155b1561101a5780866040517fe237d922000000000000000000000000000000000000000000000000000000008152600401611011929190613034565b60405180910390fd5b611027868686868661179a565b505050505050565b6110376112f9565b600073ffffffffffffffffffffffffffffffffffffffff168173ffffffffffffffffffffffffffffffffffffffff16036110a95760006040517f1e4fbdf70000000000000000000000000000000000000000000000000000000081526004016110a09190612b54565b60405180910390fd5b6110b281611564565b50565b6110bd6112f9565b6001600660008373ffffffffffffffffffffffffffffffffffffffff1673ffffffffffffffffffffffffffffffffffffffff16815260200190815260200160002060006101000a81548160ff0219169083151502179055508073ffffffffffffffffffffffffffffffffffffffff167fa13699c16cf2ad917ec6d790298633b8ce1598dc6e7ea78c1560f9c74d85f73c600160405161115c919061233d565b60405180910390a250565b60007f01ffc9a7000000000000000000000000000000000000000000000000000000007bffffffffffffffffffffffffffffffffffffffffffffffffffffffff1916827bffffffffffffffffffffffffffffffffffffffffffffffffffffffff1916149050919050565b600033905090565b600073ffffffffffffffffffffffffffffffffffffffff168473ffffffffffffffffffffffffffffffffffffffff160361124b5760006040517f57f447ce0000000000000000000000000000000000000000000000000000000081526004016112429190612b54565b60405180910390fd5b600073ffffffffffffffffffffffffffffffffffffffff168573ffffffffffffffffffffffffffffffffffffffff16036112bd5760006040517f01a835140000000000000000000000000000000000000000000000000000000081526004016112b49190612b54565b60405180910390fd5b6112ca85858585856118a5565b5050505050565b600060208202602084010151905092915050565b600060208202602084010151905092915050565b6113016111d1565b73ffffffffffffffffffffffffffffffffffffffff1661131f610849565b73ffffffffffffffffffffffffffffffffffffffff161461137e576113426111d1565b6040517f118cdaa70000000000000000000000000000000000000000000000000000000081526004016113759190612b54565b60405180910390fd5b565b600060046000815480929190611395906130e4565b9190505590506040518060e001604052808481526020018573ffffffffffffffffffffffffffffffffffffffff16815260200183815260200160008152602001600081526020016000151581526020016040518060400160405280600781526020017f696e766f6963650000000000000000000000000000000000000000000000000081525081525060056000838152602001908152602001600020600082015181600001908161144691906133e4565b5060208201518160010160006101000a81548173ffffffffffffffffffffffffffffffffffffffff021916908373ffffffffffffffffffffffffffffffffffffffff16021790555060408201518160020190816114a39190613511565b50606082015181600301556080820151816004015560a08201518160050160006101000a81548160ff02191690831515021790555060c08201518160060190816114ed91906133e4565b5090505061150d8482600160405180602001604052806000815250611957565b8373ffffffffffffffffffffffffffffffffffffffff16817f085848d13d6a8c5d1a231e048298b23462c38e956340c9b803553f42670ba4ca85856040516115569291906135e3565b60405180910390a350505050565b6000600360009054906101000a900473ffffffffffffffffffffffffffffffffffffffff16905081600360006101000a81548173ffffffffffffffffffffffffffffffffffffffff021916908373ffffffffffffffffffffffffffffffffffffffff1602179055508173ffffffffffffffffffffffffffffffffffffffff168173ffffffffffffffffffffffffffffffffffffffff167f8be0079c531659141344cd1fd0a4f28419497f9722a3daafe3b4186f6b6457e060405160405180910390a35050565b600073ffffffffffffffffffffffffffffffffffffffff168273ffffffffffffffffffffffffffffffffffffffff160361169c5760006040517fced3e1000000000000000000000000000000000000000000000000000000000081526004016116939190612b54565b60405180910390fd5b80600160008573ffffffffffffffffffffffffffffffffffffffff1673ffffffffffffffffffffffffffffffffffffffff16815260200190815260200160002060008473ffffffffffffffffffffffffffffffffffffffff1673ffffffffffffffffffffffffffffffffffffffff16815260200190815260200160002060006101000a81548160ff0219169083151502179055508173ffffffffffffffffffffffffffffffffffffffff168373ffffffffffffffffffffffffffffffffffffffff167f17307eab39ab6107e8899845ad3d59bd9653f200f220920489ca2b5937696c318360405161178d919061233d565b60405180910390a3505050565b600073ffffffffffffffffffffffffffffffffffffffff168473ffffffffffffffffffffffffffffffffffffffff160361180c5760006040517f57f447ce0000000000000000000000000000000000000000000000000000000081526004016118039190612b54565b60405180910390fd5b600073ffffffffffffffffffffffffffffffffffffffff168573ffffffffffffffffffffffffffffffffffffffff160361187e5760006040517f01a835140000000000000000000000000000000000000000000000000000000081526004016118759190612b54565b60405180910390fd5b60008061188b85856119f0565b9150915061189c87878484876118a5565b50505050505050565b6118b185858585611a20565b600073ffffffffffffffffffffffffffffffffffffffff168473ffffffffffffffffffffffffffffffffffffffff16146119505760006118ef6111d1565b9050600184510361193f5760006119106000866112e590919063ffffffff16565b905060006119286000866112e590919063ffffffff16565b9050611938838989858589611dce565b505061194e565b61194d818787878787611f82565b5b505b5050505050565b600073ffffffffffffffffffffffffffffffffffffffff168473ffffffffffffffffffffffffffffffffffffffff16036119c95760006040517f57f447ce0000000000000000000000000000000000000000000000000000000081526004016119c09190612b54565b60405180910390fd5b6000806119d685856119f0565b915091506119e86000878484876118a5565b505050505050565b60608060405191506001825283602083015260408201905060018152826020820152604081016040529250929050565b8051825114611a6a57815181516040517f5b059991000000000000000000000000000000000000000000000000000000008152600401611a6192919061305d565b60405180910390fd5b6000611a746111d1565b905060005b8351811015611c89576000611a9782866112e590919063ffffffff16565b90506000611aae83866112e590919063ffffffff16565b9050600073ffffffffffffffffffffffffffffffffffffffff168873ffffffffffffffffffffffffffffffffffffffff1614611bdb57600080600084815260200190815260200160002060008a73ffffffffffffffffffffffffffffffffffffffff1673ffffffffffffffffffffffffffffffffffffffff16815260200190815260200160002054905081811015611b8357888183856040517f03dee4c5000000000000000000000000000000000000000000000000000000008152600401611b7a949392919061361a565b60405180910390fd5b81810360008085815260200190815260200160002060008b73ffffffffffffffffffffffffffffffffffffffff1673ffffffffffffffffffffffffffffffffffffffff16815260200190815260200160002081905550505b600073ffffffffffffffffffffffffffffffffffffffff168773ffffffffffffffffffffffffffffffffffffffff1614611c76578060008084815260200190815260200160002060008973ffffffffffffffffffffffffffffffffffffffff1673ffffffffffffffffffffffffffffffffffffffff1681526020019081526020016000206000828254611c6e919061365f565b925050819055505b505080611c82906130e4565b9050611a79565b506001835103611d48576000611ca96000856112e590919063ffffffff16565b90506000611cc16000856112e590919063ffffffff16565b90508573ffffffffffffffffffffffffffffffffffffffff168773ffffffffffffffffffffffffffffffffffffffff168473ffffffffffffffffffffffffffffffffffffffff167fc3d58168c5ae7397731d063d5bbf3d657854427343f4c083240f7aacaa2d0f628585604051611d3992919061305d565b60405180910390a45050611dc7565b8373ffffffffffffffffffffffffffffffffffffffff168573ffffffffffffffffffffffffffffffffffffffff168273ffffffffffffffffffffffffffffffffffffffff167f4a39dc06d4c0dbc64b70af90fd698a233a518aa5d07e595d983b8c0526c8f7fb8686604051611dbe929190613693565b60405180910390a45b5050505050565b60008473ffffffffffffffffffffffffffffffffffffffff163b1115611f7a578373ffffffffffffffffffffffffffffffffffffffff1663f23a6e6187878686866040518663ffffffff1660e01b8152600401611e2f9594939291906136ca565b6020604051808303816000875af1925050508015611e6b57506040513d601f19601f82011682018060405250810190611e689190613739565b60015b611eef573d8060008114611e9b576040519150601f19603f3d011682016040523d82523d6000602084013e611ea0565b606091505b506000815103611ee757846040517f57f447ce000000000000000000000000000000000000000000000000000000008152600401611ede9190612b54565b60405180910390fd5b805160208201fd5b63f23a6e6160e01b7bffffffffffffffffffffffffffffffffffffffffffffffffffffffff1916817bffffffffffffffffffffffffffffffffffffffffffffffffffffffff191614611f7857846040517f57f447ce000000000000000000000000000000000000000000000000000000008152600401611f6f9190612b54565b60405180910390fd5b505b505050505050565b60008473ffffffffffffffffffffffffffffffffffffffff163b111561212e578373ffffffffffffffffffffffffffffffffffffffff1663bc197c8187878686866040518663ffffffff1660e01b8152600401611fe3959493929190613766565b6020604051808303816000875af192505050801561201f57506040513d601f19601f8201168201806040525081019061201c9190613739565b60015b6120a3573d806000811461204f576040519150601f19603f3d011682016040523d82523d6000602084013e612054565b606091505b50600081510361209b57846040517f57f447ce0000000000000000000000000000000000000000000000000000000081526004016120929190612b54565b60405180910390fd5b805160208201fd5b63bc197c8160e01b7bffffffffffffffffffffffffffffffffffffffffffffffffffffffff1916817bffffffffffffffffffffffffffffffffffffffffffffffffffffffff19161461212c57846040517f57f447ce0000000000000000000000000000000000000000000000000000000081526004016121239190612b54565b60405180910390fd5b505b505050505050565b6040518060e0016040528060608152602001600073ffffffffffffffffffffffffffffffffffffffff168152602001606081526020016000815260200160008152602001600015158152602001606081525090565b6000604051905090565b600080fd5b600080fd5b600073ffffffffffffffffffffffffffffffffffffffff82169050919050565b60006121ca8261219f565b9050919050565b6121da816121bf565b81146121e557600080fd5b50565b6000813590506121f7816121d1565b92915050565b6000819050919050565b612210816121fd565b811461221b57600080fd5b50565b60008135905061222d81612207565b92915050565b6000806040838503121561224a57612249612195565b5b6000612258858286016121e8565b92505060206122698582860161221e565b9150509250929050565b61227c816121fd565b82525050565b60006020820190506122976000830184612273565b92915050565b60007fffffffff0000000000000000000000000000000000000000000000000000000082169050919050565b6122d28161229d565b81146122dd57600080fd5b50565b6000813590506122ef816122c9565b92915050565b60006020828403121561230b5761230a612195565b5b6000612319848285016122e0565b91505092915050565b60008115159050919050565b61233781612322565b82525050565b6000602082019050612352600083018461232e565b92915050565b60006020828403121561236e5761236d612195565b5b600061237c8482850161221e565b91505092915050565b600081519050919050565b600082825260208201905092915050565b60005b838110156123bf5780820151818401526020810190506123a4565b60008484015250505050565b6000601f19601f8301169050919050565b60006123e782612385565b6123f18185612390565b93506124018185602086016123a1565b61240a816123cb565b840191505092915050565b6000602082019050818103600083015261242f81846123dc565b905092915050565b600080fd5b7f4e487b7100000000000000000000000000000000000000000000000000000000600052604160045260246000fd5b612474826123cb565b810181811067ffffffffffffffff821117156124935761249261243c565b5b80604052505050565b60006124a661218b565b90506124b2828261246b565b919050565b600067ffffffffffffffff8211156124d2576124d161243c565b5b602082029050602081019050919050565b600080fd5b60006124fb6124f6846124b7565b61249c565b9050808382526020820190506020840283018581111561251e5761251d6124e3565b5b835b818110156125475780612533888261221e565b845260208401935050602081019050612520565b5050509392505050565b600082601f83011261256657612565612437565b5b81356125768482602086016124e8565b91505092915050565b600080fd5b600067ffffffffffffffff82111561259f5761259e61243c565b5b6125a8826123cb565b9050602081019050919050565b82818337600083830152505050565b60006125d76125d284612584565b61249c565b9050828152602081018484840111156125f3576125f261257f565b5b6125fe8482856125b5565b509392505050565b600082601f83011261261b5761261a612437565b5b813561262b8482602086016125c4565b91505092915050565b600080600080600060a086880312156126505761264f612195565b5b600061265e888289016121e8565b955050602061266f888289016121e8565b945050604086013567ffffffffffffffff8111156126905761268f61219a565b5b61269c88828901612551565b935050606086013567ffffffffffffffff8111156126bd576126bc61219a565b5b6126c988828901612551565b925050608086013567ffffffffffffffff8111156126ea576126e961219a565b5b6126f688828901612606565b9150509295509295909350565b60006020828403121561271957612718612195565b5b6000612727848285016121e8565b91505092915050565b600067ffffffffffffffff82111561274b5761274a61243c565b5b602082029050602081019050919050565b600061276f61276a84612730565b61249c565b90508083825260208201905060208402830185811115612792576127916124e3565b5b835b818110156127bb57806127a788826121e8565b845260208401935050602081019050612794565b5050509392505050565b600082601f8301126127da576127d9612437565b5b81356127ea84826020860161275c565b91505092915050565b6000806040838503121561280a57612809612195565b5b600083013567ffffffffffffffff8111156128285761282761219a565b5b612834858286016127c5565b925050602083013567ffffffffffffffff8111156128555761285461219a565b5b61286185828601612551565b9150509250929050565b600081519050919050565b600082825260208201905092915050565b6000819050602082019050919050565b6128a0816121fd565b82525050565b60006128b28383612897565b60208301905092915050565b6000602082019050919050565b60006128d68261286b565b6128e08185612876565b93506128eb83612887565b8060005b8381101561291c57815161290388826128a6565b975061290e836128be565b9250506001810190506128ef565b5085935050505092915050565b6000602082019050818103600083015261294381846128cb565b905092915050565b600067ffffffffffffffff8211156129665761296561243c565b5b602082029050602081019050919050565b600067ffffffffffffffff8211156129925761299161243c565b5b61299b826123cb565b9050602081019050919050565b60006129bb6129b684612977565b61249c565b9050828152602081018484840111156129d7576129d661257f565b5b6129e28482856125b5565b509392505050565b600082601f8301126129ff576129fe612437565b5b8135612a0f8482602086016129a8565b91505092915050565b6000612a2b612a268461294b565b61249c565b90508083825260208201905060208402830185811115612a4e57612a4d6124e3565b5b835b81811015612a9557803567ffffffffffffffff811115612a7357612a72612437565b5b808601612a8089826129ea565b85526020850194505050602081019050612a50565b5050509392505050565b600082601f830112612ab457612ab3612437565b5b8135612ac4848260208601612a18565b91505092915050565b60008060408385031215612ae457612ae3612195565b5b600083013567ffffffffffffffff811115612b0257612b0161219a565b5b612b0e858286016127c5565b925050602083013567ffffffffffffffff811115612b2f57612b2e61219a565b5b612b3b85828601612a9f565b9150509250929050565b612b4e816121bf565b82525050565b6000602082019050612b696000830184612b45565b92915050565b612b7881612322565b8114612b8357600080fd5b50565b600081359050612b9581612b6f565b92915050565b60008060408385031215612bb257612bb1612195565b5b6000612bc0858286016121e8565b9250506020612bd185828601612b86565b9150509250929050565b60008060408385031215612bf257612bf1612195565b5b6000612c008582860161221e565b9250506020612c11858286016121e8565b9150509250929050565b600080600060608486031215612c3457612c33612195565b5b6000612c42868287016121e8565b935050602084013567ffffffffffffffff811115612c6357612c6261219a565b5b612c6f868287016129ea565b925050604084013567ffffffffffffffff811115612c9057612c8f61219a565b5b612c9c86828701612606565b9150509250925092565b600081519050919050565b600082825260208201905092915050565b6000612ccd82612ca6565b612cd78185612cb1565b9350612ce78185602086016123a1565b612cf0816123cb565b840191505092915050565b600060e0820190508181036000830152612d15818a6123dc565b9050612d246020830189612b45565b8181036040830152612d368188612cc2565b9050612d456060830187612273565b612d526080830186612273565b612d5f60a083018561232e565b81810360c0830152612d7181846123dc565b905098975050505050505050565b60008060408385031215612d9657612d95612195565b5b6000612da4858286016121e8565b9250506020612db5858286016121e8565b9150509250929050565b600082825260208201905092915050565b6000612ddb82612385565b612de58185612dbf565b9350612df58185602086016123a1565b612dfe816123cb565b840191505092915050565b612e12816121bf565b82525050565b600082825260208201905092915050565b6000612e3482612ca6565b612e3e8185612e18565b9350612e4e8185602086016123a1565b612e57816123cb565b840191505092915050565b612e6b81612322565b82525050565b600060e0830160008301518482036000860152612e8e8282612dd0565b9150506020830151612ea36020860182612e09565b5060408301518482036040860152612ebb8282612e29565b9150506060830151612ed06060860182612897565b506080830151612ee36080860182612897565b5060a0830151612ef660a0860182612e62565b5060c083015184820360c0860152612f0e8282612dd0565b9150508091505092915050565b60006020820190508181036000830152612f358184612e71565b905092915050565b600080600080600060a08688031215612f5957612f58612195565b5b6000612f67888289016121e8565b9550506020612f78888289016121e8565b9450506040612f898882890161221e565b9350506060612f9a8882890161221e565b925050608086013567ffffffffffffffff811115612fbb57612fba61219a565b5b612fc788828901612606565b9150509295509295909350565b7f4e487b7100000000000000000000000000000000000000000000000000000000600052602260045260246000fd5b6000600282049050600182168061301b57607f821691505b60208210810361302e5761302d612fd4565b5b50919050565b60006040820190506130496000830185612b45565b6130566020830184612b45565b9392505050565b60006040820190506130726000830185612273565b61307f6020830184612273565b9392505050565b7f4e487b7100000000000000000000000000000000000000000000000000000000600052603260045260246000fd5b7f4e487b7100000000000000000000000000000000000000000000000000000000600052601160045260246000fd5b60006130ef826121fd565b91507fffffffffffffffffffffffffffffffffffffffffffffffffffffffffffffffff8203613121576131206130b5565b5b600182019050919050565b7f4d69736d61746368656420617272617973000000000000000000000000000000600082015250565b6000613162601183612390565b915061316d8261312c565b602082019050919050565b6000602082019050818103600083015261319181613155565b9050919050565b7f4e6f7420617574686f72697a6564000000000000000000000000000000000000600082015250565b60006131ce600e83612390565b91506131d982613198565b602082019050919050565b600060208201905081810360008301526131fd816131c1565b9050919050565b600061320f826121fd565b915061321a836121fd565b9250828203905081811115613232576132316130b5565b5b92915050565b60008190508160005260206000209050919050565b60006020601f8301049050919050565b600082821b905092915050565b60006008830261329a7fffffffffffffffffffffffffffffffffffffffffffffffffffffffffffffffff8261325d565b6132a4868361325d565b95508019841693508086168417925050509392505050565b6000819050919050565b60006132e16132dc6132d7846121fd565b6132bc565b6121fd565b9050919050565b6000819050919050565b6132fb836132c6565b61330f613307826132e8565b84845461326a565b825550505050565b600090565b613324613317565b61332f8184846132f2565b505050565b5b818110156133535761334860008261331c565b600181019050613335565b5050565b601f8211156133985761336981613238565b6133728461324d565b81016020851015613381578190505b61339561338d8561324d565b830182613334565b50505b505050565b600082821c905092915050565b60006133bb6000198460080261339d565b1980831691505092915050565b60006133d483836133aa565b9150826002028217905092915050565b6133ed82612385565b67ffffffffffffffff8111156134065761340561243c565b5b6134108254613003565b61341b828285613357565b600060209050601f83116001811461344e576000841561343c578287015190505b61344685826133c8565b8655506134ae565b601f19841661345c86613238565b60005b828110156134845784890151825560018201915060208501945060208101905061345f565b868310156134a1578489015161349d601f8916826133aa565b8355505b6001600288020188555050505b505050505050565b60008190508160005260206000209050919050565b601f82111561350c576134dd816134b6565b6134e68461324d565b810160208510156134f5578190505b6135096135018561324d565b830182613334565b50505b505050565b61351a82612ca6565b67ffffffffffffffff8111156135335761353261243c565b5b61353d8254613003565b6135488282856134cb565b600060209050601f83116001811461357b5760008415613569578287015190505b61357385826133c8565b8655506135db565b601f198416613589866134b6565b60005b828110156135b15784890151825560018201915060208501945060208101905061358c565b868310156135ce57848901516135ca601f8916826133aa565b8355505b6001600288020188555050505b505050505050565b600060408201905081810360008301526135fd81856123dc565b905081810360208301526136118184612cc2565b90509392505050565b600060808201905061362f6000830187612b45565b61363c6020830186612273565b6136496040830185612273565b6136566060830184612273565b95945050505050565b600061366a826121fd565b9150613675836121fd565b925082820190508082111561368d5761368c6130b5565b5b92915050565b600060408201905081810360008301526136ad81856128cb565b905081810360208301526136c181846128cb565b90509392505050565b600060a0820190506136df6000830188612b45565b6136ec6020830187612b45565b6136f96040830186612273565b6137066060830185612273565b81810360808301526137188184612cc2565b90509695505050505050565b600081519050613733816122c9565b92915050565b60006020828403121561374f5761374e612195565b5b600061375d84828501613724565b91505092915050565b600060a08201905061377b6000830188612b45565b6137886020830187612b45565b818103604083015261379a81866128cb565b905081810360608301526137ae81856128cb565b905081810360808301526137c28184612cc2565b9050969550505050505056fea2646970667358221220646e8f1b7ef75b2e48b48707d8f8930abbef973bac00f7eff9abb369b4b304b464736f6c63430008140033",
  "linkReferences": {},
  "deployedLinkReferences": {}
}